{
  "contractName": "CEtherRedeamer",
  "abi": [
    {
      "inputs": [
        {
          "internalType": "address",
          "name": "_cether",
          "type": "address"
        }
      ],
      "stateMutability": "nonpayable",
      "type": "constructor"
    },
    {
      "inputs": [],
      "name": "cether",
      "outputs": [
        {
          "internalType": "contract ICEther",
          "name": "",
          "type": "address"
        }
      ],
      "stateMutability": "view",
      "type": "function"
    },
    {
      "stateMutability": "payable",
      "type": "receive"
    },
    {
      "inputs": [
        {
          "internalType": "uint256",
          "name": "redeemTokens",
          "type": "uint256"
        }
      ],
      "name": "redeem",
      "outputs": [
        {
          "internalType": "uint256",
          "name": "",
          "type": "uint256"
        }
      ],
      "stateMutability": "nonpayable",
      "type": "function"
    },
    {
      "inputs": [
        {
          "internalType": "uint256",
          "name": "redeemAmount",
          "type": "uint256"
        }
      ],
      "name": "redeemUnderlying",
      "outputs": [
        {
          "internalType": "uint256",
          "name": "",
          "type": "uint256"
        }
      ],
      "stateMutability": "nonpayable",
      "type": "function"
    }
  ],
  "bytecode": "0x60a060405234801561001057600080fd5b506040516104a73803806104a78339818101604052602081101561003357600080fd5b5051606081901b6001600160601b0319166080526001600160a01b03166104326100756000398060dd52806101045280610292528061039852506104326000f3fe6080604052600436106100385760003560e01c806315ac03fd14610044578063852a12e314610075578063db006a75146100b15761003f565b3661003f57005b600080fd5b34801561005057600080fd5b506100596100db565b604080516001600160a01b039092168252519081900360200190f35b34801561008157600080fd5b5061009f6004803603602081101561009857600080fd5b50356100ff565b60408051918252519081900360200190f35b3480156100bd57600080fd5b5061009f600480360360208110156100d457600080fd5b5035610393565b7f000000000000000000000000000000000000000000000000000000000000000081565b6000807f00000000000000000000000000000000000000000000000000000000000000006001600160a01b031663852a12e3846040518263ffffffff1660e01b815260040180828152602001915050602060405180830381600087803b15801561016857600080fd5b505af115801561017c573d6000803e3d6000fd5b505050506040513d602081101561019257600080fd5b5051604051909150600090606090339047908481818185875af1925050503d80600081146101dc576040519150601f19603f3d011682016040523d82523d6000602084013e6101e1565b606091505b50915091508181906102715760405162461bcd60e51b81526004018080602001828103825283818151815260200191508051906020019080838360005b8381101561023657818101518382015260200161021e565b50505050905090810190601f1680156102635780820380516001836020036101000a031916815260200191505b509250505060405180910390fd5b50604080516370a0823160e01b815230600482015290516001600160a01b037f0000000000000000000000000000000000000000000000000000000000000000169163a9059cbb91339184916370a0823191602480820192602092909190829003018186803b1580156102e357600080fd5b505afa1580156102f7573d6000803e3d6000fd5b505050506040513d602081101561030d57600080fd5b5051604080516001600160e01b031960e086901b1681526001600160a01b03909316600484015260248301919091525160448083019260209291908290030181600087803b15801561035e57600080fd5b505af1158015610372573d6000803e3d6000fd5b505050506040513d602081101561038857600080fd5b509295945050505050565b6000807f00000000000000000000000000000000000000000000000000000000000000006001600160a01b031663db006a75846040518263ffffffff1660e01b815260040180828152602001915050602060405180830381600087803b15801561016857600080fdfea264697066735822122017d403173a4c85323a1e11aa53f5a86c671ec2bd04411ed8e57462d47543324564736f6c63430006060033",
  "immutableReferences": {
    "661": [
      {
        "length": 32,
        "start": 221
      },
      {
        "length": 32,
        "start": 260
      },
      {
        "length": 32,
        "start": 658
      },
      {
        "length": 32,
        "start": 920
      }
    ]
  },
  "source": "pragma solidity ^0.6.0;\n\n\ninterface IERC20\n{\n\tfunction totalSupply() external view returns (uint256);\n\tfunction balanceOf(address account) external view returns (uint256);\n\tfunction transfer(address recipient, uint256 amount) external returns (bool);\n\tfunction allowance(address owner, address spender) external view returns (uint256);\n\tfunction approve(address spender, uint256 amount) external returns (bool);\n\tfunction transferFrom(address sender, address recipient, uint256 amount) external returns (bool);\n\tevent Transfer(address indexed from, address indexed to, uint256 value);\n\tevent Approval(address indexed owner, address indexed spender, uint256 value);\n}\n\ninterface ICEther is IERC20\n{\n\tfunction redeem(uint redeemTokens) external returns (uint);\n\tfunction redeemUnderlying(uint redeemAmount) external returns (uint);\n}\n\n\ncontract CEtherRedeamer\n{\n\tICEther public immutable cether;\n\n\tconstructor(address _cether)\n\tpublic\n\t{\n\t\tcether = ICEther(_cether);\n\t}\n\n\treceive()\n\texternal payable\n\t{}\n\n\tfunction redeem(uint redeemTokens) external returns (uint)\n\t{\n\t\tuint result = cether.redeem(redeemTokens);\n\t\t(bool success, bytes memory returndata) = msg.sender.call{value: address(this).balance}(\"\");\n\t\trequire(success, string(returndata));\n\t\tcether.transfer(msg.sender, cether.balanceOf(address(this)));\n\t\treturn result;\n\t}\n\n\tfunction redeemUnderlying(uint redeemAmount) external returns (uint)\n\t{\n\t\tuint result = cether.redeemUnderlying(redeemAmount);\n\t\t(bool success, bytes memory returndata) = msg.sender.call{value: address(this).balance}(\"\");\n\t\trequire(success, string(returndata));\n\t\tcether.transfer(msg.sender, cether.balanceOf(address(this)));\n\t\treturn result;\n\t}\n\n}\n",
  "sourcePath": "/home/amxx/Work/Projects/NFWallets/solidity/contracts/legos/CEtherRedeemer.sol",
  "compiler": {
    "name": "solc",
    "version": "0.6.6+commit.6c089d02.Emscripten.clang"
  },
  "schemaVersion": "3.1.0",
  "updatedAt": "2020-05-06T08:21:39.224Z",
  "devdoc": {
    "methods": {}
  },
  "userdoc": {
    "methods": {}
  }
}