{
  "contractName": "NFWallet",
  "abi": [
    {
      "anonymous": false,
      "inputs": [
        {
          "indexed": true,
          "internalType": "address",
          "name": "to",
          "type": "address"
        },
        {
          "indexed": false,
          "internalType": "uint256",
          "name": "value",
          "type": "uint256"
        },
        {
          "indexed": false,
          "internalType": "bytes",
          "name": "data",
          "type": "bytes"
        }
      ],
      "name": "Executed",
      "type": "event"
    },
    {
      "anonymous": false,
      "inputs": [
        {
          "indexed": true,
          "internalType": "address",
          "name": "from",
          "type": "address"
        },
        {
          "indexed": false,
          "internalType": "uint256",
          "name": "value",
          "type": "uint256"
        }
      ],
      "name": "Received",
      "type": "event"
    },
    {
      "inputs": [
        {
          "internalType": "address",
          "name": "_registry",
          "type": "address"
        }
      ],
      "name": "initialize",
      "outputs": [],
      "stateMutability": "nonpayable",
      "type": "function"
    },
    {
      "inputs": [],
      "name": "owner",
      "outputs": [
        {
          "internalType": "address",
          "name": "",
          "type": "address"
        }
      ],
      "stateMutability": "view",
      "type": "function"
    },
    {
      "inputs": [],
      "name": "registry",
      "outputs": [
        {
          "internalType": "contract IERC721",
          "name": "",
          "type": "address"
        }
      ],
      "stateMutability": "view",
      "type": "function"
    },
    {
      "inputs": [
        {
          "internalType": "address",
          "name": "",
          "type": "address"
        },
        {
          "internalType": "address",
          "name": "",
          "type": "address"
        },
        {
          "internalType": "uint256",
          "name": "",
          "type": "uint256"
        },
        {
          "internalType": "bytes",
          "name": "",
          "type": "bytes"
        }
      ],
      "name": "onERC721Received",
      "outputs": [
        {
          "internalType": "bytes4",
          "name": "",
          "type": "bytes4"
        }
      ],
      "stateMutability": "nonpayable",
      "type": "function"
    },
    {
      "inputs": [
        {
          "internalType": "address",
          "name": "",
          "type": "address"
        },
        {
          "internalType": "address",
          "name": "",
          "type": "address"
        },
        {
          "internalType": "address",
          "name": "",
          "type": "address"
        },
        {
          "internalType": "uint256",
          "name": "",
          "type": "uint256"
        },
        {
          "internalType": "bytes",
          "name": "",
          "type": "bytes"
        },
        {
          "internalType": "bytes",
          "name": "",
          "type": "bytes"
        }
      ],
      "name": "tokensReceived",
      "outputs": [],
      "stateMutability": "nonpayable",
      "type": "function"
    },
    {
      "inputs": [
        {
          "internalType": "address",
          "name": "to",
          "type": "address"
        },
        {
          "internalType": "uint256",
          "name": "value",
          "type": "uint256"
        },
        {
          "internalType": "bytes",
          "name": "data",
          "type": "bytes"
        }
      ],
      "name": "forward",
      "outputs": [],
      "stateMutability": "nonpayable",
      "type": "function"
    },
    {
      "inputs": [
        {
          "components": [
            {
              "internalType": "address",
              "name": "to",
              "type": "address"
            },
            {
              "internalType": "uint256",
              "name": "value",
              "type": "uint256"
            },
            {
              "internalType": "bytes",
              "name": "data",
              "type": "bytes"
            }
          ],
          "internalType": "struct Call[]",
          "name": "calls",
          "type": "tuple[]"
        }
      ],
      "name": "forwardBatch",
      "outputs": [],
      "stateMutability": "nonpayable",
      "type": "function"
    },
    {
      "inputs": [
        {
          "internalType": "bytes32",
          "name": "hash",
          "type": "bytes32"
        },
        {
          "internalType": "bytes",
          "name": "signature",
          "type": "bytes"
        }
      ],
      "name": "isValidSignature",
      "outputs": [
        {
          "internalType": "bytes4",
          "name": "magicValue",
          "type": "bytes4"
        }
      ],
      "stateMutability": "view",
      "type": "function"
    },
    {
      "inputs": [
        {
          "internalType": "bytes",
          "name": "data",
          "type": "bytes"
        },
        {
          "internalType": "bytes",
          "name": "signature",
          "type": "bytes"
        }
      ],
      "name": "isValidSignature",
      "outputs": [
        {
          "internalType": "bytes4",
          "name": "magicValue",
          "type": "bytes4"
        }
      ],
      "stateMutability": "view",
      "type": "function"
    }
  ],
  "bytecode": "0x6080604052610c7d806100136000396000f3fe608060405234801561001057600080fd5b50600436106100925760003560e01c80637b103999116100665780637b103999146100fb5780638da5cb5b14610110578063aef0562914610118578063c4d66de81461012b578063d7f31eb91461013e57610092565b806223de2914610097578063150b7a02146100ac5780631626ba7e146100d557806320c13b0b146100e8575b600080fd5b6100aa6100a53660046107b8565b610151565b005b6100bf6100ba366004610859565b610159565b6040516100cc9190610aba565b60405180910390f35b6100bf6100e3366004610989565b610169565b6100bf6100f63660046109d3565b6101df565b61010361026d565b6040516100cc9190610a88565b61010361027c565b6100aa61012636600461091d565b610302565b6100aa610139366004610779565b610419565b6100aa61014c3660046108c3565b610464565b505050505050565b630a85bd0160e11b949350505050565b60006101ab8484848080601f0160208091040260200160405190810160405280939291908181526020018383808284376000920191909152506104ea92505050565b6001600160a01b03166101bc61027c565b6001600160a01b0316146101cf57600080fd5b50630b135d3f60e11b9392505050565b600061023885856040516101f4929190610a5c565b604051809103902084848080601f0160208091040260200160405190810160405280939291908181526020018383808284376000920191909152506104ea92505050565b6001600160a01b031661024961027c565b6001600160a01b03161461025c57600080fd5b506320c13b0b60e01b949350505050565b6000546001600160a01b031681565b600080546040516331a9108f60e11b81526001600160a01b0390911690636352211e906102ad903090600401610b7d565b60206040518083038186803b1580156102c557600080fd5b505afa1580156102d9573d6000803e3d6000fd5b505050506040513d601f19601f820116820180604052508101906102fd919061079c565b905090565b61030a6105e1565b6001600160a01b031661031b61027c565b6001600160a01b03161461034a5760405162461bcd60e51b815260040161034190610b0f565b60405180910390fd5b60005b818110156104145761040c83838381811061036457fe5b90506020028101906103769190610bee565b610384906020810190610779565b84848481811061039057fe5b90506020028101906103a29190610bee565b602001358585858181106103b257fe5b90506020028101906103c49190610bee565b6103d2906040810190610ba7565b8080601f0160208091040260200160405190810160405280939291908181526020018383808284376000920191909152506105e592505050565b60010161034d565b505050565b6000546001600160a01b0316156104425760405162461bcd60e51b815260040161034190610ae2565b600080546001600160a01b0319166001600160a01b0392909216919091179055565b61046c6105e1565b6001600160a01b031661047d61027c565b6001600160a01b0316146104a35760405162461bcd60e51b815260040161034190610b0f565b6104e4848484848080601f0160208091040260200160405190810160405280939291908181526020018383808284376000920191909152506105e592505050565b50505050565b6000806000808451604114156105145750505060208201516040830151606084015160001a610559565b84516040141561054157505050602082015160408301516001600160ff1b0381169060001a60071c610559565b60405162461bcd60e51b815260040161034190610b46565b601b8160ff16101561056957601b015b8060ff16601b148061057e57508060ff16601c145b61058757600080fd5b600186828585604051600081526020016040526040516105aa9493929190610a9c565b6020604051602081039080840390855afa1580156105cc573d6000803e3d6000fd5b5050604051601f190151979650505050505050565b3390565b60006060846001600160a01b031684846040516106029190610a6c565b60006040518083038185875af1925050503d806000811461063f576040519150601f19603f3d011682016040523d82523d6000602084013e610644565b606091505b50915091508181906106695760405162461bcd60e51b81526004016103419190610acf565b50846001600160a01b03167fcaf938de11c367272220bfd1d2baa99ca46665e7bc4d85f00adb51b90fe1fa9f85856040516106a5929190610b86565b60405180910390a25050505050565b60008083601f8401126106c5578182fd5b50813567ffffffffffffffff8111156106dc578182fd5b6020830191508360208285010111156106f457600080fd5b9250929050565b600082601f83011261070b578081fd5b813567ffffffffffffffff80821115610722578283fd5b604051601f8301601f191681016020018281118282101715610742578485fd5b60405282815292508284830160200186101561075d57600080fd5b8260208601602083013760006020848301015250505092915050565b60006020828403121561078a578081fd5b813561079581610c2f565b9392505050565b6000602082840312156107ad578081fd5b815161079581610c2f565b60008060008060008060c087890312156107d0578182fd5b86356107db81610c2f565b955060208701356107eb81610c2f565b945060408701356107fb81610c2f565b935060608701359250608087013567ffffffffffffffff8082111561081e578384fd5b61082a8a838b016106fb565b935060a089013591508082111561083f578283fd5b5061084c89828a016106fb565b9150509295509295509295565b6000806000806080858703121561086e578384fd5b843561087981610c2f565b9350602085013561088981610c2f565b925060408501359150606085013567ffffffffffffffff8111156108ab578182fd5b6108b7878288016106fb565b91505092959194509250565b600080600080606085870312156108d8578384fd5b84356108e381610c2f565b935060208501359250604085013567ffffffffffffffff811115610905578283fd5b610911878288016106b4565b95989497509550505050565b6000806020838503121561092f578182fd5b823567ffffffffffffffff80821115610946578384fd5b81850186601f820112610957578485fd5b8035925081831115610967578485fd5b866020808502830101111561097a578485fd5b60200196919550909350505050565b60008060006040848603121561099d578283fd5b83359250602084013567ffffffffffffffff8111156109ba578283fd5b6109c6868287016106b4565b9497909650939450505050565b600080600080604085870312156109e8578384fd5b843567ffffffffffffffff808211156109ff578586fd5b610a0b888389016106b4565b90965094506020870135915080821115610a23578384fd5b50610911878288016106b4565b60008151808452610a48816020860160208601610c03565b601f01601f19169290920160200192915050565b6000828483379101908152919050565b60008251610a7e818460208701610c03565b9190910192915050565b6001600160a01b0391909116815260200190565b93845260ff9290921660208401526040830152606082015260800190565b6001600160e01b031991909116815260200190565b6000602082526107956020830184610a30565b602080825260139082015272185b1c9958591e481a5b9a5d1a585b1a5e9959606a1b604082015260600190565b60208082526017908201527f63616c6c6572206973206e6f7420746865206f776e6572000000000000000000604082015260600190565b60208082526018908201527f696e76616c69642d7369676e61747572652d666f726d61740000000000000000604082015260600190565b90815260200190565b600083825260406020830152610b9f6040830184610a30565b949350505050565b6000808335601e19843603018112610bbd578283fd5b8084018035925067ffffffffffffffff831115610bd8578384fd5b602001925050368190038213156106f457600080fd5b60008235605e19833603018112610a7e578182fd5b60005b83811015610c1e578181015183820152602001610c06565b838111156104e45750506000910152565b6001600160a01b0381168114610c4457600080fd5b5056fea26469706673582212206bfcfccfb46357050a299db041a83ea882e49fb626280efbde34e76a9059339164736f6c63430006060033",
  "immutableReferences": {},
  "source": "pragma solidity ^0.6.0;\npragma experimental ABIEncoderV2;\n\nimport \"@openzeppelin/contracts/token/ERC721/IERC721Receiver.sol\";\nimport \"@openzeppelin/contracts/token/ERC777/IERC777Recipient.sol\";\nimport \"@iexec/solidity/contracts/ERC1271/IERC1271.sol\";\nimport \"@iexec/solidity/contracts/ERC1654/IERC1654.sol\";\nimport \"@iexec/solidity/contracts/Libs/ECDSA.sol\";\nimport \"./core/CounterfactualTokenEntity.sol\";\n\nstruct Call\n{\n\taddress to;\n\tuint256 value;\n\tbytes   data;\n}\n\ncontract NFWallet is CounterfactualTokenEntity, ECDSA, IERC721Receiver, IERC777Recipient, IERC1271, IERC1654\n{\n\tevent Received(address indexed from, uint256 value);\n\tevent Executed(address indexed to,   uint256 value, bytes data);\n\n\t// ERC721\n\tfunction onERC721Received(address, address, uint256, bytes memory)\n\tpublic override returns (bytes4)\n\t{\n\t\treturn this.onERC721Received.selector;\n\t}\n\n\t// ERC777\n\tfunction tokensReceived(address, address, address, uint256, bytes memory, bytes memory)\n\tpublic override\n\t{\n\t}\n\n\t// Wallet\n\tfunction forward(address to, uint256 value, bytes calldata data)\n\texternal onlyOwner()\n\t{\n\t\t_execute(to, value, data);\n\t}\n\n\tfunction forwardBatch(Call[] calldata calls)\n\texternal onlyOwner()\n\t{\n\t\tfor (uint256 i = 0; i < calls.length; ++i)\n\t\t{\n\t\t\t_execute(calls[i].to, calls[i].value, calls[i].data);\n\t\t}\n\t}\n\n\tfunction _execute(address to, uint256 value, bytes memory data)\n\tinternal\n\t{\n\t\t(bool success, bytes memory returndata) = payable(to).call{value: value}(data);\n\t\trequire(success, string(returndata));\n\t\temit Executed(to, value, data);\n\t}\n\n\t// ERC 1271\n\tfunction isValidSignature(bytes calldata data, bytes calldata signature)\n\texternal view override returns (bytes4 magicValue)\n\t{\n\t\trequire(owner() == recover(keccak256(data), signature));\n\t\treturn IERC1271(0).isValidSignature.selector;\n\t}\n\n\t// ERC 1654\n\tfunction isValidSignature(bytes32 hash, bytes calldata signature)\n\texternal view override returns (bytes4 magicValue)\n\t{\n\t\trequire(owner() == recover(hash, signature));\n\t\treturn IERC1654(0).isValidSignature.selector;\n\t}\n}\n",
  "sourcePath": "/home/amxx/Work/Projects/NFWallets/solidity/contracts/NFWallet.sol",
  "compiler": {
    "name": "solc",
    "version": "0.6.6+commit.6c089d02.Emscripten.clang"
  },
  "schemaVersion": "3.1.0",
  "updatedAt": "2020-05-06T08:21:39.219Z",
  "devdoc": {
    "methods": {}
  },
  "userdoc": {
    "methods": {}
  }
}