{
  "contractName": "NFWallet",
  "abi": [
    {
      "anonymous": false,
      "inputs": [
        {
          "indexed": true,
          "internalType": "address",
          "name": "to",
          "type": "address"
        },
        {
          "indexed": false,
          "internalType": "uint256",
          "name": "value",
          "type": "uint256"
        },
        {
          "indexed": false,
          "internalType": "bytes",
          "name": "data",
          "type": "bytes"
        }
      ],
      "name": "Executed",
      "type": "event"
    },
    {
      "anonymous": false,
      "inputs": [
        {
          "indexed": true,
          "internalType": "address",
          "name": "from",
          "type": "address"
        },
        {
          "indexed": false,
          "internalType": "uint256",
          "name": "value",
          "type": "uint256"
        }
      ],
      "name": "Received",
      "type": "event"
    },
    {
      "inputs": [],
      "name": "getTrustedForwarder",
      "outputs": [
        {
          "internalType": "address",
          "name": "",
          "type": "address"
        }
      ],
      "stateMutability": "view",
      "type": "function"
    },
    {
      "inputs": [],
      "name": "owner",
      "outputs": [
        {
          "internalType": "address",
          "name": "",
          "type": "address"
        }
      ],
      "stateMutability": "view",
      "type": "function"
    },
    {
      "inputs": [],
      "name": "registry",
      "outputs": [
        {
          "internalType": "contract IERC721",
          "name": "",
          "type": "address"
        }
      ],
      "stateMutability": "view",
      "type": "function"
    },
    {
      "inputs": [
        {
          "internalType": "address",
          "name": "_registry",
          "type": "address"
        },
        {
          "internalType": "address",
          "name": "_trustedForwarder",
          "type": "address"
        }
      ],
      "name": "initialize",
      "outputs": [],
      "stateMutability": "nonpayable",
      "type": "function"
    },
    {
      "inputs": [
        {
          "internalType": "address",
          "name": "_registry",
          "type": "address"
        }
      ],
      "name": "initialize",
      "outputs": [],
      "stateMutability": "nonpayable",
      "type": "function"
    },
    {
      "inputs": [
        {
          "internalType": "address",
          "name": "to",
          "type": "address"
        },
        {
          "internalType": "uint256",
          "name": "value",
          "type": "uint256"
        },
        {
          "internalType": "bytes",
          "name": "data",
          "type": "bytes"
        }
      ],
      "name": "forward",
      "outputs": [],
      "stateMutability": "nonpayable",
      "type": "function"
    },
    {
      "inputs": [
        {
          "components": [
            {
              "internalType": "address",
              "name": "to",
              "type": "address"
            },
            {
              "internalType": "uint256",
              "name": "value",
              "type": "uint256"
            },
            {
              "internalType": "bytes",
              "name": "data",
              "type": "bytes"
            }
          ],
          "internalType": "struct Call[]",
          "name": "calls",
          "type": "tuple[]"
        }
      ],
      "name": "forwardBatch",
      "outputs": [],
      "stateMutability": "nonpayable",
      "type": "function"
    },
    {
      "inputs": [
        {
          "internalType": "address",
          "name": "",
          "type": "address"
        },
        {
          "internalType": "address",
          "name": "",
          "type": "address"
        },
        {
          "internalType": "uint256",
          "name": "",
          "type": "uint256"
        },
        {
          "internalType": "bytes",
          "name": "",
          "type": "bytes"
        }
      ],
      "name": "onERC721Received",
      "outputs": [
        {
          "internalType": "bytes4",
          "name": "",
          "type": "bytes4"
        }
      ],
      "stateMutability": "nonpayable",
      "type": "function"
    },
    {
      "inputs": [
        {
          "internalType": "address",
          "name": "",
          "type": "address"
        },
        {
          "internalType": "address",
          "name": "",
          "type": "address"
        },
        {
          "internalType": "address",
          "name": "",
          "type": "address"
        },
        {
          "internalType": "uint256",
          "name": "",
          "type": "uint256"
        },
        {
          "internalType": "bytes",
          "name": "",
          "type": "bytes"
        },
        {
          "internalType": "bytes",
          "name": "",
          "type": "bytes"
        }
      ],
      "name": "tokensReceived",
      "outputs": [],
      "stateMutability": "nonpayable",
      "type": "function"
    },
    {
      "inputs": [
        {
          "internalType": "bytes32",
          "name": "data",
          "type": "bytes32"
        },
        {
          "internalType": "bytes",
          "name": "signature",
          "type": "bytes"
        }
      ],
      "name": "isValidSignature",
      "outputs": [
        {
          "internalType": "bytes4",
          "name": "magicValue",
          "type": "bytes4"
        }
      ],
      "stateMutability": "view",
      "type": "function"
    },
    {
      "inputs": [
        {
          "internalType": "bytes",
          "name": "data",
          "type": "bytes"
        },
        {
          "internalType": "bytes",
          "name": "signature",
          "type": "bytes"
        }
      ],
      "name": "isValidSignature",
      "outputs": [
        {
          "internalType": "bytes4",
          "name": "magicValue",
          "type": "bytes4"
        }
      ],
      "stateMutability": "view",
      "type": "function"
    }
  ],
  "bytecode": "0x6080604052611082806100136000396000f3fe608060405234801561001057600080fd5b50600436106100a85760003560e01c80637b103999116100715780637b103999146101245780638da5cb5b14610139578063aef0562914610141578063c4d66de814610154578063ce1b815f14610167578063d7f31eb91461016f576100a8565b806223de29146100ad578063150b7a02146100c25780631626ba7e146100eb57806320c13b0b146100fe578063485cc95514610111575b600080fd5b6100c06100bb366004610afc565b610182565b005b6100d56100d0366004610b9d565b61018a565b6040516100e29190610e73565b60405180910390f35b6100d56100f9366004610ccd565b61019b565b6100d561010c366004610d3f565b6102b7565b6100c061011f366004610ac4565b6103e9565b61012c610415565b6040516100e29190610e1e565b61012c610424565b6100c061014f366004610c61565b6104ab565b6100c0610162366004610a8c565b6105c2565b61012c61060d565b6100c061017d366004610c07565b61061c565b505050505050565b630a85bd0160e11b5b949350505050565b6000806101a6610424565b90506101ba816001600160a01b03166106a2565b1561024757604051630b135d3f60e11b81526001600160a01b03821690631626ba7e906101ef90889088908890600401610e32565b60206040518083038186803b15801561020757600080fd5b505afa15801561021b573d6000803e3d6000fd5b505050506040513d601f19601f8201168201806040525081019061023f9190610d17565b9150506102b0565b6102878585858080601f0160208091040260200160405190810160405280939291908181526020018383808284376000920191909152506106db92505050565b6001600160a01b0316816001600160a01b0316146102a457600080fd5b50630b135d3f60e11b90505b9392505050565b6000806102c2610424565b90506102d6816001600160a01b03166106a2565b15610365576040516320c13b0b60e01b81526001600160a01b038216906320c13b0b9061030d908990899089908990600401610e88565b60206040518083038186803b15801561032557600080fd5b505afa158015610339573d6000803e3d6000fd5b505050506040513d601f19601f8201168201806040525081019061035d9190610d17565b915050610193565b6103bc8686604051610378929190610df2565b604051809103902085858080601f0160208091040260200160405190810160405280939291908181526020018383808284376000920191909152506106db92505050565b6001600160a01b0316816001600160a01b0316146103d957600080fd5b506320c13b0b60e01b9050610193565b6103f2826105c2565b600180546001600160a01b0319166001600160a01b039290921691909117905550565b6000546001600160a01b031681565b600080546040516331a9108f60e11b81526001600160a01b0390911690636352211e90610455903090600401610f8a565b60206040518083038186803b15801561046d57600080fd5b505afa158015610481573d6000803e3d6000fd5b505050506040513d601f19601f820116820180604052508101906104a59190610aa8565b90505b90565b6104b36107d2565b6001600160a01b03166104c4610424565b6001600160a01b0316146104f35760405162461bcd60e51b81526004016104ea90610f1c565b60405180910390fd5b60005b818110156105bd576105b583838381811061050d57fe5b905060200281019061051f9190610ff3565b61052d906020810190610a8c565b84848481811061053957fe5b905060200281019061054b9190610ff3565b6020013585858581811061055b57fe5b905060200281019061056d9190610ff3565b61057b906040810190610fac565b8080601f0160208091040260200160405190810160405280939291908181526020018383808284376000920191909152506107dc92505050565b6001016104f6565b505050565b6000546001600160a01b0316156105eb5760405162461bcd60e51b81526004016104ea90610eef565b600080546001600160a01b0319166001600160a01b0392909216919091179055565b6001546001600160a01b031690565b6106246107d2565b6001600160a01b0316610635610424565b6001600160a01b03161461065b5760405162461bcd60e51b81526004016104ea90610f1c565b61069c848484848080601f0160208091040260200160405190810160405280939291908181526020018383808284376000920191909152506107dc92505050565b50505050565b6000813f7fc5d2460186f7233c927e7db2dcc703c0e500b653ca82273b7bfad8045d85a470818114801590610193575050151592915050565b6000806000808451604114156107055750505060208201516040830151606084015160001a61074a565b84516040141561073257505050602082015160408301516001600160ff1b0381169060001a60071c61074a565b60405162461bcd60e51b81526004016104ea90610f53565b601b8160ff16101561075a57601b015b8060ff16601b148061076f57508060ff16601c145b61077857600080fd5b6001868285856040516000815260200160405260405161079b9493929190610e55565b6020604051602081039080840390855afa1580156107bd573d6000803e3d6000fd5b5050604051601f190151979650505050505050565b60006104a56108ab565b60006060846001600160a01b031684846040516107f99190610e02565b60006040518083038185875af1925050503d8060008114610836576040519150601f19603f3d011682016040523d82523d6000602084013e61083b565b606091505b50915091508181906108605760405162461bcd60e51b81526004016104ea9190610edc565b50846001600160a01b03167fcaf938de11c367272220bfd1d2baa99ca46665e7bc4d85f00adb51b90fe1fa9f858560405161089c929190610f93565b60405180910390a25050505050565b6000601836108015906108d657506108c161060d565b6001600160a01b0316336001600160a01b0316145b15610928576109216000368080601f016020809104026020016040519081016040528093929190818152602001838380828437600092019190915250506013193601915061092d9050565b90506104a8565b503390565b600081601401835110156109535761095361094e6004855185601401610965565b6109bf565b5001601401516001600160a01b031690565b6060632800659560e01b84848460405160240161098493929190610eba565b60408051601f198184030181529190526020810180516001600160e01b03166001600160e01b03199093169290921790915290509392505050565b805160208201fd5b60008083601f8401126109d8578182fd5b50813567ffffffffffffffff8111156109ef578182fd5b602083019150836020828501011115610a0757600080fd5b9250929050565b600082601f830112610a1e578081fd5b813567ffffffffffffffff80821115610a35578283fd5b604051601f8301601f191681016020018281118282101715610a55578485fd5b604052828152925082848301602001861015610a7057600080fd5b8260208601602083013760006020848301015250505092915050565b600060208284031215610a9d578081fd5b81356102b081611034565b600060208284031215610ab9578081fd5b81516102b081611034565b60008060408385031215610ad6578081fd5b8235610ae181611034565b91506020830135610af181611034565b809150509250929050565b60008060008060008060c08789031215610b14578182fd5b8635610b1f81611034565b95506020870135610b2f81611034565b94506040870135610b3f81611034565b935060608701359250608087013567ffffffffffffffff80821115610b62578384fd5b610b6e8a838b01610a0e565b935060a0890135915080821115610b83578283fd5b50610b9089828a01610a0e565b9150509295509295509295565b60008060008060808587031215610bb2578384fd5b8435610bbd81611034565b93506020850135610bcd81611034565b925060408501359150606085013567ffffffffffffffff811115610bef578182fd5b610bfb87828801610a0e565b91505092959194509250565b60008060008060608587031215610c1c578384fd5b8435610c2781611034565b935060208501359250604085013567ffffffffffffffff811115610c49578283fd5b610c55878288016109c7565b95989497509550505050565b60008060208385031215610c73578182fd5b823567ffffffffffffffff80821115610c8a578384fd5b81850186601f820112610c9b578485fd5b8035925081831115610cab578485fd5b8660208085028301011115610cbe578485fd5b60200196919550909350505050565b600080600060408486031215610ce1578283fd5b83359250602084013567ffffffffffffffff811115610cfe578283fd5b610d0a868287016109c7565b9497909650939450505050565b600060208284031215610d28578081fd5b81516001600160e01b0319811681146102b0578182fd5b60008060008060408587031215610d54578384fd5b843567ffffffffffffffff80821115610d6b578586fd5b610d77888389016109c7565b90965094506020870135915080821115610d8f578384fd5b50610c55878288016109c7565b60008284528282602086013780602084860101526020601f19601f85011685010190509392505050565b60008151808452610dde816020860160208601611008565b601f01601f19169290920160200192915050565b6000828483379101908152919050565b60008251610e14818460208701611008565b9190910192915050565b6001600160a01b0391909116815260200190565b600084825260406020830152610e4c604083018486610d9c565b95945050505050565b93845260ff9290921660208401526040830152606082015260800190565b6001600160e01b031991909116815260200190565b600060408252610e9c604083018688610d9c565b8281036020840152610eaf818587610d9c565b979650505050505050565b6060810160088510610ec857fe5b938152602081019290925260409091015290565b6000602082526102b06020830184610dc6565b602080825260139082015272185b1c9958591e481a5b9a5d1a585b1a5e9959606a1b604082015260600190565b60208082526017908201527f63616c6c6572206973206e6f7420746865206f776e6572000000000000000000604082015260600190565b60208082526018908201527f696e76616c69642d7369676e61747572652d666f726d61740000000000000000604082015260600190565b90815260200190565b6000838252604060208301526101936040830184610dc6565b6000808335601e19843603018112610fc2578283fd5b8084018035925067ffffffffffffffff831115610fdd578384fd5b60200192505036819003821315610a0757600080fd5b60008235605e19833603018112610e14578182fd5b60005b8381101561102357818101518382015260200161100b565b8381111561069c5750506000910152565b6001600160a01b038116811461104957600080fd5b5056fea26469706673582212207320c0a8fc523144327e51f977ef0717bffdfad5e43bedbc31302f577572397864736f6c63430006060033",
  "immutableReferences": {},
  "source": "pragma solidity ^0.6.0;\npragma experimental ABIEncoderV2;\n\nimport \"@openzeppelin/contracts/token/ERC721/IERC721Receiver.sol\";\nimport \"@openzeppelin/contracts/token/ERC777/IERC777Recipient.sol\";\nimport \"@openzeppelin/contracts/utils/Address.sol\";\nimport \"@opengsn/gsn/contracts/BaseRelayRecipient.sol\";\nimport \"@iexec/solidity/contracts/ERC1271/IERC1271.sol\";\nimport \"@iexec/solidity/contracts/ERC1654/IERC1654.sol\";\nimport \"@iexec/solidity/contracts/Libs/ECDSA.sol\";\nimport \"./core/CounterfactualTokenEntity.sol\";\n\nstruct Call\n{\n\taddress to;\n\tuint256 value;\n\tbytes   data;\n}\n\ncontract NFWallet is\n\tCounterfactualTokenEntity,\n\tBaseRelayRecipient,\n\tECDSA,\n\tIERC721Receiver,\n\tIERC777Recipient,\n\tIERC1271,\n\tIERC1654\n{\n\tusing Address for address;\n\n\tevent Received(address indexed from, uint256 value);\n\tevent Executed(address indexed to,   uint256 value, bytes data);\n\n\tfunction _msgSender()\n\tinternal view override(Context, BaseRelayRecipient) returns (address payable sender)\n\t{\n\t\treturn BaseRelayRecipient._msgSender();\n\t}\n\n\tfunction initialize(address _registry, address _trustedForwarder)\n\tpublic\n\t{\n\t\tCounterfactualTokenEntity.initialize(_registry);\n\t\ttrustedForwarder = _trustedForwarder;\n\t}\n\n\t// Wallet\n\tfunction forward(address to, uint256 value, bytes calldata data)\n\texternal onlyOwner()\n\t{\n\t\t_execute(to, value, data);\n\t}\n\n\tfunction forwardBatch(Call[] calldata calls)\n\texternal onlyOwner()\n\t{\n\t\tfor (uint256 i = 0; i < calls.length; ++i)\n\t\t{\n\t\t\t_execute(calls[i].to, calls[i].value, calls[i].data);\n\t\t}\n\t}\n\n\tfunction _execute(address to, uint256 value, bytes memory data)\n\tinternal\n\t{\n\t\t(bool success, bytes memory returndata) = payable(to).call{value: value}(data);\n\t\trequire(success, string(returndata));\n\t\temit Executed(to, value, data);\n\t}\n\n\t// ERC721\n\tfunction onERC721Received(address, address, uint256, bytes memory)\n\tpublic override returns (bytes4)\n\t{\n\t\t// TODO: emit event ?\n\t\treturn this.onERC721Received.selector;\n\t}\n\n\t// ERC777\n\tfunction tokensReceived(address, address, address, uint256, bytes memory, bytes memory)\n\tpublic override\n\t{\n\t\t// TODO: emit event ?\n\t}\n\n\t// ERC 1271\n\tfunction isValidSignature(bytes calldata data, bytes calldata signature)\n\texternal view override returns (bytes4 magicValue)\n\t{\n\t\taddress signer = owner();\n\t\tif (signer.isContract())\n\t\t{\n\t\t\treturn IERC1271(signer).isValidSignature(data, signature);\n\t\t}\n\t\telse\n\t\t{\n\t\t\trequire(signer == recover(keccak256(data), signature));\n\t\t\treturn IERC1271(0).isValidSignature.selector;\n\t\t}\n\t}\n\n\t// ERC 1654\n\tfunction isValidSignature(bytes32 data, bytes calldata signature)\n\texternal view override returns (bytes4 magicValue)\n\t{\n\t\taddress signer = owner();\n\t\tif (signer.isContract())\n\t\t{\n\t\t\treturn IERC1654(signer).isValidSignature(data, signature);\n\t\t}\n\t\telse\n\t\t{\n\t\t\trequire(signer == recover(data, signature));\n\t\t\treturn IERC1654(0).isValidSignature.selector;\n\t\t}\n\t}\n}\n",
  "sourcePath": "/home/amxx/Work/Projects/NFWallets/solidity/contracts/NFWallet.sol",
  "compiler": {
    "name": "solc",
    "version": "0.6.6+commit.6c089d02.Emscripten.clang"
  },
  "schemaVersion": "3.1.0",
  "updatedAt": "2020-05-12T13:38:00.504Z",
  "devdoc": {
    "methods": {}
  },
  "userdoc": {
    "methods": {}
  }
}