{
  "contractName": "NFWalletFactory",
  "abi": [
    {
      "inputs": [],
      "stateMutability": "nonpayable",
      "type": "constructor"
    },
    {
      "anonymous": false,
      "inputs": [
        {
          "indexed": true,
          "internalType": "address",
          "name": "owner",
          "type": "address"
        },
        {
          "indexed": true,
          "internalType": "address",
          "name": "approved",
          "type": "address"
        },
        {
          "indexed": true,
          "internalType": "uint256",
          "name": "tokenId",
          "type": "uint256"
        }
      ],
      "name": "Approval",
      "type": "event"
    },
    {
      "anonymous": false,
      "inputs": [
        {
          "indexed": true,
          "internalType": "address",
          "name": "owner",
          "type": "address"
        },
        {
          "indexed": true,
          "internalType": "address",
          "name": "operator",
          "type": "address"
        },
        {
          "indexed": false,
          "internalType": "bool",
          "name": "approved",
          "type": "bool"
        }
      ],
      "name": "ApprovalForAll",
      "type": "event"
    },
    {
      "anonymous": false,
      "inputs": [
        {
          "indexed": true,
          "internalType": "address",
          "name": "previousOwner",
          "type": "address"
        },
        {
          "indexed": true,
          "internalType": "address",
          "name": "newOwner",
          "type": "address"
        }
      ],
      "name": "OwnershipTransferred",
      "type": "event"
    },
    {
      "anonymous": false,
      "inputs": [
        {
          "indexed": true,
          "internalType": "address",
          "name": "from",
          "type": "address"
        },
        {
          "indexed": true,
          "internalType": "address",
          "name": "to",
          "type": "address"
        },
        {
          "indexed": true,
          "internalType": "uint256",
          "name": "tokenId",
          "type": "uint256"
        }
      ],
      "name": "Transfer",
      "type": "event"
    },
    {
      "inputs": [
        {
          "internalType": "address",
          "name": "to",
          "type": "address"
        },
        {
          "internalType": "uint256",
          "name": "tokenId",
          "type": "uint256"
        }
      ],
      "name": "approve",
      "outputs": [],
      "stateMutability": "nonpayable",
      "type": "function"
    },
    {
      "inputs": [
        {
          "internalType": "address",
          "name": "owner",
          "type": "address"
        }
      ],
      "name": "balanceOf",
      "outputs": [
        {
          "internalType": "uint256",
          "name": "",
          "type": "uint256"
        }
      ],
      "stateMutability": "view",
      "type": "function",
      "constant": true
    },
    {
      "inputs": [],
      "name": "baseURI",
      "outputs": [
        {
          "internalType": "string",
          "name": "",
          "type": "string"
        }
      ],
      "stateMutability": "view",
      "type": "function",
      "constant": true
    },
    {
      "inputs": [
        {
          "internalType": "uint256",
          "name": "tokenId",
          "type": "uint256"
        }
      ],
      "name": "getApproved",
      "outputs": [
        {
          "internalType": "address",
          "name": "",
          "type": "address"
        }
      ],
      "stateMutability": "view",
      "type": "function",
      "constant": true
    },
    {
      "inputs": [],
      "name": "getTrustedForwarder",
      "outputs": [
        {
          "internalType": "address",
          "name": "",
          "type": "address"
        }
      ],
      "stateMutability": "view",
      "type": "function",
      "constant": true
    },
    {
      "inputs": [
        {
          "internalType": "address",
          "name": "owner",
          "type": "address"
        },
        {
          "internalType": "address",
          "name": "operator",
          "type": "address"
        }
      ],
      "name": "isApprovedForAll",
      "outputs": [
        {
          "internalType": "bool",
          "name": "",
          "type": "bool"
        }
      ],
      "stateMutability": "view",
      "type": "function",
      "constant": true
    },
    {
      "inputs": [],
      "name": "master",
      "outputs": [
        {
          "internalType": "address",
          "name": "",
          "type": "address"
        }
      ],
      "stateMutability": "view",
      "type": "function",
      "constant": true
    },
    {
      "inputs": [],
      "name": "name",
      "outputs": [
        {
          "internalType": "string",
          "name": "",
          "type": "string"
        }
      ],
      "stateMutability": "view",
      "type": "function",
      "constant": true
    },
    {
      "inputs": [],
      "name": "owner",
      "outputs": [
        {
          "internalType": "address",
          "name": "",
          "type": "address"
        }
      ],
      "stateMutability": "view",
      "type": "function",
      "constant": true
    },
    {
      "inputs": [
        {
          "internalType": "uint256",
          "name": "tokenId",
          "type": "uint256"
        }
      ],
      "name": "ownerOf",
      "outputs": [
        {
          "internalType": "address",
          "name": "",
          "type": "address"
        }
      ],
      "stateMutability": "view",
      "type": "function",
      "constant": true
    },
    {
      "inputs": [],
      "name": "proxyCode",
      "outputs": [
        {
          "internalType": "bytes",
          "name": "",
          "type": "bytes"
        }
      ],
      "stateMutability": "view",
      "type": "function",
      "constant": true
    },
    {
      "inputs": [],
      "name": "proxyCodeHash",
      "outputs": [
        {
          "internalType": "bytes32",
          "name": "",
          "type": "bytes32"
        }
      ],
      "stateMutability": "view",
      "type": "function",
      "constant": true
    },
    {
      "inputs": [],
      "name": "renounceOwnership",
      "outputs": [],
      "stateMutability": "nonpayable",
      "type": "function"
    },
    {
      "inputs": [
        {
          "internalType": "address",
          "name": "from",
          "type": "address"
        },
        {
          "internalType": "address",
          "name": "to",
          "type": "address"
        },
        {
          "internalType": "uint256",
          "name": "tokenId",
          "type": "uint256"
        }
      ],
      "name": "safeTransferFrom",
      "outputs": [],
      "stateMutability": "nonpayable",
      "type": "function"
    },
    {
      "inputs": [
        {
          "internalType": "address",
          "name": "from",
          "type": "address"
        },
        {
          "internalType": "address",
          "name": "to",
          "type": "address"
        },
        {
          "internalType": "uint256",
          "name": "tokenId",
          "type": "uint256"
        },
        {
          "internalType": "bytes",
          "name": "_data",
          "type": "bytes"
        }
      ],
      "name": "safeTransferFrom",
      "outputs": [],
      "stateMutability": "nonpayable",
      "type": "function"
    },
    {
      "inputs": [
        {
          "internalType": "address",
          "name": "operator",
          "type": "address"
        },
        {
          "internalType": "bool",
          "name": "approved",
          "type": "bool"
        }
      ],
      "name": "setApprovalForAll",
      "outputs": [],
      "stateMutability": "nonpayable",
      "type": "function"
    },
    {
      "inputs": [
        {
          "internalType": "bytes4",
          "name": "interfaceId",
          "type": "bytes4"
        }
      ],
      "name": "supportsInterface",
      "outputs": [
        {
          "internalType": "bool",
          "name": "",
          "type": "bool"
        }
      ],
      "stateMutability": "view",
      "type": "function",
      "constant": true
    },
    {
      "inputs": [],
      "name": "symbol",
      "outputs": [
        {
          "internalType": "string",
          "name": "",
          "type": "string"
        }
      ],
      "stateMutability": "view",
      "type": "function",
      "constant": true
    },
    {
      "inputs": [
        {
          "internalType": "uint256",
          "name": "index",
          "type": "uint256"
        }
      ],
      "name": "tokenByIndex",
      "outputs": [
        {
          "internalType": "uint256",
          "name": "",
          "type": "uint256"
        }
      ],
      "stateMutability": "view",
      "type": "function",
      "constant": true
    },
    {
      "inputs": [
        {
          "internalType": "address",
          "name": "owner",
          "type": "address"
        },
        {
          "internalType": "uint256",
          "name": "index",
          "type": "uint256"
        }
      ],
      "name": "tokenOfOwnerByIndex",
      "outputs": [
        {
          "internalType": "uint256",
          "name": "",
          "type": "uint256"
        }
      ],
      "stateMutability": "view",
      "type": "function",
      "constant": true
    },
    {
      "inputs": [
        {
          "internalType": "uint256",
          "name": "tokenId",
          "type": "uint256"
        }
      ],
      "name": "tokenURI",
      "outputs": [
        {
          "internalType": "string",
          "name": "",
          "type": "string"
        }
      ],
      "stateMutability": "view",
      "type": "function",
      "constant": true
    },
    {
      "inputs": [],
      "name": "totalSupply",
      "outputs": [
        {
          "internalType": "uint256",
          "name": "",
          "type": "uint256"
        }
      ],
      "stateMutability": "view",
      "type": "function",
      "constant": true
    },
    {
      "inputs": [
        {
          "internalType": "address",
          "name": "from",
          "type": "address"
        },
        {
          "internalType": "address",
          "name": "to",
          "type": "address"
        },
        {
          "internalType": "uint256",
          "name": "tokenId",
          "type": "uint256"
        }
      ],
      "name": "transferFrom",
      "outputs": [],
      "stateMutability": "nonpayable",
      "type": "function"
    },
    {
      "inputs": [
        {
          "internalType": "address",
          "name": "newOwner",
          "type": "address"
        }
      ],
      "name": "transferOwnership",
      "outputs": [],
      "stateMutability": "nonpayable",
      "type": "function"
    },
    {
      "inputs": [
        {
          "internalType": "address",
          "name": "_trustedForwarder",
          "type": "address"
        }
      ],
      "name": "initialize",
      "outputs": [],
      "stateMutability": "nonpayable",
      "type": "function"
    },
    {
      "inputs": [
        {
          "internalType": "address",
          "name": "_owner",
          "type": "address"
        },
        {
          "internalType": "bytes32",
          "name": "_salt",
          "type": "bytes32"
        }
      ],
      "name": "createWallet",
      "outputs": [
        {
          "internalType": "address",
          "name": "",
          "type": "address"
        }
      ],
      "stateMutability": "payable",
      "type": "function",
      "payable": true
    },
    {
      "inputs": [
        {
          "internalType": "address",
          "name": "_owner",
          "type": "address"
        },
        {
          "internalType": "bytes32",
          "name": "_salt",
          "type": "bytes32"
        }
      ],
      "name": "predictWallet",
      "outputs": [
        {
          "internalType": "address",
          "name": "",
          "type": "address"
        }
      ],
      "stateMutability": "view",
      "type": "function",
      "constant": true
    },
    {
      "inputs": [
        {
          "internalType": "address",
          "name": "_ens",
          "type": "address"
        },
        {
          "internalType": "string",
          "name": "_name",
          "type": "string"
        }
      ],
      "name": "setName",
      "outputs": [],
      "stateMutability": "nonpayable",
      "type": "function"
    }
  ],
  "bytecode": "0x60806040523480156200001157600080fd5b50604051620000209062000472565b604051809103906000f0801580156200003d573d6000803e3d6000fd5b506040805180820182526011815270139bdb919d5b99da589b1955d85b1b195d607a1b602080830191909152825180840190935260038352624e465760e81b908301529081816200009e6301ffc9a760e01b6001600160e01b036200025316565b8151620000b390600690602085019062000480565b508051620000c990600790602084019062000480565b50620000e56380ac58cd60e01b6001600160e01b036200025316565b62000100635b5e139f60e01b6001600160e01b036200025316565b6200011b63780e9d6360e01b6001600160e01b036200025316565b5060009050620001336001600160e01b03620002d816565b600a80546001600160a01b0319166001600160a01b038316908117909155604051919250906000907f8be0079c531659141344cd1fd0a4f28419497f9722a3daafe3b4186f6b6457e0908290a350600b80546001600160a01b0319166001600160a01b038516179055604051620001ad6020820162000505565b601f1982820381018352601f909101166040528051620001d791600c916020919091019062000480565b50600c6040518082805460018160011615610100020316600290048015620002395780601f106200021657610100808354040283529182019162000239565b820191906000526020600020905b81548152906001019060200180831162000224575b5050604051908190039020600d5550620005309350505050565b6001600160e01b03198082161415620002b3576040805162461bcd60e51b815260206004820152601c60248201527f4552433136353a20696e76616c696420696e7465726661636520696400000000604482015290519081900360640190fd5b6001600160e01b0319166000908152602081905260409020805460ff19166001179055565b6000620002ef620002f560201b62001dc41760201c565b90505b90565b6000601836108015906200032c5750620003176001600160e01b036200039216565b6001600160a01b0316336001600160a01b0316145b156200038d57620003856000368080601f016020809104026020016040519081016040528093929190818152602001838380828437600092019190915250503660131901915050620003a1602090811b6200248f17901c565b9050620002f2565b503390565b600e546001600160a01b031690565b60008160140183511015620003e257620003e2620003d16004855185601401620003f460201b6200270b1760201c565b6200046a60201b620027801760201c565b5001601401516001600160a01b031690565b6060632800659560e01b848484604051602401808460078111156200041557fe5b60ff1681526020018381526020018281526020019350505050604051602081830303815290604052906001600160e01b0319166020820180516001600160e01b03838183161783525050505090509392505050565b805160208201fd5b6110958062002f6b83390190565b828054600181600116156101000203166002900490600052602060002090601f016020900481019282601f10620004c357805160ff1916838001178555620004f3565b82800160010185558215620004f3579182015b82811115620004f3578251825591602001919060010190620004d6565b506200050192915062000513565b5090565b6103fd806200400083390190565b620002f291905b808211156200050157600081556001016200051a565b612a2b80620005406000396000f3fe6080604052600436106101b75760003560e01c806370a08231116100ec578063c4d66de81161008a578063e985e9c511610064578063e985e9c514610757578063ee97f7f314610792578063eee39111146107a7578063f2fde38b146107bc576101b7565b8063c4d66de8146106e5578063c87b56dd14610718578063ce1b815f14610742576101b7565b806395d89b41116100c657806395d89b4114610596578063a22cb465146105ab578063b20ca818146105e6578063b88d4fde14610612576101b7565b806370a0823114610539578063715018a61461056c5780638da5cb5b14610581576101b7565b80632f745c59116101595780634f6ccce7116101335780634f6ccce7146104bb5780636352211e146104e55780636c0360eb1461050f5780636fa59bbc14610524576101b7565b80632f745c59146103b25780633121db1c146103eb57806342842e0e14610478576101b7565b8063095ea7b311610195578063095ea7b3146102d4578063136fecbd1461030f57806318160ddd1461034857806323b872dd1461036f576101b7565b806301ffc9a7146101bc57806306fdde0314610204578063081812fc1461028e575b600080fd5b3480156101c857600080fd5b506101f0600480360360208110156101df57600080fd5b50356001600160e01b0319166107ef565b604080519115158252519081900360200190f35b34801561021057600080fd5b50610219610812565b6040805160208082528351818301528351919283929083019185019080838360005b8381101561025357818101518382015260200161023b565b50505050905090810190601f1680156102805780820380516001836020036101000a031916815260200191505b509250505060405180910390f35b34801561029a57600080fd5b506102b8600480360360208110156102b157600080fd5b50356108a9565b604080516001600160a01b039092168252519081900360200190f35b3480156102e057600080fd5b5061030d600480360360408110156102f757600080fd5b506001600160a01b03813516906020013561090b565b005b34801561031b57600080fd5b506102b86004803603604081101561033257600080fd5b506001600160a01b0381351690602001356109e6565b34801561035457600080fd5b5061035d610a03565b60408051918252519081900360200190f35b34801561037b57600080fd5b5061030d6004803603606081101561039257600080fd5b506001600160a01b03813581169160208101359091169060400135610a14565b3480156103be57600080fd5b5061035d600480360360408110156103d557600080fd5b506001600160a01b038135169060200135610a6b565b3480156103f757600080fd5b5061030d6004803603604081101561040e57600080fd5b6001600160a01b03823516919081019060408101602082013564010000000081111561043957600080fd5b82018360208201111561044b57600080fd5b8035906020019184600183028401116401000000008311171561046d57600080fd5b509092509050610a93565b34801561048457600080fd5b5061030d6004803603606081101561049b57600080fd5b506001600160a01b03813581169160208101359091169060400135610b2b565b3480156104c757600080fd5b5061035d600480360360208110156104de57600080fd5b5035610b46565b3480156104f157600080fd5b506102b86004803603602081101561050857600080fd5b5035610b62565b34801561051b57600080fd5b50610219610b90565b34801561053057600080fd5b50610219610bf1565b34801561054557600080fd5b5061035d6004803603602081101561055c57600080fd5b50356001600160a01b0316610c7f565b34801561057857600080fd5b5061030d610ce7565b34801561058d57600080fd5b506102b8610d89565b3480156105a257600080fd5b50610219610d98565b3480156105b757600080fd5b5061030d600480360360408110156105ce57600080fd5b506001600160a01b0381351690602001351515610df9565b6102b8600480360360408110156105fc57600080fd5b506001600160a01b038135169060200135610efe565b34801561061e57600080fd5b5061030d6004803603608081101561063557600080fd5b6001600160a01b0382358116926020810135909116916040820135919081019060808101606082013564010000000081111561067057600080fd5b82018360208201111561068257600080fd5b803590602001918460018302840111640100000000831117156106a457600080fd5b91908080601f016020809104026020016040519081016040528093929190818152602001838380828437600092019190915250929550611008945050505050565b3480156106f157600080fd5b5061030d6004803603602081101561070857600080fd5b50356001600160a01b0316611066565b34801561072457600080fd5b506102196004803603602081101561073b57600080fd5b5035611134565b34801561074e57600080fd5b506102b86113db565b34801561076357600080fd5b506101f06004803603604081101561077a57600080fd5b506001600160a01b03813581169160200135166113ea565b34801561079e57600080fd5b506102b8611418565b3480156107b357600080fd5b5061035d611427565b3480156107c857600080fd5b5061030d600480360360208110156107df57600080fd5b50356001600160a01b031661142d565b6001600160e01b0319811660009081526020819052604090205460ff165b919050565b60068054604080516020601f600260001961010060018816150201909516949094049384018190048102820181019092528281526060939092909183018282801561089e5780601f106108735761010080835404028352916020019161089e565b820191906000526020600020905b81548152906001019060200180831161088157829003601f168201915b505050505090505b90565b60006108b482611526565b6108ef5760405162461bcd60e51b815260040180806020018281038252602c815260200180612900602c913960400191505060405180910390fd5b506000908152600460205260409020546001600160a01b031690565b600061091682610b62565b9050806001600160a01b0316836001600160a01b031614156109695760405162461bcd60e51b81526004018080602001828103825260218152602001806129a46021913960400191505060405180910390fd5b806001600160a01b031661097b611539565b6001600160a01b0316148061099c575061099c81610997611539565b6113ea565b6109d75760405162461bcd60e51b81526004018080602001828103825260388152602001806128536038913960400191505060405180910390fd5b6109e18383611543565b505050565b60006109fa836109f5846115b1565b611606565b90505b92915050565b6000610a0f60026116b0565b905090565b610a25610a1f611539565b826116bb565b610a605760405162461bcd60e51b81526004018080602001828103825260318152602001806129c56031913960400191505060405180910390fd5b6109e183838361175f565b6001600160a01b03821660009081526001602052604081206109fa908363ffffffff6118bd16565b610a9b611539565b600a546001600160a01b03908116911614610aeb576040805162461bcd60e51b8152602060048201819052602482015260008051602061292c833981519152604482015290519081900360640190fd5b6109e18383838080601f0160208091040260200160405190810160405280939291908181526020018383808284376000920191909152506118c992505050565b6109e183838360405180602001604052806000815250611008565b600080610b5a60028463ffffffff611a2e16565b509392505050565b60006109fd826040518060600160405280602981526020016128b5602991396002919063ffffffff611a4a16565b60098054604080516020601f600260001961010060018816150201909516949094049384018190048102820181019092528281526060939092909183018282801561089e5780601f106108735761010080835404028352916020019161089e565b600c805460408051602060026001851615610100026000190190941693909304601f81018490048402820184019092528181529291830182828015610c775780601f10610c4c57610100808354040283529160200191610c77565b820191906000526020600020905b815481529060010190602001808311610c5a57829003601f168201915b505050505081565b60006001600160a01b038216610cc65760405162461bcd60e51b815260040180806020018281038252602a81526020018061288b602a913960400191505060405180910390fd5b6001600160a01b03821660009081526001602052604090206109fd906116b0565b610cef611539565b600a546001600160a01b03908116911614610d3f576040805162461bcd60e51b8152602060048201819052602482015260008051602061292c833981519152604482015290519081900360640190fd5b600a546040516000916001600160a01b0316907f8be0079c531659141344cd1fd0a4f28419497f9722a3daafe3b4186f6b6457e0908390a3600a80546001600160a01b0319169055565b600a546001600160a01b031690565b60078054604080516020601f600260001961010060018816150201909516949094049384018190048102820181019092528281526060939092909183018282801561089e5780601f106108735761010080835404028352916020019161089e565b610e01611539565b6001600160a01b0316826001600160a01b03161415610e67576040805162461bcd60e51b815260206004820152601960248201527f4552433732313a20617070726f766520746f2063616c6c657200000000000000604482015290519081900360640190fd5b8060056000610e74611539565b6001600160a01b03908116825260208083019390935260409182016000908120918716808252919093529120805460ff191692151592909217909155610eb8611539565b60408051841515815290516001600160a01b0392909216917f17307eab39ab6107e8899845ad3d59bd9653f200f220920489ca2b5937696c319181900360200190a35050565b600080610f1384610f0e856115b1565b611a61565b905034156109fa576040516000906060906001600160a01b0384169034908481818185875af1925050503d8060008114610f69576040519150601f19603f3d011682016040523d82523d6000602084013e610f6e565b606091505b5091509150818190610ffe5760405162461bcd60e51b81526004018080602001828103825283818151815260200191508051906020019080838360005b83811015610fc3578181015183820152602001610fab565b50505050905090810190601f168015610ff05780820380516001836020036101000a031916815260200191505b509250505060405180910390fd5b5050509392505050565b611019611013611539565b836116bb565b6110545760405162461bcd60e51b81526004018080602001828103825260318152602001806129c56031913960400191505060405180910390fd5b61106084848484611c8b565b50505050565b61106e611539565b600a546001600160a01b039081169116146110be576040805162461bcd60e51b8152602060048201819052602482015260008051602061292c833981519152604482015290519081900360640190fd5b600e546001600160a01b031615611112576040805162461bcd60e51b8152602060048201526013602482015272185b1c9958591e481a5b9a5d1a585b1a5e9959606a1b604482015290519081900360640190fd5b600e80546001600160a01b0319166001600160a01b0392909216919091179055565b606061113f82611526565b61117a5760405162461bcd60e51b815260040180806020018281038252602f815260200180612975602f913960400191505060405180910390fd5b60008281526008602090815260409182902080548351601f600260001961010060018616150201909316929092049182018490048402810184019094528084526060939283018282801561120f5780601f106111e45761010080835404028352916020019161120f565b820191906000526020600020905b8154815290600101906020018083116111f257829003601f168201915b50506009549394505050506002600019610100600184161502019091160461123857905061080d565b8051156113095760098160405160200180838054600181600116156101000203166002900480156112a05780601f1061127e5761010080835404028352918201916112a0565b820191906000526020600020905b81548152906001019060200180831161128c575b5050825160208401908083835b602083106112cc5780518252601f1990920191602091820191016112ad565b6001836020036101000a0380198251168184511680821785525050505050509050019250505060405160208183030381529060405291505061080d565b600961131484611cdd565b60405160200180838054600181600116156101000203166002900480156113725780601f10611350576101008083540402835291820191611372565b820191906000526020600020905b81548152906001019060200180831161135e575b5050825160208401908083835b6020831061139e5780518252601f19909201916020918201910161137f565b6001836020036101000a03801982511681845116808217855250505050505090500192505050604051602081830303815290604052915050919050565b600e546001600160a01b031690565b6001600160a01b03918216600090815260056020908152604080832093909416825291909152205460ff1690565b600b546001600160a01b031681565b600d5481565b611435611539565b600a546001600160a01b03908116911614611485576040805162461bcd60e51b8152602060048201819052602482015260008051602061292c833981519152604482015290519081900360640190fd5b6001600160a01b0381166114ca5760405162461bcd60e51b81526004018080602001828103825260268152602001806127dd6026913960400191505060405180910390fd5b600a546040516001600160a01b038084169216907f8be0079c531659141344cd1fd0a4f28419497f9722a3daafe3b4186f6b6457e090600090a3600a80546001600160a01b0319166001600160a01b0392909216919091179055565b60006109fd60028363ffffffff611db816565b6000610a0f611dc4565b600081815260046020526040902080546001600160a01b0319166001600160a01b038416908117909155819061157882610b62565b6001600160a01b03167f8c5be1e5ebec7d5bd14f71427d1e84f3dd0314c0f7b2291e5b200ac8c7c3b92560405160405180910390a45050565b600e54604080513060248201526001600160a01b039092166044830152606480830184905281518084039091018152608490920190526020810180516001600160e01b031663485cc95560e01b179052919050565b60008061169f83856040516020018083805190602001908083835b602083106116405780518252601f199092019160209182019101611621565b6001836020036101000a038019825116818451168082178552505050505050905001826001600160a01b03166001600160a01b031660601b81526014019250505060405160208183030381529060405280519060200120600d54611e46565b6001600160a01b0316949350505050565b60006109fd82611e53565b60006116c682611526565b6117015760405162461bcd60e51b815260040180806020018281038252602c815260200180612827602c913960400191505060405180910390fd5b600061170c83610b62565b9050806001600160a01b0316846001600160a01b031614806117475750836001600160a01b031661173c846108a9565b6001600160a01b0316145b80611757575061175781856113ea565b949350505050565b826001600160a01b031661177282610b62565b6001600160a01b0316146117b75760405162461bcd60e51b815260040180806020018281038252602981526020018061294c6029913960400191505060405180910390fd5b6001600160a01b0382166117fc5760405162461bcd60e51b81526004018080602001828103825260248152602001806128036024913960400191505060405180910390fd5b6118078383836109e1565b611812600082611543565b6001600160a01b038316600090815260016020526040902061183a908263ffffffff611e5716565b506001600160a01b0382166000908152600160205260409020611863908263ffffffff611e6316565b506118766002828463ffffffff611e6f16565b5080826001600160a01b0316846001600160a01b03167fddf252ad1be2c89b69c2b068fc378daa952ba7f163c4a11628f55a4df523b3ef60405160405180910390a4505050565b60006109fa8383611e85565b604080516302571be360e01b81527f91d1777781884d03a6757a803996e38de2a42967fb37eeaca72729271025a9e2600482015290516001600160a01b038416916302571be3916024808301926020929190829003018186803b15801561192f57600080fd5b505afa158015611943573d6000803e3d6000fd5b505050506040513d602081101561195957600080fd5b505160405163c47f002760e01b81526020600482018181528451602484015284516001600160a01b039094169363c47f002793869383926044909201919085019080838360005b838110156119b85781810151838201526020016119a0565b50505050905090810190601f1680156119e55780820380516001836020036101000a031916815260200191505b5092505050602060405180830381600087803b158015611a0457600080fd5b505af1158015611a18573d6000803e3d6000fd5b505050506040513d602081101561106057600080fd5b6000808080611a3d8686611ee9565b9097909650945050505050565b6000611a57848484611f64565b90505b9392505050565b600080611b94600084866040516020018083805190602001908083835b60208310611a9d5780518252601f199092019160209182019101611a7e565b6001836020036101000a038019825116818451168082178552505050505050905001826001600160a01b03166001600160a01b031660601b81526014019250505060405160208183030381529060405280519060200120600c8054600181600116156101000203166002900480601f016020809104026020016040519081016040528092919081815260200182805460018160011615610100020316600290048015611b8a5780601f10611b5f57610100808354040283529160200191611b8a565b820191906000526020600020905b815481529060010190602001808311611b6d57829003601f168201915b5050505050611ff1565b600b546040805163347d5e2560e21b81526001600160a01b0392831660048201818152602483019384528851604484015288519596509386169463d1f5789494919389939091606490910190602085019080838360005b83811015611c03578181015183820152602001611beb565b50505050905090810190601f168015611c305780820380516001836020036101000a031916815260200191505b509350505050600060405180830381600087803b158015611c5057600080fd5b505af1158015611c64573d6000803e3d6000fd5b50505050611c7b84826001600160a01b0316612102565b6001600160a01b03169392505050565b611c9684848461175f565b611ca28484848461223c565b6110605760405162461bcd60e51b81526004018080602001828103825260328152602001806127ab6032913960400191505060405180910390fd5b606081611d0257506040805180820190915260018152600360fc1b602082015261080d565b8160005b8115611d1a57600101600a82049150611d06565b60608167ffffffffffffffff81118015611d3357600080fd5b506040519080825280601f01601f191660200182016040528015611d5e576020820181803683370190505b50859350905060001982015b8315611daf57600a840660300160f81b82828060019003935081518110611d8d57fe5b60200101906001600160f81b031916908160001a905350600a84049350611d6a565b50949350505050565b60006109fa8383612477565b600060183610801590611def5750611dda6113db565b6001600160a01b0316336001600160a01b0316145b15611e4157611e3a6000368080601f016020809104026020016040519081016040528093929190818152602001838380828437600092019190915250506013193601915061248f9050565b90506108a6565b503390565b60006109fa8383306124c7565b5490565b60006109fa838361252b565b60006109fa83836125f1565b6000611a5784846001600160a01b03851661263b565b81546000908210611ec75760405162461bcd60e51b81526004018080602001828103825260228152602001806127896022913960400191505060405180910390fd5b826000018281548110611ed657fe5b9060005260206000200154905092915050565b815460009081908310611f2d5760405162461bcd60e51b81526004018080602001828103825260228152602001806128de6022913960400191505060405180910390fd5b6000846000018481548110611f3e57fe5b906000526020600020906002020190508060000154816001015492509250509250929050565b60008281526001840160205260408120548281611fc25760405162461bcd60e51b8152602060048201818152835160248401528351909283926044909101919085019080838360008315610fc3578181015183820152602001610fab565b50846000016001820381548110611fd557fe5b9060005260206000209060020201600101549150509392505050565b60008084471015612049576040805162461bcd60e51b815260206004820152601d60248201527f437265617465323a20696e73756666696369656e742062616c616e6365000000604482015290519081900360640190fd5b825161209c576040805162461bcd60e51b815260206004820181905260248201527f437265617465323a2062797465636f6465206c656e677468206973207a65726f604482015290519081900360640190fd5b8383516020850187f590506001600160a01b038116611a57576040805162461bcd60e51b815260206004820152601960248201527f437265617465323a204661696c6564206f6e206465706c6f7900000000000000604482015290519081900360640190fd5b6001600160a01b03821661215d576040805162461bcd60e51b815260206004820181905260248201527f4552433732313a206d696e7420746f20746865207a65726f2061646472657373604482015290519081900360640190fd5b61216681611526565b156121b8576040805162461bcd60e51b815260206004820152601c60248201527f4552433732313a20746f6b656e20616c7265616479206d696e74656400000000604482015290519081900360640190fd5b6121c4600083836109e1565b6001600160a01b03821660009081526001602052604090206121ec908263ffffffff611e6316565b506121ff6002828463ffffffff611e6f16565b5060405181906001600160a01b038416906000907fddf252ad1be2c89b69c2b068fc378daa952ba7f163c4a11628f55a4df523b3ef908290a45050565b6000612250846001600160a01b03166126d2565b61225c57506001611757565b600060606001600160a01b038616630a85bd0160e11b61227a611539565b89888860405160240180856001600160a01b03166001600160a01b03168152602001846001600160a01b03166001600160a01b0316815260200183815260200180602001828103825283818151815260200191508051906020019080838360005b838110156122f35781810151838201526020016122db565b50505050905090810190601f1680156123205780820380516001836020036101000a031916815260200191505b5060408051601f198184030181529181526020820180516001600160e01b03166001600160e01b0319909a16999099178952518151919890975087965094509250829150849050835b602083106123885780518252601f199092019160209182019101612369565b6001836020036101000a0380198251168184511680821785525050505050509050019150506000604051808303816000865af19150503d80600081146123ea576040519150601f19603f3d011682016040523d82523d6000602084013e6123ef565b606091505b509150915081612440578051156124095780518082602001fd5b60405162461bcd60e51b81526004018080602001828103825260328152602001806127ab6032913960400191505060405180910390fd5b600081806020019051602081101561245757600080fd5b50516001600160e01b031916630a85bd0160e11b14935061175792505050565b60009081526001919091016020526040902054151590565b600081601401835110156124b5576124b56124b0600485518560140161270b565b612780565b5001601401516001600160a01b031690565b604080516001600160f81b031960208083019190915260609390931b6bffffffffffffffffffffffff19166021820152603581019490945260558085019390935280518085039093018352607590930190925280519101206001600160a01b031690565b600081815260018301602052604081205480156125e7578354600019808301919081019060009087908390811061255e57fe5b906000526020600020015490508087600001848154811061257b57fe5b6000918252602080832090910192909255828152600189810190925260409020908401905586548790806125ab57fe5b600190038181906000526020600020016000905590558660010160008781526020019081526020016000206000905560019450505050506109fd565b60009150506109fd565b60006125fd8383612477565b612633575081546001818101845560008481526020808220909301849055845484825282860190935260409020919091556109fd565b5060006109fd565b6000828152600184016020526040812054806126a0575050604080518082018252838152602080820184815286546001818101895560008981528481209551600290930290950191825591519082015586548684528188019092529290912055611a5a565b828560000160018303815481106126b357fe5b9060005260206000209060020201600101819055506000915050611a5a565b6000813f7fc5d2460186f7233c927e7db2dcc703c0e500b653ca82273b7bfad8045d85a470818114801590611757575050151592915050565b6060632800659560e01b8484846040516024018084600781111561272b57fe5b60ff1681526020018381526020018281526020019350505050604051602081830303815290604052906001600160e01b0319166020820180516001600160e01b03838183161783525050505090509392505050565b805160208201fdfe456e756d657261626c655365743a20696e646578206f7574206f6620626f756e64734552433732313a207472616e7366657220746f206e6f6e20455243373231526563656976657220696d706c656d656e7465724f776e61626c653a206e6577206f776e657220697320746865207a65726f20616464726573734552433732313a207472616e7366657220746f20746865207a65726f20616464726573734552433732313a206f70657261746f7220717565727920666f72206e6f6e6578697374656e7420746f6b656e4552433732313a20617070726f76652063616c6c6572206973206e6f74206f776e6572206e6f7220617070726f76656420666f7220616c6c4552433732313a2062616c616e636520717565727920666f7220746865207a65726f20616464726573734552433732313a206f776e657220717565727920666f72206e6f6e6578697374656e7420746f6b656e456e756d657261626c654d61703a20696e646578206f7574206f6620626f756e64734552433732313a20617070726f76656420717565727920666f72206e6f6e6578697374656e7420746f6b656e4f776e61626c653a2063616c6c6572206973206e6f7420746865206f776e65724552433732313a207472616e73666572206f6620746f6b656e2074686174206973206e6f74206f776e4552433732314d657461646174613a2055524920717565727920666f72206e6f6e6578697374656e7420746f6b656e4552433732313a20617070726f76616c20746f2063757272656e74206f776e65724552433732313a207472616e736665722063616c6c6572206973206e6f74206f776e6572206e6f7220617070726f766564a2646970667358221220b9db6597f025fe67b95aecb70ae7181108da4665b0b84909ca4e12c4f03c097e64736f6c634300060600336080604052611082806100136000396000f3fe608060405234801561001057600080fd5b50600436106100a85760003560e01c80637b103999116100715780637b103999146101245780638da5cb5b14610139578063aef0562914610141578063c4d66de814610154578063ce1b815f14610167578063d7f31eb91461016f576100a8565b806223de29146100ad578063150b7a02146100c25780631626ba7e146100eb57806320c13b0b146100fe578063485cc95514610111575b600080fd5b6100c06100bb366004610afc565b610182565b005b6100d56100d0366004610b9d565b61018a565b6040516100e29190610e73565b60405180910390f35b6100d56100f9366004610ccd565b61019b565b6100d561010c366004610d3f565b6102b7565b6100c061011f366004610ac4565b6103e9565b61012c610415565b6040516100e29190610e1e565b61012c610424565b6100c061014f366004610c61565b6104ab565b6100c0610162366004610a8c565b6105c2565b61012c61060d565b6100c061017d366004610c07565b61061c565b505050505050565b630a85bd0160e11b5b949350505050565b6000806101a6610424565b90506101ba816001600160a01b03166106a2565b1561024757604051630b135d3f60e11b81526001600160a01b03821690631626ba7e906101ef90889088908890600401610e32565b60206040518083038186803b15801561020757600080fd5b505afa15801561021b573d6000803e3d6000fd5b505050506040513d601f19601f8201168201806040525081019061023f9190610d17565b9150506102b0565b6102878585858080601f0160208091040260200160405190810160405280939291908181526020018383808284376000920191909152506106db92505050565b6001600160a01b0316816001600160a01b0316146102a457600080fd5b50630b135d3f60e11b90505b9392505050565b6000806102c2610424565b90506102d6816001600160a01b03166106a2565b15610365576040516320c13b0b60e01b81526001600160a01b038216906320c13b0b9061030d908990899089908990600401610e88565b60206040518083038186803b15801561032557600080fd5b505afa158015610339573d6000803e3d6000fd5b505050506040513d601f19601f8201168201806040525081019061035d9190610d17565b915050610193565b6103bc8686604051610378929190610df2565b604051809103902085858080601f0160208091040260200160405190810160405280939291908181526020018383808284376000920191909152506106db92505050565b6001600160a01b0316816001600160a01b0316146103d957600080fd5b506320c13b0b60e01b9050610193565b6103f2826105c2565b600180546001600160a01b0319166001600160a01b039290921691909117905550565b6000546001600160a01b031681565b600080546040516331a9108f60e11b81526001600160a01b0390911690636352211e90610455903090600401610f8a565b60206040518083038186803b15801561046d57600080fd5b505afa158015610481573d6000803e3d6000fd5b505050506040513d601f19601f820116820180604052508101906104a59190610aa8565b90505b90565b6104b36107d2565b6001600160a01b03166104c4610424565b6001600160a01b0316146104f35760405162461bcd60e51b81526004016104ea90610f1c565b60405180910390fd5b60005b818110156105bd576105b583838381811061050d57fe5b905060200281019061051f9190610ff3565b61052d906020810190610a8c565b84848481811061053957fe5b905060200281019061054b9190610ff3565b6020013585858581811061055b57fe5b905060200281019061056d9190610ff3565b61057b906040810190610fac565b8080601f0160208091040260200160405190810160405280939291908181526020018383808284376000920191909152506107dc92505050565b6001016104f6565b505050565b6000546001600160a01b0316156105eb5760405162461bcd60e51b81526004016104ea90610eef565b600080546001600160a01b0319166001600160a01b0392909216919091179055565b6001546001600160a01b031690565b6106246107d2565b6001600160a01b0316610635610424565b6001600160a01b03161461065b5760405162461bcd60e51b81526004016104ea90610f1c565b61069c848484848080601f0160208091040260200160405190810160405280939291908181526020018383808284376000920191909152506107dc92505050565b50505050565b6000813f7fc5d2460186f7233c927e7db2dcc703c0e500b653ca82273b7bfad8045d85a470818114801590610193575050151592915050565b6000806000808451604114156107055750505060208201516040830151606084015160001a61074a565b84516040141561073257505050602082015160408301516001600160ff1b0381169060001a60071c61074a565b60405162461bcd60e51b81526004016104ea90610f53565b601b8160ff16101561075a57601b015b8060ff16601b148061076f57508060ff16601c145b61077857600080fd5b6001868285856040516000815260200160405260405161079b9493929190610e55565b6020604051602081039080840390855afa1580156107bd573d6000803e3d6000fd5b5050604051601f190151979650505050505050565b60006104a56108ab565b60006060846001600160a01b031684846040516107f99190610e02565b60006040518083038185875af1925050503d8060008114610836576040519150601f19603f3d011682016040523d82523d6000602084013e61083b565b606091505b50915091508181906108605760405162461bcd60e51b81526004016104ea9190610edc565b50846001600160a01b03167fcaf938de11c367272220bfd1d2baa99ca46665e7bc4d85f00adb51b90fe1fa9f858560405161089c929190610f93565b60405180910390a25050505050565b6000601836108015906108d657506108c161060d565b6001600160a01b0316336001600160a01b0316145b15610928576109216000368080601f016020809104026020016040519081016040528093929190818152602001838380828437600092019190915250506013193601915061092d9050565b90506104a8565b503390565b600081601401835110156109535761095361094e6004855185601401610965565b6109bf565b5001601401516001600160a01b031690565b6060632800659560e01b84848460405160240161098493929190610eba565b60408051601f198184030181529190526020810180516001600160e01b03166001600160e01b03199093169290921790915290509392505050565b805160208201fd5b60008083601f8401126109d8578182fd5b50813567ffffffffffffffff8111156109ef578182fd5b602083019150836020828501011115610a0757600080fd5b9250929050565b600082601f830112610a1e578081fd5b813567ffffffffffffffff80821115610a35578283fd5b604051601f8301601f191681016020018281118282101715610a55578485fd5b604052828152925082848301602001861015610a7057600080fd5b8260208601602083013760006020848301015250505092915050565b600060208284031215610a9d578081fd5b81356102b081611034565b600060208284031215610ab9578081fd5b81516102b081611034565b60008060408385031215610ad6578081fd5b8235610ae181611034565b91506020830135610af181611034565b809150509250929050565b60008060008060008060c08789031215610b14578182fd5b8635610b1f81611034565b95506020870135610b2f81611034565b94506040870135610b3f81611034565b935060608701359250608087013567ffffffffffffffff80821115610b62578384fd5b610b6e8a838b01610a0e565b935060a0890135915080821115610b83578283fd5b50610b9089828a01610a0e565b9150509295509295509295565b60008060008060808587031215610bb2578384fd5b8435610bbd81611034565b93506020850135610bcd81611034565b925060408501359150606085013567ffffffffffffffff811115610bef578182fd5b610bfb87828801610a0e565b91505092959194509250565b60008060008060608587031215610c1c578384fd5b8435610c2781611034565b935060208501359250604085013567ffffffffffffffff811115610c49578283fd5b610c55878288016109c7565b95989497509550505050565b60008060208385031215610c73578182fd5b823567ffffffffffffffff80821115610c8a578384fd5b81850186601f820112610c9b578485fd5b8035925081831115610cab578485fd5b8660208085028301011115610cbe578485fd5b60200196919550909350505050565b600080600060408486031215610ce1578283fd5b83359250602084013567ffffffffffffffff811115610cfe578283fd5b610d0a868287016109c7565b9497909650939450505050565b600060208284031215610d28578081fd5b81516001600160e01b0319811681146102b0578182fd5b60008060008060408587031215610d54578384fd5b843567ffffffffffffffff80821115610d6b578586fd5b610d77888389016109c7565b90965094506020870135915080821115610d8f578384fd5b50610c55878288016109c7565b60008284528282602086013780602084860101526020601f19601f85011685010190509392505050565b60008151808452610dde816020860160208601611008565b601f01601f19169290920160200192915050565b6000828483379101908152919050565b60008251610e14818460208701611008565b9190910192915050565b6001600160a01b0391909116815260200190565b600084825260406020830152610e4c604083018486610d9c565b95945050505050565b93845260ff9290921660208401526040830152606082015260800190565b6001600160e01b031991909116815260200190565b600060408252610e9c604083018688610d9c565b8281036020840152610eaf818587610d9c565b979650505050505050565b6060810160088510610ec857fe5b938152602081019290925260409091015290565b6000602082526102b06020830184610dc6565b602080825260139082015272185b1c9958591e481a5b9a5d1a585b1a5e9959606a1b604082015260600190565b60208082526017908201527f63616c6c6572206973206e6f7420746865206f776e6572000000000000000000604082015260600190565b60208082526018908201527f696e76616c69642d7369676e61747572652d666f726d61740000000000000000604082015260600190565b90815260200190565b6000838252604060208301526101936040830184610dc6565b6000808335601e19843603018112610fc2578283fd5b8084018035925067ffffffffffffffff831115610fdd578384fd5b60200192505036819003821315610a0757600080fd5b60008235605e19833603018112610e14578182fd5b60005b8381101561102357818101518382015260200161100b565b8381111561069c5750506000910152565b6001600160a01b038116811461104957600080fd5b5056fea26469706673582212207320c0a8fc523144327e51f977ef0717bffdfad5e43bedbc31302f577572397864736f6c63430006060033608060405234801561001057600080fd5b506103dd806100206000396000f3fe6080604052600436106100225760003560e01c8063d1f57894146100695761005f565b3661005f5760408051348152905133917f88a5966d370b9919b20f3e2c13ff65706f196a4e32cc2c12bf57088f88525874919081900360200190a2005b61006761011f565b005b6100676004803603604081101561007f57600080fd5b6001600160a01b0382351691908101906040810160208201356401000000008111156100aa57600080fd5b8201836020820111156100bc57600080fd5b803590602001918460018302840111640100000000831117156100de57600080fd5b91908080601f016020809104026020016040519081016040528093929190818152602001838380828437600092019190915250929550610139945050505050565b610127610137565b61013761013261025c565b610281565b565b600061014361025c565b6001600160a01b03161461015657600080fd5b60405180602361034a82396040519081900360230190207f7050c9e0f4ca769c69bd3a8ef740bc37934f8e2c036e5a723fd8ee048ed3f8c314905061019757fe5b6101a0826102a5565b805115610258576000826001600160a01b0316826040518082805190602001908083835b602083106101e35780518252601f1990920191602091820191016101c4565b6001836020036101000a038019825116818451168082178552505050505050905001915050600060405180830381855af49150503d8060008114610243576040519150601f19603f3d011682016040523d82523d6000602084013e610248565b606091505b505090508061025657600080fd5b505b5050565b7f7050c9e0f4ca769c69bd3a8ef740bc37934f8e2c036e5a723fd8ee048ed3f8c35490565b3660008037600080366000845af43d6000803e8080156102a0573d6000f35b3d6000fd5b6102ae8161030d565b6102e95760405162461bcd60e51b815260040180806020018281038252603b81526020018061036d603b913960400191505060405180910390fd5b7f7050c9e0f4ca769c69bd3a8ef740bc37934f8e2c036e5a723fd8ee048ed3f8c355565b6000813f7fc5d2460186f7233c927e7db2dcc703c0e500b653ca82273b7bfad8045d85a47081811480159061034157508115155b94935050505056fe6f72672e7a657070656c696e6f732e70726f78792e696d706c656d656e746174696f6e43616e6e6f742073657420612070726f787920696d706c656d656e746174696f6e20746f2061206e6f6e2d636f6e74726163742061646472657373a2646970667358221220e23a2ceb774603b9baf1331ab19195315fa8f9dd4a1905144c301a3717882cdd64736f6c63430006060033",
  "immutableReferences": {},
  "source": "pragma solidity ^0.6.0;\n\nimport \"@iexec/solidity/contracts/ENStools/ENSReverseRegistration.sol\";\nimport \"@opengsn/gsn/contracts/BaseRelayRecipient.sol\";\nimport \"./core/CounterfactualTokenRegistry.sol\";\nimport \"./NFWallet.sol\";\n\n\ncontract NFWalletFactory is\n\tCounterfactualTokenRegistry,\n\tBaseRelayRecipient,\n\tENSReverseRegistration\n{\n\tconstructor()\n\tpublic CounterfactualTokenRegistry(\n\t\taddress(new NFWallet()),\n\t\t'NonFungibleWallet',\n\t\t'NFW')\n\t{\n\t}\n\n\tfunction initialize(address _trustedForwarder)\n\tpublic onlyOwner()\n\t{\n\t\trequire(trustedForwarder == address(0), 'already initialized');\n\t\ttrustedForwarder = _trustedForwarder;\n\t}\n\n\tfunction _msgSender()\n\tinternal view override(Context, BaseRelayRecipient) returns (address payable sender)\n\t{\n\t\treturn BaseRelayRecipient._msgSender();\n\t}\n\n\tfunction encodeInitializer(bytes32 _salt)\n\tinternal view returns (bytes memory)\n\t{\n\t\treturn abi.encodeWithSignature('initialize(address,address)', address(this), trustedForwarder, _salt);\n\t}\n\n\tfunction createWallet(address _owner, bytes32 _salt)\n\texternal payable returns (address)\n\t{\n\t\taddress wallet = address(_mintCreate(_owner, encodeInitializer(_salt)));\n\t\tif (msg.value > 0)\n\t\t{\n\t\t\t(bool success, bytes memory returndata) = payable(wallet).call{value: msg.value}('');\n\t\t\trequire(success, string(returndata));\n\t\t}\n\t\treturn wallet;\n\t}\n\n\tfunction predictWallet(address _owner, bytes32 _salt)\n\texternal view returns (address)\n\t{\n\t\treturn address(_mintPredict(_owner, encodeInitializer(_salt)));\n\t}\n\n\tfunction setName(address _ens, string calldata _name)\n\texternal onlyOwner()\n\t{\n\t\t_setName(ENS(_ens), _name);\n\t}\n}\n",
  "sourcePath": "/home/amxx/Work/Projects/NFWallets/solidity/contracts/NFWalletFactory.sol",
  "compiler": {
    "name": "solc",
    "version": "0.6.6+commit.6c089d02.Emscripten.clang"
  },
  "schemaVersion": "3.1.0",
  "updatedAt": "2020-05-12T13:55:08.990Z",
  "networkType": "ethereum",
  "devdoc": {
    "methods": {
      "approve(address,uint256)": {
        "details": "Approves another address to transfer the given token ID The zero address indicates there is no approved address. There can only be one approved address per token at a given time. Can only be called by the token owner or an approved operator.",
        "params": {
          "to": "address to be approved for the given token ID",
          "tokenId": "uint256 ID of the token to be approved"
        }
      },
      "balanceOf(address)": {
        "details": "Gets the balance of the specified address.",
        "params": {
          "owner": "address to query the balance of"
        },
        "returns": {
          "_0": "uint256 representing the amount owned by the passed address"
        }
      },
      "baseURI()": {
        "details": "Returns the base URI set via {_setBaseURI}. This will be automatically added as a prefix in {tokenURI} to each token's URI, or to the token ID if no specific URI is set for that token ID."
      },
      "getApproved(uint256)": {
        "details": "Gets the approved address for a token ID, or zero if no address set Reverts if the token ID does not exist.",
        "params": {
          "tokenId": "uint256 ID of the token to query the approval of"
        },
        "returns": {
          "_0": "address currently approved for the given token ID"
        }
      },
      "isApprovedForAll(address,address)": {
        "details": "Tells whether an operator is approved by a given owner.",
        "params": {
          "operator": "operator address which you want to query the approval of",
          "owner": "owner address which you want to query the approval of"
        },
        "returns": {
          "_0": "bool whether the given operator is approved by the given owner"
        }
      },
      "name()": {
        "details": "Gets the token name.",
        "returns": {
          "_0": "string representing the token name"
        }
      },
      "owner()": {
        "details": "Returns the address of the current owner."
      },
      "ownerOf(uint256)": {
        "details": "Gets the owner of the specified token ID.",
        "params": {
          "tokenId": "uint256 ID of the token to query the owner of"
        },
        "returns": {
          "_0": "address currently marked as the owner of the given token ID"
        }
      },
      "renounceOwnership()": {
        "details": "Leaves the contract without owner. It will not be possible to call `onlyOwner` functions anymore. Can only be called by the current owner.     * NOTE: Renouncing ownership will leave the contract without an owner, thereby removing any functionality that is only available to the owner."
      },
      "safeTransferFrom(address,address,uint256)": {
        "details": "Safely transfers the ownership of a given token ID to another address If the target address is a contract, it must implement {IERC721Receiver-onERC721Received}, which is called upon a safe transfer, and return the magic value `bytes4(keccak256(\"onERC721Received(address,address,uint256,bytes)\"))`; otherwise, the transfer is reverted. Requires the msg.sender to be the owner, approved, or operator",
        "params": {
          "from": "current owner of the token",
          "to": "address to receive the ownership of the given token ID",
          "tokenId": "uint256 ID of the token to be transferred"
        }
      },
      "safeTransferFrom(address,address,uint256,bytes)": {
        "details": "Safely transfers the ownership of a given token ID to another address If the target address is a contract, it must implement {IERC721Receiver-onERC721Received}, which is called upon a safe transfer, and return the magic value `bytes4(keccak256(\"onERC721Received(address,address,uint256,bytes)\"))`; otherwise, the transfer is reverted. Requires the _msgSender() to be the owner, approved, or operator",
        "params": {
          "_data": "bytes data to send along with a safe transfer check",
          "from": "current owner of the token",
          "to": "address to receive the ownership of the given token ID",
          "tokenId": "uint256 ID of the token to be transferred"
        }
      },
      "setApprovalForAll(address,bool)": {
        "details": "Sets or unsets the approval of a given operator An operator is allowed to transfer all tokens of the sender on their behalf.",
        "params": {
          "approved": "representing the status of the approval to be set",
          "operator": "operator address to set the approval"
        }
      },
      "supportsInterface(bytes4)": {
        "details": "See {IERC165-supportsInterface}.     * Time complexity O(1), guaranteed to always use less than 30 000 gas."
      },
      "symbol()": {
        "details": "Gets the token symbol.",
        "returns": {
          "_0": "string representing the token symbol"
        }
      },
      "tokenByIndex(uint256)": {
        "details": "Gets the token ID at a given index of all the tokens in this contract Reverts if the index is greater or equal to the total number of tokens.",
        "params": {
          "index": "uint256 representing the index to be accessed of the tokens list"
        },
        "returns": {
          "_0": "uint256 token ID at the given index of the tokens list"
        }
      },
      "tokenOfOwnerByIndex(address,uint256)": {
        "details": "Gets the token ID at a given index of the tokens list of the requested owner.",
        "params": {
          "index": "uint256 representing the index to be accessed of the requested tokens list",
          "owner": "address owning the tokens list to be accessed"
        },
        "returns": {
          "_0": "uint256 token ID at the given index of the tokens list owned by the requested address"
        }
      },
      "tokenURI(uint256)": {
        "details": "Returns the URI for a given token ID. May return an empty string.     * If a base URI is set (via {_setBaseURI}), it is added as a prefix to the token's own URI (via {_setTokenURI}).     * If there is a base URI but no token URI, the token's ID will be used as its URI when appending it to the base URI. This pattern for autogenerated token URIs can lead to large gas savings.     * .Examples |=== |`_setBaseURI()` |`_setTokenURI()` |`tokenURI()` | \"\" | \"\" | \"\" | \"\" | \"token.uri/123\" | \"token.uri/123\" | \"token.uri/\" | \"123\" | \"token.uri/123\" | \"token.uri/\" | \"\" | \"token.uri/<tokenId>\" |===     * Requirements:     * - `tokenId` must exist."
      },
      "totalSupply()": {
        "details": "Gets the total amount of tokens stored by the contract.",
        "returns": {
          "_0": "uint256 representing the total amount of tokens"
        }
      },
      "transferFrom(address,address,uint256)": {
        "details": "Transfers the ownership of a given token ID to another address. Usage of this method is discouraged, use {safeTransferFrom} whenever possible. Requires the msg.sender to be the owner, approved, or operator.",
        "params": {
          "from": "current owner of the token",
          "to": "address to receive the ownership of the given token ID",
          "tokenId": "uint256 ID of the token to be transferred"
        }
      },
      "transferOwnership(address)": {
        "details": "Transfers ownership of the contract to a new account (`newOwner`). Can only be called by the current owner."
      }
    }
  },
  "userdoc": {
    "methods": {}
  }
}