{
  "contractName": "NFWalletFactory",
  "abi": [
    {
      "inputs": [],
      "stateMutability": "nonpayable",
      "type": "constructor"
    },
    {
      "anonymous": false,
      "inputs": [
        {
          "indexed": true,
          "internalType": "address",
          "name": "owner",
          "type": "address"
        },
        {
          "indexed": true,
          "internalType": "address",
          "name": "approved",
          "type": "address"
        },
        {
          "indexed": true,
          "internalType": "uint256",
          "name": "tokenId",
          "type": "uint256"
        }
      ],
      "name": "Approval",
      "type": "event"
    },
    {
      "anonymous": false,
      "inputs": [
        {
          "indexed": true,
          "internalType": "address",
          "name": "owner",
          "type": "address"
        },
        {
          "indexed": true,
          "internalType": "address",
          "name": "operator",
          "type": "address"
        },
        {
          "indexed": false,
          "internalType": "bool",
          "name": "approved",
          "type": "bool"
        }
      ],
      "name": "ApprovalForAll",
      "type": "event"
    },
    {
      "anonymous": false,
      "inputs": [
        {
          "indexed": true,
          "internalType": "address",
          "name": "previousOwner",
          "type": "address"
        },
        {
          "indexed": true,
          "internalType": "address",
          "name": "newOwner",
          "type": "address"
        }
      ],
      "name": "OwnershipTransferred",
      "type": "event"
    },
    {
      "anonymous": false,
      "inputs": [
        {
          "indexed": true,
          "internalType": "address",
          "name": "from",
          "type": "address"
        },
        {
          "indexed": true,
          "internalType": "address",
          "name": "to",
          "type": "address"
        },
        {
          "indexed": true,
          "internalType": "uint256",
          "name": "tokenId",
          "type": "uint256"
        }
      ],
      "name": "Transfer",
      "type": "event"
    },
    {
      "inputs": [
        {
          "internalType": "address",
          "name": "to",
          "type": "address"
        },
        {
          "internalType": "uint256",
          "name": "tokenId",
          "type": "uint256"
        }
      ],
      "name": "approve",
      "outputs": [],
      "stateMutability": "nonpayable",
      "type": "function"
    },
    {
      "inputs": [
        {
          "internalType": "address",
          "name": "owner",
          "type": "address"
        }
      ],
      "name": "balanceOf",
      "outputs": [
        {
          "internalType": "uint256",
          "name": "",
          "type": "uint256"
        }
      ],
      "stateMutability": "view",
      "type": "function",
      "constant": true
    },
    {
      "inputs": [],
      "name": "baseURI",
      "outputs": [
        {
          "internalType": "string",
          "name": "",
          "type": "string"
        }
      ],
      "stateMutability": "view",
      "type": "function",
      "constant": true
    },
    {
      "inputs": [
        {
          "internalType": "uint256",
          "name": "tokenId",
          "type": "uint256"
        }
      ],
      "name": "getApproved",
      "outputs": [
        {
          "internalType": "address",
          "name": "",
          "type": "address"
        }
      ],
      "stateMutability": "view",
      "type": "function",
      "constant": true
    },
    {
      "inputs": [],
      "name": "getTrustedForwarder",
      "outputs": [
        {
          "internalType": "address",
          "name": "",
          "type": "address"
        }
      ],
      "stateMutability": "view",
      "type": "function",
      "constant": true
    },
    {
      "inputs": [
        {
          "internalType": "address",
          "name": "owner",
          "type": "address"
        },
        {
          "internalType": "address",
          "name": "operator",
          "type": "address"
        }
      ],
      "name": "isApprovedForAll",
      "outputs": [
        {
          "internalType": "bool",
          "name": "",
          "type": "bool"
        }
      ],
      "stateMutability": "view",
      "type": "function",
      "constant": true
    },
    {
      "inputs": [],
      "name": "master",
      "outputs": [
        {
          "internalType": "address",
          "name": "",
          "type": "address"
        }
      ],
      "stateMutability": "view",
      "type": "function",
      "constant": true
    },
    {
      "inputs": [],
      "name": "name",
      "outputs": [
        {
          "internalType": "string",
          "name": "",
          "type": "string"
        }
      ],
      "stateMutability": "view",
      "type": "function",
      "constant": true
    },
    {
      "inputs": [],
      "name": "owner",
      "outputs": [
        {
          "internalType": "address",
          "name": "",
          "type": "address"
        }
      ],
      "stateMutability": "view",
      "type": "function",
      "constant": true
    },
    {
      "inputs": [
        {
          "internalType": "uint256",
          "name": "tokenId",
          "type": "uint256"
        }
      ],
      "name": "ownerOf",
      "outputs": [
        {
          "internalType": "address",
          "name": "",
          "type": "address"
        }
      ],
      "stateMutability": "view",
      "type": "function",
      "constant": true
    },
    {
      "inputs": [],
      "name": "proxyCode",
      "outputs": [
        {
          "internalType": "bytes",
          "name": "",
          "type": "bytes"
        }
      ],
      "stateMutability": "view",
      "type": "function",
      "constant": true
    },
    {
      "inputs": [],
      "name": "proxyCodeHash",
      "outputs": [
        {
          "internalType": "bytes32",
          "name": "",
          "type": "bytes32"
        }
      ],
      "stateMutability": "view",
      "type": "function",
      "constant": true
    },
    {
      "inputs": [],
      "name": "renounceOwnership",
      "outputs": [],
      "stateMutability": "nonpayable",
      "type": "function"
    },
    {
      "inputs": [
        {
          "internalType": "address",
          "name": "from",
          "type": "address"
        },
        {
          "internalType": "address",
          "name": "to",
          "type": "address"
        },
        {
          "internalType": "uint256",
          "name": "tokenId",
          "type": "uint256"
        }
      ],
      "name": "safeTransferFrom",
      "outputs": [],
      "stateMutability": "nonpayable",
      "type": "function"
    },
    {
      "inputs": [
        {
          "internalType": "address",
          "name": "from",
          "type": "address"
        },
        {
          "internalType": "address",
          "name": "to",
          "type": "address"
        },
        {
          "internalType": "uint256",
          "name": "tokenId",
          "type": "uint256"
        },
        {
          "internalType": "bytes",
          "name": "_data",
          "type": "bytes"
        }
      ],
      "name": "safeTransferFrom",
      "outputs": [],
      "stateMutability": "nonpayable",
      "type": "function"
    },
    {
      "inputs": [
        {
          "internalType": "address",
          "name": "operator",
          "type": "address"
        },
        {
          "internalType": "bool",
          "name": "approved",
          "type": "bool"
        }
      ],
      "name": "setApprovalForAll",
      "outputs": [],
      "stateMutability": "nonpayable",
      "type": "function"
    },
    {
      "inputs": [
        {
          "internalType": "bytes4",
          "name": "interfaceId",
          "type": "bytes4"
        }
      ],
      "name": "supportsInterface",
      "outputs": [
        {
          "internalType": "bool",
          "name": "",
          "type": "bool"
        }
      ],
      "stateMutability": "view",
      "type": "function",
      "constant": true
    },
    {
      "inputs": [],
      "name": "symbol",
      "outputs": [
        {
          "internalType": "string",
          "name": "",
          "type": "string"
        }
      ],
      "stateMutability": "view",
      "type": "function",
      "constant": true
    },
    {
      "inputs": [
        {
          "internalType": "uint256",
          "name": "index",
          "type": "uint256"
        }
      ],
      "name": "tokenByIndex",
      "outputs": [
        {
          "internalType": "uint256",
          "name": "",
          "type": "uint256"
        }
      ],
      "stateMutability": "view",
      "type": "function",
      "constant": true
    },
    {
      "inputs": [
        {
          "internalType": "address",
          "name": "owner",
          "type": "address"
        },
        {
          "internalType": "uint256",
          "name": "index",
          "type": "uint256"
        }
      ],
      "name": "tokenOfOwnerByIndex",
      "outputs": [
        {
          "internalType": "uint256",
          "name": "",
          "type": "uint256"
        }
      ],
      "stateMutability": "view",
      "type": "function",
      "constant": true
    },
    {
      "inputs": [
        {
          "internalType": "uint256",
          "name": "tokenId",
          "type": "uint256"
        }
      ],
      "name": "tokenURI",
      "outputs": [
        {
          "internalType": "string",
          "name": "",
          "type": "string"
        }
      ],
      "stateMutability": "view",
      "type": "function",
      "constant": true
    },
    {
      "inputs": [],
      "name": "totalSupply",
      "outputs": [
        {
          "internalType": "uint256",
          "name": "",
          "type": "uint256"
        }
      ],
      "stateMutability": "view",
      "type": "function",
      "constant": true
    },
    {
      "inputs": [
        {
          "internalType": "address",
          "name": "from",
          "type": "address"
        },
        {
          "internalType": "address",
          "name": "to",
          "type": "address"
        },
        {
          "internalType": "uint256",
          "name": "tokenId",
          "type": "uint256"
        }
      ],
      "name": "transferFrom",
      "outputs": [],
      "stateMutability": "nonpayable",
      "type": "function"
    },
    {
      "inputs": [
        {
          "internalType": "address",
          "name": "newOwner",
          "type": "address"
        }
      ],
      "name": "transferOwnership",
      "outputs": [],
      "stateMutability": "nonpayable",
      "type": "function"
    },
    {
      "inputs": [
        {
          "internalType": "address",
          "name": "_trustedForwarder",
          "type": "address"
        }
      ],
      "name": "initialize",
      "outputs": [],
      "stateMutability": "nonpayable",
      "type": "function"
    },
    {
      "inputs": [
        {
          "internalType": "address",
          "name": "_owner",
          "type": "address"
        },
        {
          "internalType": "bytes32",
          "name": "_salt",
          "type": "bytes32"
        }
      ],
      "name": "createWallet",
      "outputs": [
        {
          "internalType": "address",
          "name": "",
          "type": "address"
        }
      ],
      "stateMutability": "payable",
      "type": "function",
      "payable": true
    },
    {
      "inputs": [
        {
          "internalType": "address",
          "name": "_owner",
          "type": "address"
        },
        {
          "internalType": "bytes32",
          "name": "_salt",
          "type": "bytes32"
        }
      ],
      "name": "predictWallet",
      "outputs": [
        {
          "internalType": "address",
          "name": "",
          "type": "address"
        }
      ],
      "stateMutability": "view",
      "type": "function",
      "constant": true
    },
    {
      "inputs": [
        {
          "internalType": "address",
          "name": "_ens",
          "type": "address"
        },
        {
          "internalType": "string",
          "name": "_name",
          "type": "string"
        }
      ],
      "name": "setName",
      "outputs": [],
      "stateMutability": "nonpayable",
      "type": "function"
    }
  ],
  "bytecode": "0x60806040523480156200001157600080fd5b50604051620000209062000472565b604051809103906000f0801580156200003d573d6000803e3d6000fd5b506040805180820182526011815270139bdb919d5b99da589b1955d85b1b195d607a1b602080830191909152825180840190935260038352624e465760e81b908301529081816200009e6301ffc9a760e01b6001600160e01b036200025316565b8151620000b390600690602085019062000480565b508051620000c990600790602084019062000480565b50620000e56380ac58cd60e01b6001600160e01b036200025316565b62000100635b5e139f60e01b6001600160e01b036200025316565b6200011b63780e9d6360e01b6001600160e01b036200025316565b5060009050620001336001600160e01b03620002d816565b600a80546001600160a01b0319166001600160a01b038316908117909155604051919250906000907f8be0079c531659141344cd1fd0a4f28419497f9722a3daafe3b4186f6b6457e0908290a350600b80546001600160a01b0319166001600160a01b038516179055604051620001ad6020820162000505565b601f1982820381018352601f909101166040528051620001d791600c916020919091019062000480565b50600c6040518082805460018160011615610100020316600290048015620002395780601f106200021657610100808354040283529182019162000239565b820191906000526020600020905b81548152906001019060200180831162000224575b5050604051908190039020600d5550620005309350505050565b6001600160e01b03198082161415620002b3576040805162461bcd60e51b815260206004820152601c60248201527f4552433136353a20696e76616c696420696e7465726661636520696400000000604482015290519081900360640190fd5b6001600160e01b0319166000908152602081905260409020805460ff19166001179055565b6000620002ef620002f560201b62001e161760201c565b90505b90565b6000601836108015906200032c5750620003176001600160e01b036200039216565b6001600160a01b0316336001600160a01b0316145b156200038d57620003856000368080601f016020809104026020016040519081016040528093929190818152602001838380828437600092019190915250503660131901915050620003a1602090811b620024e117901c565b9050620002f2565b503390565b600e546001600160a01b031690565b60008160140183511015620003e257620003e2620003d16004855185601401620003f460201b6200275d1760201c565b6200046a60201b620027d21760201c565b5001601401516001600160a01b031690565b6060632800659560e01b848484604051602401808460078111156200041557fe5b60ff1681526020018381526020018281526020019350505050604051602081830303815290604052906001600160e01b0319166020820180516001600160e01b03838183161783525050505090509392505050565b805160208201fd5b6110f48062002fbd83390190565b828054600181600116156101000203166002900490600052602060002090601f016020900481019282601f10620004c357805160ff1916838001178555620004f3565b82800160010185558215620004f3579182015b82811115620004f3578251825591602001919060010190620004d6565b506200050192915062000513565b5090565b6103fd80620040b183390190565b620002f291905b808211156200050157600081556001016200051a565b612a7d80620005406000396000f3fe6080604052600436106101b75760003560e01c806370a08231116100ec578063c4d66de81161008a578063e985e9c511610064578063e985e9c514610757578063ee97f7f314610792578063eee39111146107a7578063f2fde38b146107bc576101b7565b8063c4d66de8146106e5578063c87b56dd14610718578063ce1b815f14610742576101b7565b806395d89b41116100c657806395d89b4114610596578063a22cb465146105ab578063b20ca818146105e6578063b88d4fde14610612576101b7565b806370a0823114610539578063715018a61461056c5780638da5cb5b14610581576101b7565b80632f745c59116101595780634f6ccce7116101335780634f6ccce7146104bb5780636352211e146104e55780636c0360eb1461050f5780636fa59bbc14610524576101b7565b80632f745c59146103b25780633121db1c146103eb57806342842e0e14610478576101b7565b8063095ea7b311610195578063095ea7b3146102d4578063136fecbd1461030f57806318160ddd1461034857806323b872dd1461036f576101b7565b806301ffc9a7146101bc57806306fdde0314610204578063081812fc1461028e575b600080fd5b3480156101c857600080fd5b506101f0600480360360208110156101df57600080fd5b50356001600160e01b0319166107ef565b604080519115158252519081900360200190f35b34801561021057600080fd5b50610219610812565b6040805160208082528351818301528351919283929083019185019080838360005b8381101561025357818101518382015260200161023b565b50505050905090810190601f1680156102805780820380516001836020036101000a031916815260200191505b509250505060405180910390f35b34801561029a57600080fd5b506102b8600480360360208110156102b157600080fd5b50356108a9565b604080516001600160a01b039092168252519081900360200190f35b3480156102e057600080fd5b5061030d600480360360408110156102f757600080fd5b506001600160a01b03813516906020013561090b565b005b34801561031b57600080fd5b506102b86004803603604081101561033257600080fd5b506001600160a01b0381351690602001356109e6565b34801561035457600080fd5b5061035d610a03565b60408051918252519081900360200190f35b34801561037b57600080fd5b5061030d6004803603606081101561039257600080fd5b506001600160a01b03813581169160208101359091169060400135610a14565b3480156103be57600080fd5b5061035d600480360360408110156103d557600080fd5b506001600160a01b038135169060200135610a6b565b3480156103f757600080fd5b5061030d6004803603604081101561040e57600080fd5b6001600160a01b03823516919081019060408101602082013564010000000081111561043957600080fd5b82018360208201111561044b57600080fd5b8035906020019184600183028401116401000000008311171561046d57600080fd5b509092509050610a93565b34801561048457600080fd5b5061030d6004803603606081101561049b57600080fd5b506001600160a01b03813581169160208101359091169060400135610b2b565b3480156104c757600080fd5b5061035d600480360360208110156104de57600080fd5b5035610b46565b3480156104f157600080fd5b506102b86004803603602081101561050857600080fd5b5035610b62565b34801561051b57600080fd5b50610219610b90565b34801561053057600080fd5b50610219610bf1565b34801561054557600080fd5b5061035d6004803603602081101561055c57600080fd5b50356001600160a01b0316610c7f565b34801561057857600080fd5b5061030d610ce7565b34801561058d57600080fd5b506102b8610d89565b3480156105a257600080fd5b50610219610d98565b3480156105b757600080fd5b5061030d600480360360408110156105ce57600080fd5b506001600160a01b0381351690602001351515610df9565b6102b8600480360360408110156105fc57600080fd5b506001600160a01b038135169060200135610efe565b34801561061e57600080fd5b5061030d6004803603608081101561063557600080fd5b6001600160a01b0382358116926020810135909116916040820135919081019060808101606082013564010000000081111561067057600080fd5b82018360208201111561068257600080fd5b803590602001918460018302840111640100000000831117156106a457600080fd5b91908080601f016020809104026020016040519081016040528093929190818152602001838380828437600092019190915250929550611070945050505050565b3480156106f157600080fd5b5061030d6004803603602081101561070857600080fd5b50356001600160a01b03166110ce565b34801561072457600080fd5b506102196004803603602081101561073b57600080fd5b503561119c565b34801561074e57600080fd5b506102b8611443565b34801561076357600080fd5b506101f06004803603604081101561077a57600080fd5b506001600160a01b0381358116916020013516611452565b34801561079e57600080fd5b506102b8611480565b3480156107b357600080fd5b5061035d61148f565b3480156107c857600080fd5b5061030d600480360360208110156107df57600080fd5b50356001600160a01b0316611495565b6001600160e01b0319811660009081526020819052604090205460ff165b919050565b60068054604080516020601f600260001961010060018816150201909516949094049384018190048102820181019092528281526060939092909183018282801561089e5780601f106108735761010080835404028352916020019161089e565b820191906000526020600020905b81548152906001019060200180831161088157829003601f168201915b505050505090505b90565b60006108b48261158e565b6108ef5760405162461bcd60e51b815260040180806020018281038252602c815260200180612952602c913960400191505060405180910390fd5b506000908152600460205260409020546001600160a01b031690565b600061091682610b62565b9050806001600160a01b0316836001600160a01b031614156109695760405162461bcd60e51b81526004018080602001828103825260218152602001806129f66021913960400191505060405180910390fd5b806001600160a01b031661097b6115a1565b6001600160a01b0316148061099c575061099c816109976115a1565b611452565b6109d75760405162461bcd60e51b81526004018080602001828103825260388152602001806128a56038913960400191505060405180910390fd5b6109e183836115ab565b505050565b60006109fa836109f584611619565b611658565b90505b92915050565b6000610a0f6002611702565b905090565b610a25610a1f6115a1565b8261170d565b610a605760405162461bcd60e51b8152600401808060200182810382526031815260200180612a176031913960400191505060405180910390fd5b6109e18383836117b1565b6001600160a01b03821660009081526001602052604081206109fa908363ffffffff61190f16565b610a9b6115a1565b600a546001600160a01b03908116911614610aeb576040805162461bcd60e51b8152602060048201819052602482015260008051602061297e833981519152604482015290519081900360640190fd5b6109e18383838080601f01602080910402602001604051908101604052809392919081815260200183838082843760009201919091525061191b92505050565b6109e183838360405180602001604052806000815250611070565b600080610b5a60028463ffffffff611a8016565b509392505050565b60006109fd82604051806060016040528060298152602001612907602991396002919063ffffffff611a9c16565b60098054604080516020601f600260001961010060018816150201909516949094049384018190048102820181019092528281526060939092909183018282801561089e5780601f106108735761010080835404028352916020019161089e565b600c805460408051602060026001851615610100026000190190941693909304601f81018490048402820184019092528181529291830182828015610c775780601f10610c4c57610100808354040283529160200191610c77565b820191906000526020600020905b815481529060010190602001808311610c5a57829003601f168201915b505050505081565b60006001600160a01b038216610cc65760405162461bcd60e51b815260040180806020018281038252602a8152602001806128dd602a913960400191505060405180910390fd5b6001600160a01b03821660009081526001602052604090206109fd90611702565b610cef6115a1565b600a546001600160a01b03908116911614610d3f576040805162461bcd60e51b8152602060048201819052602482015260008051602061297e833981519152604482015290519081900360640190fd5b600a546040516000916001600160a01b0316907f8be0079c531659141344cd1fd0a4f28419497f9722a3daafe3b4186f6b6457e0908390a3600a80546001600160a01b0319169055565b600a546001600160a01b031690565b60078054604080516020601f600260001961010060018816150201909516949094049384018190048102820181019092528281526060939092909183018282801561089e5780601f106108735761010080835404028352916020019161089e565b610e016115a1565b6001600160a01b0316826001600160a01b03161415610e67576040805162461bcd60e51b815260206004820152601960248201527f4552433732313a20617070726f766520746f2063616c6c657200000000000000604482015290519081900360640190fd5b8060056000610e746115a1565b6001600160a01b03908116825260208083019390935260409182016000908120918716808252919093529120805460ff191692151592909217909155610eb86115a1565b60408051841515815290516001600160a01b0392909216917f17307eab39ab6107e8899845ad3d59bd9653f200f220920489ca2b5937696c319181900360200190a35050565b600080610f1384610f0e85611619565b611ab3565b90503415611002576040516000906060906001600160a01b0384169034908481818185875af1925050503d8060008114610f69576040519150601f19603f3d011682016040523d82523d6000602084013e610f6e565b606091505b5091509150818190610ffe5760405162461bcd60e51b81526004018080602001828103825283818151815260200191508051906020019080838360005b83811015610fc3578181015183820152602001610fab565b50505050905090810190601f168015610ff05780820380516001836020036101000a031916815260200191505b509250505060405180910390fd5b5050505b600e5460408051632e66628960e21b81526001600160a01b03928316600482015290519183169163b9998a249160248082019260009290919082900301818387803b15801561105057600080fd5b505af1158015611064573d6000803e3d6000fd5b50929695505050505050565b61108161107b6115a1565b8361170d565b6110bc5760405162461bcd60e51b8152600401808060200182810382526031815260200180612a176031913960400191505060405180910390fd5b6110c884848484611cdd565b50505050565b6110d66115a1565b600a546001600160a01b03908116911614611126576040805162461bcd60e51b8152602060048201819052602482015260008051602061297e833981519152604482015290519081900360640190fd5b600e546001600160a01b03161561117a576040805162461bcd60e51b8152602060048201526013602482015272185b1c9958591e481a5b9a5d1a585b1a5e9959606a1b604482015290519081900360640190fd5b600e80546001600160a01b0319166001600160a01b0392909216919091179055565b60606111a78261158e565b6111e25760405162461bcd60e51b815260040180806020018281038252602f8152602001806129c7602f913960400191505060405180910390fd5b60008281526008602090815260409182902080548351601f60026000196101006001861615020190931692909204918201849004840281018401909452808452606093928301828280156112775780601f1061124c57610100808354040283529160200191611277565b820191906000526020600020905b81548152906001019060200180831161125a57829003601f168201915b5050600954939450505050600260001961010060018416150201909116046112a057905061080d565b8051156113715760098160405160200180838054600181600116156101000203166002900480156113085780601f106112e6576101008083540402835291820191611308565b820191906000526020600020905b8154815290600101906020018083116112f4575b5050825160208401908083835b602083106113345780518252601f199092019160209182019101611315565b6001836020036101000a0380198251168184511680821785525050505050509050019250505060405160208183030381529060405291505061080d565b600961137c84611d2f565b60405160200180838054600181600116156101000203166002900480156113da5780601f106113b85761010080835404028352918201916113da565b820191906000526020600020905b8154815290600101906020018083116113c6575b5050825160208401908083835b602083106114065780518252601f1990920191602091820191016113e7565b6001836020036101000a03801982511681845116808217855250505050505090500192505050604051602081830303815290604052915050919050565b600e546001600160a01b031690565b6001600160a01b03918216600090815260056020908152604080832093909416825291909152205460ff1690565b600b546001600160a01b031681565b600d5481565b61149d6115a1565b600a546001600160a01b039081169116146114ed576040805162461bcd60e51b8152602060048201819052602482015260008051602061297e833981519152604482015290519081900360640190fd5b6001600160a01b0381166115325760405162461bcd60e51b815260040180806020018281038252602681526020018061282f6026913960400191505060405180910390fd5b600a546040516001600160a01b038084169216907f8be0079c531659141344cd1fd0a4f28419497f9722a3daafe3b4186f6b6457e090600090a3600a80546001600160a01b0319166001600160a01b0392909216919091179055565b60006109fd60028363ffffffff611e0a16565b6000610a0f611e16565b600081815260046020526040902080546001600160a01b0319166001600160a01b03841690811790915581906115e082610b62565b6001600160a01b03167f8c5be1e5ebec7d5bd14f71427d1e84f3dd0314c0f7b2291e5b200ac8c7c3b92560405160405180910390a45050565b604080513060248201526044808201939093528151808203909301835260640190526020810180516001600160e01b031663189acdbd60e31b17905290565b6000806116f183856040516020018083805190602001908083835b602083106116925780518252601f199092019160209182019101611673565b6001836020036101000a038019825116818451168082178552505050505050905001826001600160a01b03166001600160a01b031660601b81526014019250505060405160208183030381529060405280519060200120600d54611e98565b6001600160a01b0316949350505050565b60006109fd82611ea5565b60006117188261158e565b6117535760405162461bcd60e51b815260040180806020018281038252602c815260200180612879602c913960400191505060405180910390fd5b600061175e83610b62565b9050806001600160a01b0316846001600160a01b031614806117995750836001600160a01b031661178e846108a9565b6001600160a01b0316145b806117a957506117a98185611452565b949350505050565b826001600160a01b03166117c482610b62565b6001600160a01b0316146118095760405162461bcd60e51b815260040180806020018281038252602981526020018061299e6029913960400191505060405180910390fd5b6001600160a01b03821661184e5760405162461bcd60e51b81526004018080602001828103825260248152602001806128556024913960400191505060405180910390fd5b6118598383836109e1565b6118646000826115ab565b6001600160a01b038316600090815260016020526040902061188c908263ffffffff611ea916565b506001600160a01b03821660009081526001602052604090206118b5908263ffffffff611eb516565b506118c86002828463ffffffff611ec116565b5080826001600160a01b0316846001600160a01b03167fddf252ad1be2c89b69c2b068fc378daa952ba7f163c4a11628f55a4df523b3ef60405160405180910390a4505050565b60006109fa8383611ed7565b604080516302571be360e01b81527f91d1777781884d03a6757a803996e38de2a42967fb37eeaca72729271025a9e2600482015290516001600160a01b038416916302571be3916024808301926020929190829003018186803b15801561198157600080fd5b505afa158015611995573d6000803e3d6000fd5b505050506040513d60208110156119ab57600080fd5b505160405163c47f002760e01b81526020600482018181528451602484015284516001600160a01b039094169363c47f002793869383926044909201919085019080838360005b83811015611a0a5781810151838201526020016119f2565b50505050905090810190601f168015611a375780820380516001836020036101000a031916815260200191505b5092505050602060405180830381600087803b158015611a5657600080fd5b505af1158015611a6a573d6000803e3d6000fd5b505050506040513d60208110156110c857600080fd5b6000808080611a8f8686611f3b565b9097909650945050505050565b6000611aa9848484611fb6565b90505b9392505050565b600080611be6600084866040516020018083805190602001908083835b60208310611aef5780518252601f199092019160209182019101611ad0565b6001836020036101000a038019825116818451168082178552505050505050905001826001600160a01b03166001600160a01b031660601b81526014019250505060405160208183030381529060405280519060200120600c8054600181600116156101000203166002900480601f016020809104026020016040519081016040528092919081815260200182805460018160011615610100020316600290048015611bdc5780601f10611bb157610100808354040283529160200191611bdc565b820191906000526020600020905b815481529060010190602001808311611bbf57829003601f168201915b5050505050612043565b600b546040805163347d5e2560e21b81526001600160a01b0392831660048201818152602483019384528851604484015288519596509386169463d1f5789494919389939091606490910190602085019080838360005b83811015611c55578181015183820152602001611c3d565b50505050905090810190601f168015611c825780820380516001836020036101000a031916815260200191505b509350505050600060405180830381600087803b158015611ca257600080fd5b505af1158015611cb6573d6000803e3d6000fd5b50505050611ccd84826001600160a01b0316612154565b6001600160a01b03169392505050565b611ce88484846117b1565b611cf48484848461228e565b6110c85760405162461bcd60e51b81526004018080602001828103825260328152602001806127fd6032913960400191505060405180910390fd5b606081611d5457506040805180820190915260018152600360fc1b602082015261080d565b8160005b8115611d6c57600101600a82049150611d58565b60608167ffffffffffffffff81118015611d8557600080fd5b506040519080825280601f01601f191660200182016040528015611db0576020820181803683370190505b50859350905060001982015b8315611e0157600a840660300160f81b82828060019003935081518110611ddf57fe5b60200101906001600160f81b031916908160001a905350600a84049350611dbc565b50949350505050565b60006109fa83836124c9565b600060183610801590611e415750611e2c611443565b6001600160a01b0316336001600160a01b0316145b15611e9357611e8c6000368080601f01602080910402602001604051908101604052809392919081815260200183838082843760009201919091525050601319360191506124e19050565b90506108a6565b503390565b60006109fa838330612519565b5490565b60006109fa838361257d565b60006109fa8383612643565b6000611aa984846001600160a01b03851661268d565b81546000908210611f195760405162461bcd60e51b81526004018080602001828103825260228152602001806127db6022913960400191505060405180910390fd5b826000018281548110611f2857fe5b9060005260206000200154905092915050565b815460009081908310611f7f5760405162461bcd60e51b81526004018080602001828103825260228152602001806129306022913960400191505060405180910390fd5b6000846000018481548110611f9057fe5b906000526020600020906002020190508060000154816001015492509250509250929050565b600082815260018401602052604081205482816120145760405162461bcd60e51b8152602060048201818152835160248401528351909283926044909101919085019080838360008315610fc3578181015183820152602001610fab565b5084600001600182038154811061202757fe5b9060005260206000209060020201600101549150509392505050565b6000808447101561209b576040805162461bcd60e51b815260206004820152601d60248201527f437265617465323a20696e73756666696369656e742062616c616e6365000000604482015290519081900360640190fd5b82516120ee576040805162461bcd60e51b815260206004820181905260248201527f437265617465323a2062797465636f6465206c656e677468206973207a65726f604482015290519081900360640190fd5b8383516020850187f590506001600160a01b038116611aa9576040805162461bcd60e51b815260206004820152601960248201527f437265617465323a204661696c6564206f6e206465706c6f7900000000000000604482015290519081900360640190fd5b6001600160a01b0382166121af576040805162461bcd60e51b815260206004820181905260248201527f4552433732313a206d696e7420746f20746865207a65726f2061646472657373604482015290519081900360640190fd5b6121b88161158e565b1561220a576040805162461bcd60e51b815260206004820152601c60248201527f4552433732313a20746f6b656e20616c7265616479206d696e74656400000000604482015290519081900360640190fd5b612216600083836109e1565b6001600160a01b038216600090815260016020526040902061223e908263ffffffff611eb516565b506122516002828463ffffffff611ec116565b5060405181906001600160a01b038416906000907fddf252ad1be2c89b69c2b068fc378daa952ba7f163c4a11628f55a4df523b3ef908290a45050565b60006122a2846001600160a01b0316612724565b6122ae575060016117a9565b600060606001600160a01b038616630a85bd0160e11b6122cc6115a1565b89888860405160240180856001600160a01b03166001600160a01b03168152602001846001600160a01b03166001600160a01b0316815260200183815260200180602001828103825283818151815260200191508051906020019080838360005b8381101561234557818101518382015260200161232d565b50505050905090810190601f1680156123725780820380516001836020036101000a031916815260200191505b5060408051601f198184030181529181526020820180516001600160e01b03166001600160e01b0319909a16999099178952518151919890975087965094509250829150849050835b602083106123da5780518252601f1990920191602091820191016123bb565b6001836020036101000a0380198251168184511680821785525050505050509050019150506000604051808303816000865af19150503d806000811461243c576040519150601f19603f3d011682016040523d82523d6000602084013e612441565b606091505b5091509150816124925780511561245b5780518082602001fd5b60405162461bcd60e51b81526004018080602001828103825260328152602001806127fd6032913960400191505060405180910390fd5b60008180602001905160208110156124a957600080fd5b50516001600160e01b031916630a85bd0160e11b1493506117a992505050565b60009081526001919091016020526040902054151590565b6000816014018351101561250757612507612502600485518560140161275d565b6127d2565b5001601401516001600160a01b031690565b604080516001600160f81b031960208083019190915260609390931b6bffffffffffffffffffffffff19166021820152603581019490945260558085019390935280518085039093018352607590930190925280519101206001600160a01b031690565b6000818152600183016020526040812054801561263957835460001980830191908101906000908790839081106125b057fe5b90600052602060002001549050808760000184815481106125cd57fe5b6000918252602080832090910192909255828152600189810190925260409020908401905586548790806125fd57fe5b600190038181906000526020600020016000905590558660010160008781526020019081526020016000206000905560019450505050506109fd565b60009150506109fd565b600061264f83836124c9565b612685575081546001818101845560008481526020808220909301849055845484825282860190935260409020919091556109fd565b5060006109fd565b6000828152600184016020526040812054806126f2575050604080518082018252838152602080820184815286546001818101895560008981528481209551600290930290950191825591519082015586548684528188019092529290912055611aac565b8285600001600183038154811061270557fe5b9060005260206000209060020201600101819055506000915050611aac565b6000813f7fc5d2460186f7233c927e7db2dcc703c0e500b653ca82273b7bfad8045d85a4708181148015906117a9575050151592915050565b6060632800659560e01b8484846040516024018084600781111561277d57fe5b60ff1681526020018381526020018281526020019350505050604051602081830303815290604052906001600160e01b0319166020820180516001600160e01b03838183161783525050505090509392505050565b805160208201fdfe456e756d657261626c655365743a20696e646578206f7574206f6620626f756e64734552433732313a207472616e7366657220746f206e6f6e20455243373231526563656976657220696d706c656d656e7465724f776e61626c653a206e6577206f776e657220697320746865207a65726f20616464726573734552433732313a207472616e7366657220746f20746865207a65726f20616464726573734552433732313a206f70657261746f7220717565727920666f72206e6f6e6578697374656e7420746f6b656e4552433732313a20617070726f76652063616c6c6572206973206e6f74206f776e6572206e6f7220617070726f76656420666f7220616c6c4552433732313a2062616c616e636520717565727920666f7220746865207a65726f20616464726573734552433732313a206f776e657220717565727920666f72206e6f6e6578697374656e7420746f6b656e456e756d657261626c654d61703a20696e646578206f7574206f6620626f756e64734552433732313a20617070726f76656420717565727920666f72206e6f6e6578697374656e7420746f6b656e4f776e61626c653a2063616c6c6572206973206e6f7420746865206f776e65724552433732313a207472616e73666572206f6620746f6b656e2074686174206973206e6f74206f776e4552433732314d657461646174613a2055524920717565727920666f72206e6f6e6578697374656e7420746f6b656e4552433732313a20617070726f76616c20746f2063757272656e74206f776e65724552433732313a207472616e736665722063616c6c6572206973206e6f74206f776e6572206e6f7220617070726f766564a2646970667358221220943d8aee29111b3664ba9eafb9fa2c1c9b5508b4196d4bb509fadcda2223b13364736f6c6343000606003360806040526110e1806100136000396000f3fe608060405234801561001057600080fd5b50600436106100a85760003560e01c80638da5cb5b116100715780638da5cb5b14610126578063aef056291461012e578063b9998a2414610141578063c4d66de814610154578063ce1b815f14610167578063d7f31eb91461016f576100a8565b806223de29146100ad578063150b7a02146100c25780631626ba7e146100eb57806320c13b0b146100fe5780637b10399914610111575b600080fd5b6100c06100bb366004610b5e565b610182565b005b6100d56100d0366004610bff565b61018a565b6040516100e29190610ed5565b60405180910390f35b6100d56100f9366004610d2f565b61019b565b6100d561010c366004610da1565b6102b7565b6101196103e9565b6040516100e29190610e80565b6101196103f8565b6100c061013c366004610cc3565b61047f565b6100c061014f366004610b26565b610596565b6100c0610162366004610b26565b610617565b6101196106a7565b6100c061017d366004610c69565b6106b6565b505050505050565b630a85bd0160e11b5b949350505050565b6000806101a66103f8565b90506101ba816001600160a01b031661073c565b1561024757604051630b135d3f60e11b81526001600160a01b03821690631626ba7e906101ef90889088908890600401610e94565b60206040518083038186803b15801561020757600080fd5b505afa15801561021b573d6000803e3d6000fd5b505050506040513d601f19601f8201168201806040525081019061023f9190610d79565b9150506102b0565b6102878585858080601f01602080910402602001604051908101604052809392919081815260200183838082843760009201919091525061077592505050565b6001600160a01b0316816001600160a01b0316146102a457600080fd5b50630b135d3f60e11b90505b9392505050565b6000806102c26103f8565b90506102d6816001600160a01b031661073c565b15610365576040516320c13b0b60e01b81526001600160a01b038216906320c13b0b9061030d908990899089908990600401610eea565b60206040518083038186803b15801561032557600080fd5b505afa158015610339573d6000803e3d6000fd5b505050506040513d601f19601f8201168201806040525081019061035d9190610d79565b915050610193565b6103bc8686604051610378929190610e54565b604051809103902085858080601f01602080910402602001604051908101604052809392919081815260200183838082843760009201919091525061077592505050565b6001600160a01b0316816001600160a01b0316146103d957600080fd5b506320c13b0b60e01b9050610193565b6000546001600160a01b031681565b600080546040516331a9108f60e11b81526001600160a01b0390911690636352211e90610429903090600401610fec565b60206040518083038186803b15801561044157600080fd5b505afa158015610455573d6000803e3d6000fd5b505050506040513d601f19601f820116820180604052508101906104799190610b42565b90505b90565b61048761086c565b6001600160a01b03166104986103f8565b6001600160a01b0316146104c75760405162461bcd60e51b81526004016104be90610f7e565b60405180910390fd5b60005b81811015610591576105898383838181106104e157fe5b90506020028101906104f39190611055565b610501906020810190610b26565b84848481811061050d57fe5b905060200281019061051f9190611055565b6020013585858581811061052f57fe5b90506020028101906105419190611055565b61054f90604081019061100e565b8080601f01602080910402602001604051908101604052809392919081815260200183838082843760009201919091525061087692505050565b6001016104ca565b505050565b61059e61086c565b6001600160a01b03166105af6103f8565b6001600160a01b031614806105d957506105c761086c565b6000546001600160a01b039081169116145b6105f55760405162461bcd60e51b81526004016104be90610f7e565b600180546001600160a01b0319166001600160a01b0392909216919091179055565b6000546001600160a01b0316156106405760405162461bcd60e51b81526004016104be90610f51565b600080546001600160a01b0319166001600160a01b03831617905547156106a45760006001600160a01b03167f88a5966d370b9919b20f3e2c13ff65706f196a4e32cc2c12bf57088f885258744760405161069b9190610fec565b60405180910390a25b50565b6001546001600160a01b031690565b6106be61086c565b6001600160a01b03166106cf6103f8565b6001600160a01b0316146106f55760405162461bcd60e51b81526004016104be90610f7e565b610736848484848080601f01602080910402602001604051908101604052809392919081815260200183838082843760009201919091525061087692505050565b50505050565b6000813f7fc5d2460186f7233c927e7db2dcc703c0e500b653ca82273b7bfad8045d85a470818114801590610193575050151592915050565b60008060008084516041141561079f5750505060208201516040830151606084015160001a6107e4565b8451604014156107cc57505050602082015160408301516001600160ff1b0381169060001a60071c6107e4565b60405162461bcd60e51b81526004016104be90610fb5565b601b8160ff1610156107f457601b015b8060ff16601b148061080957508060ff16601c145b61081257600080fd5b600186828585604051600081526020016040526040516108359493929190610eb7565b6020604051602081039080840390855afa158015610857573d6000803e3d6000fd5b5050604051601f190151979650505050505050565b6000610479610945565b60006060846001600160a01b031684846040516108939190610e64565b60006040518083038185875af1925050503d80600081146108d0576040519150601f19603f3d011682016040523d82523d6000602084013e6108d5565b606091505b50915091508181906108fa5760405162461bcd60e51b81526004016104be9190610f3e565b50846001600160a01b03167fcaf938de11c367272220bfd1d2baa99ca46665e7bc4d85f00adb51b90fe1fa9f8585604051610936929190610ff5565b60405180910390a25050505050565b600060183610801590610970575061095b6106a7565b6001600160a01b0316336001600160a01b0316145b156109c2576109bb6000368080601f01602080910402602001604051908101604052809392919081815260200183838082843760009201919091525050601319360191506109c79050565b905061047c565b503390565b600081601401835110156109ed576109ed6109e860048551856014016109ff565b610a59565b5001601401516001600160a01b031690565b6060632800659560e01b848484604051602401610a1e93929190610f1c565b60408051601f198184030181529190526020810180516001600160e01b03166001600160e01b03199093169290921790915290509392505050565b805160208201fd5b60008083601f840112610a72578182fd5b50813567ffffffffffffffff811115610a89578182fd5b602083019150836020828501011115610aa157600080fd5b9250929050565b600082601f830112610ab8578081fd5b813567ffffffffffffffff80821115610acf578283fd5b604051601f8301601f191681016020018281118282101715610aef578485fd5b604052828152925082848301602001861015610b0a57600080fd5b8260208601602083013760006020848301015250505092915050565b600060208284031215610b37578081fd5b81356102b081611096565b600060208284031215610b53578081fd5b81516102b081611096565b60008060008060008060c08789031215610b76578182fd5b8635610b8181611096565b95506020870135610b9181611096565b94506040870135610ba181611096565b935060608701359250608087013567ffffffffffffffff80821115610bc4578384fd5b610bd08a838b01610aa8565b935060a0890135915080821115610be5578283fd5b50610bf289828a01610aa8565b9150509295509295509295565b60008060008060808587031215610c14578384fd5b8435610c1f81611096565b93506020850135610c2f81611096565b925060408501359150606085013567ffffffffffffffff811115610c51578182fd5b610c5d87828801610aa8565b91505092959194509250565b60008060008060608587031215610c7e578384fd5b8435610c8981611096565b935060208501359250604085013567ffffffffffffffff811115610cab578283fd5b610cb787828801610a61565b95989497509550505050565b60008060208385031215610cd5578182fd5b823567ffffffffffffffff80821115610cec578384fd5b81850186601f820112610cfd578485fd5b8035925081831115610d0d578485fd5b8660208085028301011115610d20578485fd5b60200196919550909350505050565b600080600060408486031215610d43578283fd5b83359250602084013567ffffffffffffffff811115610d60578283fd5b610d6c86828701610a61565b9497909650939450505050565b600060208284031215610d8a578081fd5b81516001600160e01b0319811681146102b0578182fd5b60008060008060408587031215610db6578384fd5b843567ffffffffffffffff80821115610dcd578586fd5b610dd988838901610a61565b90965094506020870135915080821115610df1578384fd5b50610cb787828801610a61565b60008284528282602086013780602084860101526020601f19601f85011685010190509392505050565b60008151808452610e4081602086016020860161106a565b601f01601f19169290920160200192915050565b6000828483379101908152919050565b60008251610e7681846020870161106a565b9190910192915050565b6001600160a01b0391909116815260200190565b600084825260406020830152610eae604083018486610dfe565b95945050505050565b93845260ff9290921660208401526040830152606082015260800190565b6001600160e01b031991909116815260200190565b600060408252610efe604083018688610dfe565b8281036020840152610f11818587610dfe565b979650505050505050565b6060810160088510610f2a57fe5b938152602081019290925260409091015290565b6000602082526102b06020830184610e28565b602080825260139082015272185b1c9958591e481a5b9a5d1a585b1a5e9959606a1b604082015260600190565b60208082526018908201527f63616c6c6572206973206e6f7420617574686f72697a65640000000000000000604082015260600190565b60208082526018908201527f696e76616c69642d7369676e61747572652d666f726d61740000000000000000604082015260600190565b90815260200190565b6000838252604060208301526101936040830184610e28565b6000808335601e19843603018112611024578283fd5b8084018035925067ffffffffffffffff83111561103f578384fd5b60200192505036819003821315610aa157600080fd5b60008235605e19833603018112610e76578182fd5b60005b8381101561108557818101518382015260200161106d565b838111156107365750506000910152565b6001600160a01b03811681146106a457600080fdfea26469706673582212202067d855914c75cc65a00e87fde4a1fc21655985e3dc1f46694052c8b71343eb64736f6c63430006060033608060405234801561001057600080fd5b506103dd806100206000396000f3fe6080604052600436106100225760003560e01c8063d1f57894146100695761005f565b3661005f5760408051348152905133917f88a5966d370b9919b20f3e2c13ff65706f196a4e32cc2c12bf57088f88525874919081900360200190a2005b61006761011f565b005b6100676004803603604081101561007f57600080fd5b6001600160a01b0382351691908101906040810160208201356401000000008111156100aa57600080fd5b8201836020820111156100bc57600080fd5b803590602001918460018302840111640100000000831117156100de57600080fd5b91908080601f016020809104026020016040519081016040528093929190818152602001838380828437600092019190915250929550610139945050505050565b610127610137565b61013761013261025c565b610281565b565b600061014361025c565b6001600160a01b03161461015657600080fd5b60405180602361034a82396040519081900360230190207f7050c9e0f4ca769c69bd3a8ef740bc37934f8e2c036e5a723fd8ee048ed3f8c314905061019757fe5b6101a0826102a5565b805115610258576000826001600160a01b0316826040518082805190602001908083835b602083106101e35780518252601f1990920191602091820191016101c4565b6001836020036101000a038019825116818451168082178552505050505050905001915050600060405180830381855af49150503d8060008114610243576040519150601f19603f3d011682016040523d82523d6000602084013e610248565b606091505b505090508061025657600080fd5b505b5050565b7f7050c9e0f4ca769c69bd3a8ef740bc37934f8e2c036e5a723fd8ee048ed3f8c35490565b3660008037600080366000845af43d6000803e8080156102a0573d6000f35b3d6000fd5b6102ae8161030d565b6102e95760405162461bcd60e51b815260040180806020018281038252603b81526020018061036d603b913960400191505060405180910390fd5b7f7050c9e0f4ca769c69bd3a8ef740bc37934f8e2c036e5a723fd8ee048ed3f8c355565b6000813f7fc5d2460186f7233c927e7db2dcc703c0e500b653ca82273b7bfad8045d85a47081811480159061034157508115155b94935050505056fe6f72672e7a657070656c696e6f732e70726f78792e696d706c656d656e746174696f6e43616e6e6f742073657420612070726f787920696d706c656d656e746174696f6e20746f2061206e6f6e2d636f6e74726163742061646472657373a2646970667358221220128c4a9fd31464cd42832cf1bbd4841e3bb00675f1001390b859f01e8440fa4964736f6c63430006060033",
  "immutableReferences": {},
  "source": "pragma solidity ^0.6.0;\n\nimport \"@iexec/solidity/contracts/ENStools/ENSReverseRegistration.sol\";\nimport \"@opengsn/gsn/contracts/BaseRelayRecipient.sol\";\nimport \"./core/CounterfactualTokenRegistry.sol\";\nimport \"./NFWallet.sol\";\n\n\ncontract NFWalletFactory is\n\tCounterfactualTokenRegistry,\n\tBaseRelayRecipient,\n\tENSReverseRegistration\n{\n\tconstructor()\n\tpublic CounterfactualTokenRegistry(\n\t\taddress(new NFWallet()),\n\t\t'NonFungibleWallet',\n\t\t'NFW')\n\t{\n\t}\n\n\tfunction initialize(address _trustedForwarder)\n\tpublic onlyOwner()\n\t{\n\t\trequire(trustedForwarder == address(0), 'already initialized');\n\t\ttrustedForwarder = _trustedForwarder;\n\t}\n\n\tfunction _msgSender()\n\tinternal view override(Context, BaseRelayRecipient) returns (address payable sender)\n\t{\n\t\treturn BaseRelayRecipient._msgSender();\n\t}\n\n\tfunction encodeInitializer(bytes32 _salt)\n\tinternal view returns (bytes memory)\n\t{\n\t\treturn abi.encodeWithSignature('initialize(address)', address(this), _salt);\n\t}\n\n\tfunction createWallet(address _owner, bytes32 _salt)\n\texternal payable returns (address)\n\t{\n\t\t// instanciate\n\t\taddress wallet = address(_mintCreate(_owner, encodeInitializer(_salt)));\n\t\t// send value\n\t\tif (msg.value > 0)\n\t\t{\n\t\t\t(bool success, bytes memory returndata) = payable(wallet).call{value: msg.value}('');\n\t\t\trequire(success, string(returndata));\n\t\t}\n\t\t// configure gsn (trustedForwarder might change between networks)\n\t\tNFWallet(wallet).setForwarder(trustedForwarder);\n\t\t// return address\n\t\treturn wallet;\n\t}\n\n\tfunction predictWallet(address _owner, bytes32 _salt)\n\texternal view returns (address)\n\t{\n\t\treturn address(_mintPredict(_owner, encodeInitializer(_salt)));\n\t}\n\n\tfunction setName(address _ens, string calldata _name)\n\texternal onlyOwner()\n\t{\n\t\t_setName(ENS(_ens), _name);\n\t}\n}\n",
  "sourcePath": "/home/amxx/Work/Projects/NFWallets/solidity/contracts/NFWalletFactory.sol",
  "compiler": {
    "name": "solc",
    "version": "0.6.6+commit.6c089d02.Emscripten.clang"
  },
  "schemaVersion": "3.1.0",
  "updatedAt": "2020-05-21T15:12:57.323Z",
  "networkType": "ethereum",
  "devdoc": {
    "methods": {
      "approve(address,uint256)": {
        "details": "Approves another address to transfer the given token ID The zero address indicates there is no approved address. There can only be one approved address per token at a given time. Can only be called by the token owner or an approved operator.",
        "params": {
          "to": "address to be approved for the given token ID",
          "tokenId": "uint256 ID of the token to be approved"
        }
      },
      "balanceOf(address)": {
        "details": "Gets the balance of the specified address.",
        "params": {
          "owner": "address to query the balance of"
        },
        "returns": {
          "_0": "uint256 representing the amount owned by the passed address"
        }
      },
      "baseURI()": {
        "details": "Returns the base URI set via {_setBaseURI}. This will be automatically added as a prefix in {tokenURI} to each token's URI, or to the token ID if no specific URI is set for that token ID."
      },
      "getApproved(uint256)": {
        "details": "Gets the approved address for a token ID, or zero if no address set Reverts if the token ID does not exist.",
        "params": {
          "tokenId": "uint256 ID of the token to query the approval of"
        },
        "returns": {
          "_0": "address currently approved for the given token ID"
        }
      },
      "isApprovedForAll(address,address)": {
        "details": "Tells whether an operator is approved by a given owner.",
        "params": {
          "operator": "operator address which you want to query the approval of",
          "owner": "owner address which you want to query the approval of"
        },
        "returns": {
          "_0": "bool whether the given operator is approved by the given owner"
        }
      },
      "name()": {
        "details": "Gets the token name.",
        "returns": {
          "_0": "string representing the token name"
        }
      },
      "owner()": {
        "details": "Returns the address of the current owner."
      },
      "ownerOf(uint256)": {
        "details": "Gets the owner of the specified token ID.",
        "params": {
          "tokenId": "uint256 ID of the token to query the owner of"
        },
        "returns": {
          "_0": "address currently marked as the owner of the given token ID"
        }
      },
      "renounceOwnership()": {
        "details": "Leaves the contract without owner. It will not be possible to call `onlyOwner` functions anymore. Can only be called by the current owner.     * NOTE: Renouncing ownership will leave the contract without an owner, thereby removing any functionality that is only available to the owner."
      },
      "safeTransferFrom(address,address,uint256)": {
        "details": "Safely transfers the ownership of a given token ID to another address If the target address is a contract, it must implement {IERC721Receiver-onERC721Received}, which is called upon a safe transfer, and return the magic value `bytes4(keccak256(\"onERC721Received(address,address,uint256,bytes)\"))`; otherwise, the transfer is reverted. Requires the msg.sender to be the owner, approved, or operator",
        "params": {
          "from": "current owner of the token",
          "to": "address to receive the ownership of the given token ID",
          "tokenId": "uint256 ID of the token to be transferred"
        }
      },
      "safeTransferFrom(address,address,uint256,bytes)": {
        "details": "Safely transfers the ownership of a given token ID to another address If the target address is a contract, it must implement {IERC721Receiver-onERC721Received}, which is called upon a safe transfer, and return the magic value `bytes4(keccak256(\"onERC721Received(address,address,uint256,bytes)\"))`; otherwise, the transfer is reverted. Requires the _msgSender() to be the owner, approved, or operator",
        "params": {
          "_data": "bytes data to send along with a safe transfer check",
          "from": "current owner of the token",
          "to": "address to receive the ownership of the given token ID",
          "tokenId": "uint256 ID of the token to be transferred"
        }
      },
      "setApprovalForAll(address,bool)": {
        "details": "Sets or unsets the approval of a given operator An operator is allowed to transfer all tokens of the sender on their behalf.",
        "params": {
          "approved": "representing the status of the approval to be set",
          "operator": "operator address to set the approval"
        }
      },
      "supportsInterface(bytes4)": {
        "details": "See {IERC165-supportsInterface}.     * Time complexity O(1), guaranteed to always use less than 30 000 gas."
      },
      "symbol()": {
        "details": "Gets the token symbol.",
        "returns": {
          "_0": "string representing the token symbol"
        }
      },
      "tokenByIndex(uint256)": {
        "details": "Gets the token ID at a given index of all the tokens in this contract Reverts if the index is greater or equal to the total number of tokens.",
        "params": {
          "index": "uint256 representing the index to be accessed of the tokens list"
        },
        "returns": {
          "_0": "uint256 token ID at the given index of the tokens list"
        }
      },
      "tokenOfOwnerByIndex(address,uint256)": {
        "details": "Gets the token ID at a given index of the tokens list of the requested owner.",
        "params": {
          "index": "uint256 representing the index to be accessed of the requested tokens list",
          "owner": "address owning the tokens list to be accessed"
        },
        "returns": {
          "_0": "uint256 token ID at the given index of the tokens list owned by the requested address"
        }
      },
      "tokenURI(uint256)": {
        "details": "Returns the URI for a given token ID. May return an empty string.     * If a base URI is set (via {_setBaseURI}), it is added as a prefix to the token's own URI (via {_setTokenURI}).     * If there is a base URI but no token URI, the token's ID will be used as its URI when appending it to the base URI. This pattern for autogenerated token URIs can lead to large gas savings.     * .Examples |=== |`_setBaseURI()` |`_setTokenURI()` |`tokenURI()` | \"\" | \"\" | \"\" | \"\" | \"token.uri/123\" | \"token.uri/123\" | \"token.uri/\" | \"123\" | \"token.uri/123\" | \"token.uri/\" | \"\" | \"token.uri/<tokenId>\" |===     * Requirements:     * - `tokenId` must exist."
      },
      "totalSupply()": {
        "details": "Gets the total amount of tokens stored by the contract.",
        "returns": {
          "_0": "uint256 representing the total amount of tokens"
        }
      },
      "transferFrom(address,address,uint256)": {
        "details": "Transfers the ownership of a given token ID to another address. Usage of this method is discouraged, use {safeTransferFrom} whenever possible. Requires the msg.sender to be the owner, approved, or operator.",
        "params": {
          "from": "current owner of the token",
          "to": "address to receive the ownership of the given token ID",
          "tokenId": "uint256 ID of the token to be transferred"
        }
      },
      "transferOwnership(address)": {
        "details": "Transfers ownership of the contract to a new account (`newOwner`). Can only be called by the current owner."
      }
    }
  },
  "userdoc": {
    "methods": {}
  }
}