{
  "contractName": "NFWallet",
  "abi": [
    {
      "anonymous": false,
      "inputs": [
        {
          "indexed": true,
          "internalType": "address",
          "name": "to",
          "type": "address"
        },
        {
          "indexed": false,
          "internalType": "uint256",
          "name": "value",
          "type": "uint256"
        },
        {
          "indexed": false,
          "internalType": "bytes",
          "name": "data",
          "type": "bytes"
        }
      ],
      "name": "Executed",
      "type": "event"
    },
    {
      "anonymous": false,
      "inputs": [
        {
          "indexed": true,
          "internalType": "address",
          "name": "from",
          "type": "address"
        },
        {
          "indexed": false,
          "internalType": "uint256",
          "name": "value",
          "type": "uint256"
        }
      ],
      "name": "Received",
      "type": "event"
    },
    {
      "inputs": [],
      "name": "getTrustedForwarder",
      "outputs": [
        {
          "internalType": "address",
          "name": "",
          "type": "address"
        }
      ],
      "stateMutability": "view",
      "type": "function"
    },
    {
      "inputs": [
        {
          "internalType": "address",
          "name": "_registry",
          "type": "address"
        }
      ],
      "name": "initialize",
      "outputs": [],
      "stateMutability": "nonpayable",
      "type": "function"
    },
    {
      "inputs": [],
      "name": "owner",
      "outputs": [
        {
          "internalType": "address",
          "name": "",
          "type": "address"
        }
      ],
      "stateMutability": "view",
      "type": "function"
    },
    {
      "inputs": [],
      "name": "registry",
      "outputs": [
        {
          "internalType": "contract IERC721",
          "name": "",
          "type": "address"
        }
      ],
      "stateMutability": "view",
      "type": "function"
    },
    {
      "inputs": [
        {
          "internalType": "address",
          "name": "_trustedForwarder",
          "type": "address"
        }
      ],
      "name": "setForwarder",
      "outputs": [],
      "stateMutability": "nonpayable",
      "type": "function"
    },
    {
      "inputs": [
        {
          "internalType": "address",
          "name": "to",
          "type": "address"
        },
        {
          "internalType": "uint256",
          "name": "value",
          "type": "uint256"
        },
        {
          "internalType": "bytes",
          "name": "data",
          "type": "bytes"
        }
      ],
      "name": "forward",
      "outputs": [],
      "stateMutability": "nonpayable",
      "type": "function"
    },
    {
      "inputs": [
        {
          "components": [
            {
              "internalType": "address",
              "name": "to",
              "type": "address"
            },
            {
              "internalType": "uint256",
              "name": "value",
              "type": "uint256"
            },
            {
              "internalType": "bytes",
              "name": "data",
              "type": "bytes"
            }
          ],
          "internalType": "struct Call[]",
          "name": "calls",
          "type": "tuple[]"
        }
      ],
      "name": "forwardBatch",
      "outputs": [],
      "stateMutability": "nonpayable",
      "type": "function"
    },
    {
      "inputs": [
        {
          "internalType": "address",
          "name": "",
          "type": "address"
        },
        {
          "internalType": "address",
          "name": "",
          "type": "address"
        },
        {
          "internalType": "uint256",
          "name": "",
          "type": "uint256"
        },
        {
          "internalType": "bytes",
          "name": "",
          "type": "bytes"
        }
      ],
      "name": "onERC721Received",
      "outputs": [
        {
          "internalType": "bytes4",
          "name": "",
          "type": "bytes4"
        }
      ],
      "stateMutability": "nonpayable",
      "type": "function"
    },
    {
      "inputs": [
        {
          "internalType": "address",
          "name": "",
          "type": "address"
        },
        {
          "internalType": "address",
          "name": "",
          "type": "address"
        },
        {
          "internalType": "address",
          "name": "",
          "type": "address"
        },
        {
          "internalType": "uint256",
          "name": "",
          "type": "uint256"
        },
        {
          "internalType": "bytes",
          "name": "",
          "type": "bytes"
        },
        {
          "internalType": "bytes",
          "name": "",
          "type": "bytes"
        }
      ],
      "name": "tokensReceived",
      "outputs": [],
      "stateMutability": "nonpayable",
      "type": "function"
    },
    {
      "inputs": [
        {
          "internalType": "bytes32",
          "name": "data",
          "type": "bytes32"
        },
        {
          "internalType": "bytes",
          "name": "signature",
          "type": "bytes"
        }
      ],
      "name": "isValidSignature",
      "outputs": [
        {
          "internalType": "bytes4",
          "name": "magicValue",
          "type": "bytes4"
        }
      ],
      "stateMutability": "view",
      "type": "function"
    },
    {
      "inputs": [
        {
          "internalType": "bytes",
          "name": "data",
          "type": "bytes"
        },
        {
          "internalType": "bytes",
          "name": "signature",
          "type": "bytes"
        }
      ],
      "name": "isValidSignature",
      "outputs": [
        {
          "internalType": "bytes4",
          "name": "magicValue",
          "type": "bytes4"
        }
      ],
      "stateMutability": "view",
      "type": "function"
    }
  ],
  "bytecode": "0x60806040526110e1806100136000396000f3fe608060405234801561001057600080fd5b50600436106100a85760003560e01c80638da5cb5b116100715780638da5cb5b14610126578063aef056291461012e578063b9998a2414610141578063c4d66de814610154578063ce1b815f14610167578063d7f31eb91461016f576100a8565b806223de29146100ad578063150b7a02146100c25780631626ba7e146100eb57806320c13b0b146100fe5780637b10399914610111575b600080fd5b6100c06100bb366004610b5e565b610182565b005b6100d56100d0366004610bff565b61018a565b6040516100e29190610ed5565b60405180910390f35b6100d56100f9366004610d2f565b61019b565b6100d561010c366004610da1565b6102b7565b6101196103e9565b6040516100e29190610e80565b6101196103f8565b6100c061013c366004610cc3565b61047f565b6100c061014f366004610b26565b610596565b6100c0610162366004610b26565b610617565b6101196106a7565b6100c061017d366004610c69565b6106b6565b505050505050565b630a85bd0160e11b5b949350505050565b6000806101a66103f8565b90506101ba816001600160a01b031661073c565b1561024757604051630b135d3f60e11b81526001600160a01b03821690631626ba7e906101ef90889088908890600401610e94565b60206040518083038186803b15801561020757600080fd5b505afa15801561021b573d6000803e3d6000fd5b505050506040513d601f19601f8201168201806040525081019061023f9190610d79565b9150506102b0565b6102878585858080601f01602080910402602001604051908101604052809392919081815260200183838082843760009201919091525061077592505050565b6001600160a01b0316816001600160a01b0316146102a457600080fd5b50630b135d3f60e11b90505b9392505050565b6000806102c26103f8565b90506102d6816001600160a01b031661073c565b15610365576040516320c13b0b60e01b81526001600160a01b038216906320c13b0b9061030d908990899089908990600401610eea565b60206040518083038186803b15801561032557600080fd5b505afa158015610339573d6000803e3d6000fd5b505050506040513d601f19601f8201168201806040525081019061035d9190610d79565b915050610193565b6103bc8686604051610378929190610e54565b604051809103902085858080601f01602080910402602001604051908101604052809392919081815260200183838082843760009201919091525061077592505050565b6001600160a01b0316816001600160a01b0316146103d957600080fd5b506320c13b0b60e01b9050610193565b6000546001600160a01b031681565b600080546040516331a9108f60e11b81526001600160a01b0390911690636352211e90610429903090600401610fec565b60206040518083038186803b15801561044157600080fd5b505afa158015610455573d6000803e3d6000fd5b505050506040513d601f19601f820116820180604052508101906104799190610b42565b90505b90565b61048761086c565b6001600160a01b03166104986103f8565b6001600160a01b0316146104c75760405162461bcd60e51b81526004016104be90610f7e565b60405180910390fd5b60005b81811015610591576105898383838181106104e157fe5b90506020028101906104f39190611055565b610501906020810190610b26565b84848481811061050d57fe5b905060200281019061051f9190611055565b6020013585858581811061052f57fe5b90506020028101906105419190611055565b61054f90604081019061100e565b8080601f01602080910402602001604051908101604052809392919081815260200183838082843760009201919091525061087692505050565b6001016104ca565b505050565b61059e61086c565b6001600160a01b03166105af6103f8565b6001600160a01b031614806105d957506105c761086c565b6000546001600160a01b039081169116145b6105f55760405162461bcd60e51b81526004016104be90610f7e565b600180546001600160a01b0319166001600160a01b0392909216919091179055565b6000546001600160a01b0316156106405760405162461bcd60e51b81526004016104be90610f51565b600080546001600160a01b0319166001600160a01b03831617905547156106a45760006001600160a01b03167f88a5966d370b9919b20f3e2c13ff65706f196a4e32cc2c12bf57088f885258744760405161069b9190610fec565b60405180910390a25b50565b6001546001600160a01b031690565b6106be61086c565b6001600160a01b03166106cf6103f8565b6001600160a01b0316146106f55760405162461bcd60e51b81526004016104be90610f7e565b610736848484848080601f01602080910402602001604051908101604052809392919081815260200183838082843760009201919091525061087692505050565b50505050565b6000813f7fc5d2460186f7233c927e7db2dcc703c0e500b653ca82273b7bfad8045d85a470818114801590610193575050151592915050565b60008060008084516041141561079f5750505060208201516040830151606084015160001a6107e4565b8451604014156107cc57505050602082015160408301516001600160ff1b0381169060001a60071c6107e4565b60405162461bcd60e51b81526004016104be90610fb5565b601b8160ff1610156107f457601b015b8060ff16601b148061080957508060ff16601c145b61081257600080fd5b600186828585604051600081526020016040526040516108359493929190610eb7565b6020604051602081039080840390855afa158015610857573d6000803e3d6000fd5b5050604051601f190151979650505050505050565b6000610479610945565b60006060846001600160a01b031684846040516108939190610e64565b60006040518083038185875af1925050503d80600081146108d0576040519150601f19603f3d011682016040523d82523d6000602084013e6108d5565b606091505b50915091508181906108fa5760405162461bcd60e51b81526004016104be9190610f3e565b50846001600160a01b03167fcaf938de11c367272220bfd1d2baa99ca46665e7bc4d85f00adb51b90fe1fa9f8585604051610936929190610ff5565b60405180910390a25050505050565b600060183610801590610970575061095b6106a7565b6001600160a01b0316336001600160a01b0316145b156109c2576109bb6000368080601f01602080910402602001604051908101604052809392919081815260200183838082843760009201919091525050601319360191506109c79050565b905061047c565b503390565b600081601401835110156109ed576109ed6109e860048551856014016109ff565b610a59565b5001601401516001600160a01b031690565b6060632800659560e01b848484604051602401610a1e93929190610f1c565b60408051601f198184030181529190526020810180516001600160e01b03166001600160e01b03199093169290921790915290509392505050565b805160208201fd5b60008083601f840112610a72578182fd5b50813567ffffffffffffffff811115610a89578182fd5b602083019150836020828501011115610aa157600080fd5b9250929050565b600082601f830112610ab8578081fd5b813567ffffffffffffffff80821115610acf578283fd5b604051601f8301601f191681016020018281118282101715610aef578485fd5b604052828152925082848301602001861015610b0a57600080fd5b8260208601602083013760006020848301015250505092915050565b600060208284031215610b37578081fd5b81356102b081611096565b600060208284031215610b53578081fd5b81516102b081611096565b60008060008060008060c08789031215610b76578182fd5b8635610b8181611096565b95506020870135610b9181611096565b94506040870135610ba181611096565b935060608701359250608087013567ffffffffffffffff80821115610bc4578384fd5b610bd08a838b01610aa8565b935060a0890135915080821115610be5578283fd5b50610bf289828a01610aa8565b9150509295509295509295565b60008060008060808587031215610c14578384fd5b8435610c1f81611096565b93506020850135610c2f81611096565b925060408501359150606085013567ffffffffffffffff811115610c51578182fd5b610c5d87828801610aa8565b91505092959194509250565b60008060008060608587031215610c7e578384fd5b8435610c8981611096565b935060208501359250604085013567ffffffffffffffff811115610cab578283fd5b610cb787828801610a61565b95989497509550505050565b60008060208385031215610cd5578182fd5b823567ffffffffffffffff80821115610cec578384fd5b81850186601f820112610cfd578485fd5b8035925081831115610d0d578485fd5b8660208085028301011115610d20578485fd5b60200196919550909350505050565b600080600060408486031215610d43578283fd5b83359250602084013567ffffffffffffffff811115610d60578283fd5b610d6c86828701610a61565b9497909650939450505050565b600060208284031215610d8a578081fd5b81516001600160e01b0319811681146102b0578182fd5b60008060008060408587031215610db6578384fd5b843567ffffffffffffffff80821115610dcd578586fd5b610dd988838901610a61565b90965094506020870135915080821115610df1578384fd5b50610cb787828801610a61565b60008284528282602086013780602084860101526020601f19601f85011685010190509392505050565b60008151808452610e4081602086016020860161106a565b601f01601f19169290920160200192915050565b6000828483379101908152919050565b60008251610e7681846020870161106a565b9190910192915050565b6001600160a01b0391909116815260200190565b600084825260406020830152610eae604083018486610dfe565b95945050505050565b93845260ff9290921660208401526040830152606082015260800190565b6001600160e01b031991909116815260200190565b600060408252610efe604083018688610dfe565b8281036020840152610f11818587610dfe565b979650505050505050565b6060810160088510610f2a57fe5b938152602081019290925260409091015290565b6000602082526102b06020830184610e28565b602080825260139082015272185b1c9958591e481a5b9a5d1a585b1a5e9959606a1b604082015260600190565b60208082526018908201527f63616c6c6572206973206e6f7420617574686f72697a65640000000000000000604082015260600190565b60208082526018908201527f696e76616c69642d7369676e61747572652d666f726d61740000000000000000604082015260600190565b90815260200190565b6000838252604060208301526101936040830184610e28565b6000808335601e19843603018112611024578283fd5b8084018035925067ffffffffffffffff83111561103f578384fd5b60200192505036819003821315610aa157600080fd5b60008235605e19833603018112610e76578182fd5b60005b8381101561108557818101518382015260200161106d565b838111156107365750506000910152565b6001600160a01b03811681146106a457600080fdfea26469706673582212202067d855914c75cc65a00e87fde4a1fc21655985e3dc1f46694052c8b71343eb64736f6c63430006060033",
  "immutableReferences": {},
  "source": "pragma solidity ^0.6.0;\npragma experimental ABIEncoderV2;\n\nimport \"@openzeppelin/contracts/token/ERC721/IERC721Receiver.sol\";\nimport \"@openzeppelin/contracts/token/ERC777/IERC777Recipient.sol\";\nimport \"@openzeppelin/contracts/utils/Address.sol\";\nimport \"@opengsn/gsn/contracts/BaseRelayRecipient.sol\";\nimport \"@iexec/solidity/contracts/ERC1271/IERC1271.sol\";\nimport \"@iexec/solidity/contracts/ERC1654/IERC1654.sol\";\nimport \"@iexec/solidity/contracts/Libs/ECDSA.sol\";\nimport \"./core/CounterfactualTokenEntity.sol\";\n\nstruct Call\n{\n\taddress to;\n\tuint256 value;\n\tbytes   data;\n}\n\ncontract NFWallet is\n\tCounterfactualTokenEntity,\n\tBaseRelayRecipient,\n\tECDSA,\n\tIERC721Receiver,\n\tIERC777Recipient,\n\tIERC1271,\n\tIERC1654\n{\n\tusing Address for address;\n\t\n\tevent Executed(address indexed to, uint256 value, bytes data);\n\n\tfunction _msgSender()\n\tinternal view override(Context, BaseRelayRecipient) returns (address payable sender)\n\t{\n\t\treturn BaseRelayRecipient._msgSender();\n\t}\n\n\tfunction setForwarder(address _trustedForwarder)\n\texternal onlyOwnerOrRegistry()\n\t{\n\t\ttrustedForwarder = _trustedForwarder;\n\t}\n\n\t// Wallet\n\tfunction forward(address to, uint256 value, bytes calldata data)\n\texternal onlyOwner()\n\t{\n\t\t_execute(to, value, data);\n\t}\n\n\tfunction forwardBatch(Call[] calldata calls)\n\texternal onlyOwner()\n\t{\n\t\tfor (uint256 i = 0; i < calls.length; ++i)\n\t\t{\n\t\t\t_execute(calls[i].to, calls[i].value, calls[i].data);\n\t\t}\n\t}\n\n\tfunction _execute(address to, uint256 value, bytes memory data)\n\tinternal\n\t{\n\t\t(bool success, bytes memory returndata) = payable(to).call{value: value}(data);\n\t\trequire(success, string(returndata));\n\t\temit Executed(to, value, data);\n\t}\n\n\t// ERC721\n\tfunction onERC721Received(address, address, uint256, bytes memory)\n\tpublic override returns (bytes4)\n\t{\n\t\t// TODO: emit event ?\n\t\treturn this.onERC721Received.selector;\n\t}\n\n\t// ERC777\n\tfunction tokensReceived(address, address, address, uint256, bytes memory, bytes memory)\n\tpublic override\n\t{\n\t\t// TODO: emit event ?\n\t}\n\n\t// ERC 1271\n\tfunction isValidSignature(bytes calldata data, bytes calldata signature)\n\texternal view override returns (bytes4 magicValue)\n\t{\n\t\taddress signer = owner();\n\t\tif (signer.isContract())\n\t\t{\n\t\t\treturn IERC1271(signer).isValidSignature(data, signature);\n\t\t}\n\t\telse\n\t\t{\n\t\t\trequire(signer == recover(keccak256(data), signature));\n\t\t\treturn IERC1271(0).isValidSignature.selector;\n\t\t}\n\t}\n\n\t// ERC 1654\n\tfunction isValidSignature(bytes32 data, bytes calldata signature)\n\texternal view override returns (bytes4 magicValue)\n\t{\n\t\taddress signer = owner();\n\t\tif (signer.isContract())\n\t\t{\n\t\t\treturn IERC1654(signer).isValidSignature(data, signature);\n\t\t}\n\t\telse\n\t\t{\n\t\t\trequire(signer == recover(data, signature));\n\t\t\treturn IERC1654(0).isValidSignature.selector;\n\t\t}\n\t}\n}\n",
  "sourcePath": "/home/amxx/Work/Projects/NFWallets/solidity/contracts/NFWallet.sol",
  "compiler": {
    "name": "solc",
    "version": "0.6.6+commit.6c089d02.Emscripten.clang"
  },
  "schemaVersion": "3.1.0",
  "updatedAt": "2020-05-21T14:56:18.010Z",
  "devdoc": {
    "methods": {}
  },
  "userdoc": {
    "methods": {}
  }
}