{
  "contractName": "NFWalletProxy",
  "abi": [
    {
      "anonymous": false,
      "inputs": [
        {
          "indexed": true,
          "internalType": "address",
          "name": "from",
          "type": "address"
        },
        {
          "indexed": false,
          "internalType": "uint256",
          "name": "value",
          "type": "uint256"
        }
      ],
      "name": "Received",
      "type": "event"
    },
    {
      "anonymous": false,
      "inputs": [
        {
          "indexed": true,
          "internalType": "address",
          "name": "implementation",
          "type": "address"
        }
      ],
      "name": "Upgraded",
      "type": "event"
    },
    {
      "stateMutability": "payable",
      "type": "fallback"
    },
    {
      "inputs": [
        {
          "internalType": "address",
          "name": "_logic",
          "type": "address"
        },
        {
          "internalType": "bytes",
          "name": "_data",
          "type": "bytes"
        }
      ],
      "name": "initialize",
      "outputs": [],
      "stateMutability": "payable",
      "type": "function"
    },
    {
      "stateMutability": "payable",
      "type": "receive"
    }
  ],
  "bytecode": "0x608060405234801561001057600080fd5b506103dd806100206000396000f3fe6080604052600436106100225760003560e01c8063d1f57894146100695761005f565b3661005f5760408051348152905133917f88a5966d370b9919b20f3e2c13ff65706f196a4e32cc2c12bf57088f88525874919081900360200190a2005b61006761011f565b005b6100676004803603604081101561007f57600080fd5b6001600160a01b0382351691908101906040810160208201356401000000008111156100aa57600080fd5b8201836020820111156100bc57600080fd5b803590602001918460018302840111640100000000831117156100de57600080fd5b91908080601f016020809104026020016040519081016040528093929190818152602001838380828437600092019190915250929550610139945050505050565b610127610137565b61013761013261025c565b610281565b565b600061014361025c565b6001600160a01b03161461015657600080fd5b60405180602361034a82396040519081900360230190207f7050c9e0f4ca769c69bd3a8ef740bc37934f8e2c036e5a723fd8ee048ed3f8c314905061019757fe5b6101a0826102a5565b805115610258576000826001600160a01b0316826040518082805190602001908083835b602083106101e35780518252601f1990920191602091820191016101c4565b6001836020036101000a038019825116818451168082178552505050505050905001915050600060405180830381855af49150503d8060008114610243576040519150601f19603f3d011682016040523d82523d6000602084013e610248565b606091505b505090508061025657600080fd5b505b5050565b7f7050c9e0f4ca769c69bd3a8ef740bc37934f8e2c036e5a723fd8ee048ed3f8c35490565b3660008037600080366000845af43d6000803e8080156102a0573d6000f35b3d6000fd5b6102ae8161030d565b6102e95760405162461bcd60e51b815260040180806020018281038252603b81526020018061036d603b913960400191505060405180910390fd5b7f7050c9e0f4ca769c69bd3a8ef740bc37934f8e2c036e5a723fd8ee048ed3f8c355565b6000813f7fc5d2460186f7233c927e7db2dcc703c0e500b653ca82273b7bfad8045d85a47081811480159061034157508115155b94935050505056fe6f72672e7a657070656c696e6f732e70726f78792e696d706c656d656e746174696f6e43616e6e6f742073657420612070726f787920696d706c656d656e746174696f6e20746f2061206e6f6e2d636f6e74726163742061646472657373a2646970667358221220d098c2354f7567690be5fcafa4d10e2579d44ca602989b5fe3497a845bef115b64736f6c63430006060033",
  "immutableReferences": {},
  "source": "pragma solidity ^0.6.0;\n\nimport \"@iexec/solidity/contracts/Upgradeability/InitializableUpgradeabilityProxy.sol\";\nimport \"@openzeppelin/contracts/access/Ownable.sol\";\nimport \"@openzeppelin/contracts/token/ERC721/ERC721.sol\";\nimport \"@openzeppelin/contracts/utils/Create2.sol\";\n\ncontract NFWalletProxy is InitializableUpgradeabilityProxy\n{\n\tevent Received(address indexed from, uint256 value);\n\n\treceive()\n\texternal payable override\n\t{\n\t\temit Received(msg.sender, msg.value);\n\t}\n}\n\nabstract contract CounterfactualTokenRegistry is ERC721, Ownable\n{\n\taddress public master;\n\tbytes   public proxyCode;\n\tbytes32 public proxyCodeHash;\n\n\tconstructor(address _master, string memory _name, string memory _symbol)\n\tpublic ERC721(_name, _symbol)\n\t{\n\t\tmaster        = _master;\n\t\tproxyCode     = type(NFWalletProxy).creationCode;\n\t\tproxyCodeHash = keccak256(proxyCode);\n\t}\n\n\t/* Factory */\n\tfunction _mintCreate(address _owner, bytes memory _args)\n\tinternal returns (uint256)\n\t{\n\t\t// Create entry (proxy)\n\t\taddress entry = Create2.deploy(0, keccak256(abi.encodePacked(_args, _owner)), proxyCode);\n\t\t// Initialize entry\n\t\tNFWalletProxy(payable(entry)).initialize(master, _args);\n\t\t// Mint corresponding token\n\t\t_mint(_owner, uint256(entry));\n\t\treturn uint256(entry);\n\t}\n\n\tfunction _mintPredict(address _owner, bytes memory _args)\n\tinternal view returns (uint256)\n\t{\n\t\taddress entry = Create2.computeAddress(keccak256(abi.encodePacked(_args, _owner)), proxyCodeHash);\n\t\treturn uint256(entry);\n\t}\n}\n",
  "sourcePath": "/home/amxx/Work/Projects/NFWallets/solidity/contracts/core/CounterfactualTokenRegistry.sol",
  "compiler": {
    "name": "solc",
    "version": "0.6.6+commit.6c089d02.Emscripten.clang"
  },
  "schemaVersion": "3.1.0",
  "updatedAt": "2020-05-03T10:38:31.400Z",
  "devdoc": {
    "methods": {
      "initialize(address,bytes)": {
        "details": "Contract initializer.",
        "params": {
          "_data": "Data to send as msg.data to the implementation to initialize the proxied contract. It should include the signature and the parameters of the function to be called, as described in https://solidity.readthedocs.io/en/v0.4.24/abi-spec.html#function-selector-and-argument-encoding. This parameter is optional, if no data is given the initialization call to proxied contract will be skipped.",
          "_logic": "Address of the initial implementation."
        }
      }
    }
  },
  "userdoc": {
    "methods": {}
  }
}