{
  "contractName": "NFWallet",
  "abi": [
    {
      "anonymous": false,
      "inputs": [
        {
          "indexed": true,
          "internalType": "address",
          "name": "to",
          "type": "address"
        },
        {
          "indexed": false,
          "internalType": "uint256",
          "name": "value",
          "type": "uint256"
        },
        {
          "indexed": false,
          "internalType": "bytes",
          "name": "data",
          "type": "bytes"
        }
      ],
      "name": "Executed",
      "type": "event"
    },
    {
      "anonymous": false,
      "inputs": [
        {
          "indexed": true,
          "internalType": "address",
          "name": "from",
          "type": "address"
        },
        {
          "indexed": false,
          "internalType": "uint256",
          "name": "value",
          "type": "uint256"
        }
      ],
      "name": "Received",
      "type": "event"
    },
    {
      "inputs": [
        {
          "internalType": "address",
          "name": "_registry",
          "type": "address"
        }
      ],
      "name": "initialize",
      "outputs": [],
      "stateMutability": "nonpayable",
      "type": "function"
    },
    {
      "inputs": [],
      "name": "owner",
      "outputs": [
        {
          "internalType": "address",
          "name": "",
          "type": "address"
        }
      ],
      "stateMutability": "view",
      "type": "function"
    },
    {
      "inputs": [],
      "name": "registry",
      "outputs": [
        {
          "internalType": "contract IERC721",
          "name": "",
          "type": "address"
        }
      ],
      "stateMutability": "view",
      "type": "function"
    },
    {
      "stateMutability": "payable",
      "type": "receive"
    },
    {
      "inputs": [
        {
          "internalType": "address",
          "name": "",
          "type": "address"
        },
        {
          "internalType": "address",
          "name": "",
          "type": "address"
        },
        {
          "internalType": "uint256",
          "name": "",
          "type": "uint256"
        },
        {
          "internalType": "bytes",
          "name": "",
          "type": "bytes"
        }
      ],
      "name": "onERC721Received",
      "outputs": [
        {
          "internalType": "bytes4",
          "name": "",
          "type": "bytes4"
        }
      ],
      "stateMutability": "nonpayable",
      "type": "function"
    },
    {
      "inputs": [
        {
          "internalType": "address",
          "name": "to",
          "type": "address"
        },
        {
          "internalType": "uint256",
          "name": "value",
          "type": "uint256"
        },
        {
          "internalType": "bytes",
          "name": "data",
          "type": "bytes"
        }
      ],
      "name": "forward",
      "outputs": [],
      "stateMutability": "nonpayable",
      "type": "function"
    },
    {
      "inputs": [
        {
          "components": [
            {
              "internalType": "address",
              "name": "to",
              "type": "address"
            },
            {
              "internalType": "uint256",
              "name": "value",
              "type": "uint256"
            },
            {
              "internalType": "bytes",
              "name": "data",
              "type": "bytes"
            }
          ],
          "internalType": "struct Call[]",
          "name": "calls",
          "type": "tuple[]"
        }
      ],
      "name": "forwardBatch",
      "outputs": [],
      "stateMutability": "nonpayable",
      "type": "function"
    },
    {
      "inputs": [
        {
          "internalType": "bytes32",
          "name": "hash",
          "type": "bytes32"
        },
        {
          "internalType": "bytes",
          "name": "signature",
          "type": "bytes"
        }
      ],
      "name": "isValidSignature",
      "outputs": [
        {
          "internalType": "bytes4",
          "name": "magicValue",
          "type": "bytes4"
        }
      ],
      "stateMutability": "view",
      "type": "function"
    },
    {
      "inputs": [
        {
          "internalType": "bytes",
          "name": "data",
          "type": "bytes"
        },
        {
          "internalType": "bytes",
          "name": "signature",
          "type": "bytes"
        }
      ],
      "name": "isValidSignature",
      "outputs": [
        {
          "internalType": "bytes4",
          "name": "magicValue",
          "type": "bytes4"
        }
      ],
      "stateMutability": "view",
      "type": "function"
    }
  ],
  "bytecode": "0x6080604052610c45806100136000396000f3fe60806040526004361061007f5760003560e01c80638da5cb5b1161004e5780638da5cb5b1461016b578063aef0562914610180578063c4d66de8146101a2578063d7f31eb9146101c2576100ce565b8063150b7a02146100d35780631626ba7e1461010957806320c13b0b146101295780637b10399914610149576100ce565b366100ce5761008c6101e2565b6001600160a01b03167f88a5966d370b9919b20f3e2c13ff65706f196a4e32cc2c12bf57088f88525874346040516100c49190610b45565b60405180910390a2005b600080fd5b3480156100df57600080fd5b506100f36100ee3660046107c3565b6101e6565b6040516101009190610a82565b60405180910390f35b34801561011557600080fd5b506100f3610124366004610951565b6101f6565b34801561013557600080fd5b506100f361014436600461099b565b61026c565b34801561015557600080fd5b5061015e6102fa565b6040516101009190610a50565b34801561017757600080fd5b5061015e610309565b34801561018c57600080fd5b506101a061019b3660046108e5565b61038f565b005b3480156101ae57600080fd5b506101a06101bd366004610784565b6104a6565b3480156101ce57600080fd5b506101a06101dd36600461088b565b6104f1565b3390565b630a85bd0160e11b949350505050565b60006102388484848080601f01602080910402602001604051908101604052809392919081815260200183838082843760009201919091525061057792505050565b6001600160a01b0316610249610309565b6001600160a01b03161461025c57600080fd5b50630b135d3f60e11b9392505050565b60006102c58585604051610281929190610a24565b604051809103902084848080601f01602080910402602001604051908101604052809392919081815260200183838082843760009201919091525061057792505050565b6001600160a01b03166102d6610309565b6001600160a01b0316146102e957600080fd5b506320c13b0b60e01b949350505050565b6000546001600160a01b031681565b600080546040516331a9108f60e11b81526001600160a01b0390911690636352211e9061033a903090600401610b45565b60206040518083038186803b15801561035257600080fd5b505afa158015610366573d6000803e3d6000fd5b505050506040513d601f19601f8201168201806040525081019061038a91906107a7565b905090565b6103976101e2565b6001600160a01b03166103a8610309565b6001600160a01b0316146103d75760405162461bcd60e51b81526004016103ce90610ad7565b60405180910390fd5b60005b818110156104a1576104998383838181106103f157fe5b90506020028101906104039190610bb6565b610411906020810190610784565b84848481811061041d57fe5b905060200281019061042f9190610bb6565b6020013585858581811061043f57fe5b90506020028101906104519190610bb6565b61045f906040810190610b6f565b8080601f01602080910402602001604051908101604052809392919081815260200183838082843760009201919091525061066e92505050565b6001016103da565b505050565b6000546001600160a01b0316156104cf5760405162461bcd60e51b81526004016103ce90610aaa565b600080546001600160a01b0319166001600160a01b0392909216919091179055565b6104f96101e2565b6001600160a01b031661050a610309565b6001600160a01b0316146105305760405162461bcd60e51b81526004016103ce90610ad7565b610571848484848080601f01602080910402602001604051908101604052809392919081815260200183838082843760009201919091525061066e92505050565b50505050565b6000806000808451604114156105a15750505060208201516040830151606084015160001a6105e6565b8451604014156105ce57505050602082015160408301516001600160ff1b0381169060001a60071c6105e6565b60405162461bcd60e51b81526004016103ce90610b0e565b601b8160ff1610156105f657601b015b8060ff16601b148061060b57508060ff16601c145b61061457600080fd5b600186828585604051600081526020016040526040516106379493929190610a64565b6020604051602081039080840390855afa158015610659573d6000803e3d6000fd5b5050604051601f190151979650505050505050565b60006060846001600160a01b0316848460405161068b9190610a34565b60006040518083038185875af1925050503d80600081146106c8576040519150601f19603f3d011682016040523d82523d6000602084013e6106cd565b606091505b50915091508181906106f25760405162461bcd60e51b81526004016103ce9190610a97565b50846001600160a01b03167fcaf938de11c367272220bfd1d2baa99ca46665e7bc4d85f00adb51b90fe1fa9f858560405161072e929190610b4e565b60405180910390a25050505050565b60008083601f84011261074e578182fd5b50813567ffffffffffffffff811115610765578182fd5b60208301915083602082850101111561077d57600080fd5b9250929050565b600060208284031215610795578081fd5b81356107a081610bf7565b9392505050565b6000602082840312156107b8578081fd5b81516107a081610bf7565b600080600080608085870312156107d8578283fd5b84356107e381610bf7565b93506020858101356107f481610bf7565b935060408601359250606086013567ffffffffffffffff80821115610817578384fd5b81880189601f820112610828578485fd5b8035925081831115610838578485fd5b604051601f8401601f1916810185018381118282101715610857578687fd5b60405283815281840185018b101561086d578586fd5b83858301868301379283019093019390935294979396509194505050565b600080600080606085870312156108a0578384fd5b84356108ab81610bf7565b935060208501359250604085013567ffffffffffffffff8111156108cd578283fd5b6108d98782880161073d565b95989497509550505050565b600080602083850312156108f7578182fd5b823567ffffffffffffffff8082111561090e578384fd5b81850186601f82011261091f578485fd5b803592508183111561092f578485fd5b8660208085028301011115610942578485fd5b60200196919550909350505050565b600080600060408486031215610965578283fd5b83359250602084013567ffffffffffffffff811115610982578283fd5b61098e8682870161073d565b9497909650939450505050565b600080600080604085870312156109b0578384fd5b843567ffffffffffffffff808211156109c7578586fd5b6109d38883890161073d565b909650945060208701359150808211156109eb578384fd5b506108d98782880161073d565b60008151808452610a10816020860160208601610bcb565b601f01601f19169290920160200192915050565b6000828483379101908152919050565b60008251610a46818460208701610bcb565b9190910192915050565b6001600160a01b0391909116815260200190565b93845260ff9290921660208401526040830152606082015260800190565b6001600160e01b031991909116815260200190565b6000602082526107a060208301846109f8565b602080825260139082015272185b1c9958591e481a5b9a5d1a585b1a5e9959606a1b604082015260600190565b60208082526017908201527f63616c6c6572206973206e6f7420746865206f776e6572000000000000000000604082015260600190565b60208082526018908201527f696e76616c69642d7369676e61747572652d666f726d61740000000000000000604082015260600190565b90815260200190565b600083825260406020830152610b6760408301846109f8565b949350505050565b6000808335601e19843603018112610b85578283fd5b8084018035925067ffffffffffffffff831115610ba0578384fd5b6020019250503681900382131561077d57600080fd5b60008235605e19833603018112610a46578182fd5b60005b83811015610be6578181015183820152602001610bce565b838111156105715750506000910152565b6001600160a01b0381168114610c0c57600080fd5b5056fea2646970667358221220d91d2ae9f579a8cc98869a39b1cf04cb1aec10e04fdb03735f65d9daa801ff2364736f6c63430006060033",
  "immutableReferences": {},
  "source": "pragma solidity ^0.6.0;\npragma experimental ABIEncoderV2;\n\nimport \"@openzeppelin/contracts/token/ERC721/IERC721Receiver.sol\";\nimport \"@iexec/solidity/contracts/ERC1271/IERC1271.sol\";\nimport \"@iexec/solidity/contracts/ERC1654/IERC1654.sol\";\nimport \"@iexec/solidity/contracts/Libs/ECDSA.sol\";\nimport \"./core/CounterfactualTokenEntity.sol\";\n\nstruct Call\n{\n\taddress to;\n\tuint256 value;\n\tbytes   data;\n}\n\ncontract NFWallet is CounterfactualTokenEntity, ECDSA, IERC721Receiver, IERC1271, IERC1654\n{\n\tevent Received(address indexed from, uint256 value);\n\tevent Executed(address indexed to,   uint256 value, bytes data);\n\n\t// Asset receiving\n\treceive()\n\texternal payable\n\t{\n\t\temit Received(_msgSender(), msg.value);\n\t}\n\n\tfunction onERC721Received(address, address, uint256, bytes memory)\n\tpublic override returns (bytes4)\n\t{\n\t\treturn this.onERC721Received.selector;\n\t}\n\n\t// Wallet\n\tfunction forward(address to, uint256 value, bytes calldata data)\n\texternal onlyOwner()\n\t{\n\t\t_execute(to, value, data);\n\t}\n\n\tfunction forwardBatch(Call[] calldata calls)\n\texternal onlyOwner()\n\t{\n\t\tfor (uint256 i = 0; i < calls.length; ++i)\n\t\t{\n\t\t\t_execute(calls[i].to, calls[i].value, calls[i].data);\n\t\t}\n\t}\n\n\tfunction _execute(address to, uint256 value, bytes memory data)\n\tinternal\n\t{\n\t\t(bool success, bytes memory returndata) = payable(to).call{value: value}(data);\n\t\trequire(success, string(returndata));\n\t\temit Executed(to, value, data);\n\t}\n\n\tfunction isValidSignature(bytes calldata data, bytes calldata signature)\n\texternal view override returns (bytes4 magicValue)\n\t{\n\t\trequire(owner() == recover(keccak256(data), signature));\n\t\treturn IERC1271(0).isValidSignature.selector;\n\t}\n\n\tfunction isValidSignature(bytes32 hash, bytes calldata signature)\n\texternal view override returns (bytes4 magicValue)\n\t{\n\t\trequire(owner() == recover(hash, signature));\n\t\treturn IERC1654(0).isValidSignature.selector;\n\t}\n}\n",
  "sourcePath": "/home/amxx/Work/Projects/NFWallets/solidity/contracts/NFWallet.sol",
  "compiler": {
    "name": "solc",
    "version": "0.6.6+commit.6c089d02.Emscripten.clang"
  },
  "schemaVersion": "3.1.0",
  "updatedAt": "2020-04-29T08:45:38.543Z",
  "devdoc": {
    "methods": {}
  },
  "userdoc": {
    "methods": {}
  }
}