{
  "contractName": "Transfer",
  "abi": [
    {
      "inputs": [
        {
          "internalType": "address payable",
          "name": "to",
          "type": "address"
        }
      ],
      "name": "transfer",
      "outputs": [],
      "stateMutability": "payable",
      "type": "function"
    }
  ],
  "bytecode": "0x608060405234801561001057600080fd5b5060b48061001f6000396000f3fe608060405260043610601c5760003560e01c80631a695230146021575b600080fd5b604460048036036020811015603557600080fd5b50356001600160a01b03166046565b005b6040516001600160a01b038216903480156108fc02916000818181858888f19350505050158015607a573d6000803e3d6000fd5b505056fea26469706673582212206fe0e87dce693fcf62d40124ffb6342ffd7ba02b554a1a9084c1eee55ad692af64736f6c63430006060033",
  "immutableReferences": {},
  "source": "pragma solidity ^0.6.0;\n\ncontract Transfer\n{\n\tfunction transfer(address payable to)\n\texternal payable\n\t{\n\t\tto.transfer(msg.value);\n\t}\n}\n",
  "sourcePath": "/home/amxx/Work/Projects/NFWallets/solidity/contracts/tools/Transfer.sol",
  "compiler": {
    "name": "solc",
    "version": "0.6.6+commit.6c089d02.Emscripten.clang"
  },
  "schemaVersion": "3.1.0",
  "updatedAt": "2020-05-21T15:13:00.965Z",
  "networkType": "ethereum",
  "devdoc": {
    "methods": {}
  },
  "userdoc": {
    "methods": {}
  }
}