{
  "contractName": "NFWalletFactory",
  "abi": [
    {
      "inputs": [],
      "stateMutability": "nonpayable",
      "type": "constructor"
    },
    {
      "anonymous": false,
      "inputs": [
        {
          "indexed": true,
          "internalType": "address",
          "name": "owner",
          "type": "address"
        },
        {
          "indexed": true,
          "internalType": "address",
          "name": "approved",
          "type": "address"
        },
        {
          "indexed": true,
          "internalType": "uint256",
          "name": "tokenId",
          "type": "uint256"
        }
      ],
      "name": "Approval",
      "type": "event"
    },
    {
      "anonymous": false,
      "inputs": [
        {
          "indexed": true,
          "internalType": "address",
          "name": "owner",
          "type": "address"
        },
        {
          "indexed": true,
          "internalType": "address",
          "name": "operator",
          "type": "address"
        },
        {
          "indexed": false,
          "internalType": "bool",
          "name": "approved",
          "type": "bool"
        }
      ],
      "name": "ApprovalForAll",
      "type": "event"
    },
    {
      "anonymous": false,
      "inputs": [
        {
          "indexed": true,
          "internalType": "address",
          "name": "previousOwner",
          "type": "address"
        },
        {
          "indexed": true,
          "internalType": "address",
          "name": "newOwner",
          "type": "address"
        }
      ],
      "name": "OwnershipTransferred",
      "type": "event"
    },
    {
      "anonymous": false,
      "inputs": [
        {
          "indexed": true,
          "internalType": "address",
          "name": "from",
          "type": "address"
        },
        {
          "indexed": true,
          "internalType": "address",
          "name": "to",
          "type": "address"
        },
        {
          "indexed": true,
          "internalType": "uint256",
          "name": "tokenId",
          "type": "uint256"
        }
      ],
      "name": "Transfer",
      "type": "event"
    },
    {
      "inputs": [
        {
          "internalType": "address",
          "name": "to",
          "type": "address"
        },
        {
          "internalType": "uint256",
          "name": "tokenId",
          "type": "uint256"
        }
      ],
      "name": "approve",
      "outputs": [],
      "stateMutability": "nonpayable",
      "type": "function"
    },
    {
      "inputs": [
        {
          "internalType": "address",
          "name": "owner",
          "type": "address"
        }
      ],
      "name": "balanceOf",
      "outputs": [
        {
          "internalType": "uint256",
          "name": "",
          "type": "uint256"
        }
      ],
      "stateMutability": "view",
      "type": "function"
    },
    {
      "inputs": [],
      "name": "baseURI",
      "outputs": [
        {
          "internalType": "string",
          "name": "",
          "type": "string"
        }
      ],
      "stateMutability": "view",
      "type": "function"
    },
    {
      "inputs": [
        {
          "internalType": "uint256",
          "name": "tokenId",
          "type": "uint256"
        }
      ],
      "name": "getApproved",
      "outputs": [
        {
          "internalType": "address",
          "name": "",
          "type": "address"
        }
      ],
      "stateMutability": "view",
      "type": "function"
    },
    {
      "inputs": [
        {
          "internalType": "address",
          "name": "owner",
          "type": "address"
        },
        {
          "internalType": "address",
          "name": "operator",
          "type": "address"
        }
      ],
      "name": "isApprovedForAll",
      "outputs": [
        {
          "internalType": "bool",
          "name": "",
          "type": "bool"
        }
      ],
      "stateMutability": "view",
      "type": "function"
    },
    {
      "inputs": [],
      "name": "master",
      "outputs": [
        {
          "internalType": "address",
          "name": "",
          "type": "address"
        }
      ],
      "stateMutability": "view",
      "type": "function"
    },
    {
      "inputs": [],
      "name": "name",
      "outputs": [
        {
          "internalType": "string",
          "name": "",
          "type": "string"
        }
      ],
      "stateMutability": "view",
      "type": "function"
    },
    {
      "inputs": [],
      "name": "owner",
      "outputs": [
        {
          "internalType": "address",
          "name": "",
          "type": "address"
        }
      ],
      "stateMutability": "view",
      "type": "function"
    },
    {
      "inputs": [
        {
          "internalType": "uint256",
          "name": "tokenId",
          "type": "uint256"
        }
      ],
      "name": "ownerOf",
      "outputs": [
        {
          "internalType": "address",
          "name": "",
          "type": "address"
        }
      ],
      "stateMutability": "view",
      "type": "function"
    },
    {
      "inputs": [],
      "name": "proxyCode",
      "outputs": [
        {
          "internalType": "bytes",
          "name": "",
          "type": "bytes"
        }
      ],
      "stateMutability": "view",
      "type": "function"
    },
    {
      "inputs": [],
      "name": "proxyCodeHash",
      "outputs": [
        {
          "internalType": "bytes32",
          "name": "",
          "type": "bytes32"
        }
      ],
      "stateMutability": "view",
      "type": "function"
    },
    {
      "inputs": [],
      "name": "renounceOwnership",
      "outputs": [],
      "stateMutability": "nonpayable",
      "type": "function"
    },
    {
      "inputs": [
        {
          "internalType": "address",
          "name": "from",
          "type": "address"
        },
        {
          "internalType": "address",
          "name": "to",
          "type": "address"
        },
        {
          "internalType": "uint256",
          "name": "tokenId",
          "type": "uint256"
        }
      ],
      "name": "safeTransferFrom",
      "outputs": [],
      "stateMutability": "nonpayable",
      "type": "function"
    },
    {
      "inputs": [
        {
          "internalType": "address",
          "name": "from",
          "type": "address"
        },
        {
          "internalType": "address",
          "name": "to",
          "type": "address"
        },
        {
          "internalType": "uint256",
          "name": "tokenId",
          "type": "uint256"
        },
        {
          "internalType": "bytes",
          "name": "_data",
          "type": "bytes"
        }
      ],
      "name": "safeTransferFrom",
      "outputs": [],
      "stateMutability": "nonpayable",
      "type": "function"
    },
    {
      "inputs": [
        {
          "internalType": "address",
          "name": "operator",
          "type": "address"
        },
        {
          "internalType": "bool",
          "name": "approved",
          "type": "bool"
        }
      ],
      "name": "setApprovalForAll",
      "outputs": [],
      "stateMutability": "nonpayable",
      "type": "function"
    },
    {
      "inputs": [
        {
          "internalType": "bytes4",
          "name": "interfaceId",
          "type": "bytes4"
        }
      ],
      "name": "supportsInterface",
      "outputs": [
        {
          "internalType": "bool",
          "name": "",
          "type": "bool"
        }
      ],
      "stateMutability": "view",
      "type": "function"
    },
    {
      "inputs": [],
      "name": "symbol",
      "outputs": [
        {
          "internalType": "string",
          "name": "",
          "type": "string"
        }
      ],
      "stateMutability": "view",
      "type": "function"
    },
    {
      "inputs": [
        {
          "internalType": "uint256",
          "name": "index",
          "type": "uint256"
        }
      ],
      "name": "tokenByIndex",
      "outputs": [
        {
          "internalType": "uint256",
          "name": "",
          "type": "uint256"
        }
      ],
      "stateMutability": "view",
      "type": "function"
    },
    {
      "inputs": [
        {
          "internalType": "address",
          "name": "owner",
          "type": "address"
        },
        {
          "internalType": "uint256",
          "name": "index",
          "type": "uint256"
        }
      ],
      "name": "tokenOfOwnerByIndex",
      "outputs": [
        {
          "internalType": "uint256",
          "name": "",
          "type": "uint256"
        }
      ],
      "stateMutability": "view",
      "type": "function"
    },
    {
      "inputs": [
        {
          "internalType": "uint256",
          "name": "tokenId",
          "type": "uint256"
        }
      ],
      "name": "tokenURI",
      "outputs": [
        {
          "internalType": "string",
          "name": "",
          "type": "string"
        }
      ],
      "stateMutability": "view",
      "type": "function"
    },
    {
      "inputs": [],
      "name": "totalSupply",
      "outputs": [
        {
          "internalType": "uint256",
          "name": "",
          "type": "uint256"
        }
      ],
      "stateMutability": "view",
      "type": "function"
    },
    {
      "inputs": [
        {
          "internalType": "address",
          "name": "from",
          "type": "address"
        },
        {
          "internalType": "address",
          "name": "to",
          "type": "address"
        },
        {
          "internalType": "uint256",
          "name": "tokenId",
          "type": "uint256"
        }
      ],
      "name": "transferFrom",
      "outputs": [],
      "stateMutability": "nonpayable",
      "type": "function"
    },
    {
      "inputs": [
        {
          "internalType": "address",
          "name": "newOwner",
          "type": "address"
        }
      ],
      "name": "transferOwnership",
      "outputs": [],
      "stateMutability": "nonpayable",
      "type": "function"
    },
    {
      "inputs": [
        {
          "internalType": "address",
          "name": "_owner",
          "type": "address"
        },
        {
          "internalType": "bytes32",
          "name": "_salt",
          "type": "bytes32"
        }
      ],
      "name": "createWallet",
      "outputs": [
        {
          "internalType": "address",
          "name": "",
          "type": "address"
        }
      ],
      "stateMutability": "payable",
      "type": "function"
    },
    {
      "inputs": [
        {
          "internalType": "address",
          "name": "_owner",
          "type": "address"
        },
        {
          "internalType": "bytes32",
          "name": "_salt",
          "type": "bytes32"
        }
      ],
      "name": "predictWallet",
      "outputs": [
        {
          "internalType": "address",
          "name": "",
          "type": "address"
        }
      ],
      "stateMutability": "view",
      "type": "function"
    },
    {
      "inputs": [
        {
          "internalType": "address",
          "name": "_ens",
          "type": "address"
        },
        {
          "internalType": "string",
          "name": "_name",
          "type": "string"
        }
      ],
      "name": "setName",
      "outputs": [],
      "stateMutability": "nonpayable",
      "type": "function"
    }
  ],
  "bytecode": "0x60806040523480156200001157600080fd5b506040516200002090620002dd565b604051809103906000f0801580156200003d573d6000803e3d6000fd5b506040805180820182526011815270139bdb919d5b99da589b1955d85b1b195d607a1b602080830191909152825180840190935260038352624e465760e81b908301529081816200009e6301ffc9a760e01b6001600160e01b036200025316565b8151620000b3906006906020850190620002eb565b508051620000c9906007906020840190620002eb565b50620000e56380ac58cd60e01b6001600160e01b036200025316565b62000100635b5e139f60e01b6001600160e01b036200025316565b6200011b63780e9d6360e01b6001600160e01b036200025316565b5060009050620001336001600160e01b03620002d816565b600a80546001600160a01b0319166001600160a01b038316908117909155604051919250906000907f8be0079c531659141344cd1fd0a4f28419497f9722a3daafe3b4186f6b6457e0908290a350600b80546001600160a01b0319166001600160a01b038516179055604051620001ad6020820162000370565b601f1982820381018352601f909101166040528051620001d791600c9160209190910190620002eb565b50600c6040518082805460018160011615610100020316600290048015620002395780601f106200021657610100808354040283529182019162000239565b820191906000526020600020905b81548152906001019060200180831162000224575b5050604051908190039020600d55506200039b9350505050565b6001600160e01b03198082161415620002b3576040805162461bcd60e51b815260206004820152601c60248201527f4552433136353a20696e76616c696420696e7465726661636520696400000000604482015290519081900360640190fd5b6001600160e01b0319166000908152602081905260409020805460ff19166001179055565b335b90565b610c588062002b3d83390190565b828054600181600116156101000203166002900490600052602060002090601f016020900481019282601f106200032e57805160ff19168380011785556200035e565b828001600101855582156200035e579182015b828111156200035e57825182559160200191906001019062000341565b506200036c9291506200037e565b5090565b6103cd806200379583390190565b620002da91905b808211156200036c576000815560010162000385565b61279280620003ab6000396000f3fe6080604052600436106101815760003560e01c80636fa59bbc116100d1578063b20ca8181161008a578063e985e9c511610064578063e985e9c5146106d9578063ee97f7f314610714578063eee3911114610729578063f2fde38b1461073e57610181565b8063b20ca818146105b0578063b88d4fde146105dc578063c87b56dd146106af57610181565b80636fa59bbc146104ee57806370a0823114610503578063715018a6146105365780638da5cb5b1461054b57806395d89b4114610560578063a22cb4651461057557610181565b806323b872dd1161013e57806342842e0e1161011857806342842e0e146104425780634f6ccce7146104855780636352211e146104af5780636c0360eb146104d957610181565b806323b872dd146103395780632f745c591461037c5780633121db1c146103b557610181565b806301ffc9a71461018657806306fdde03146101ce578063081812fc14610258578063095ea7b31461029e578063136fecbd146102d957806318160ddd14610312575b600080fd5b34801561019257600080fd5b506101ba600480360360208110156101a957600080fd5b50356001600160e01b031916610771565b604080519115158252519081900360200190f35b3480156101da57600080fd5b506101e3610794565b6040805160208082528351818301528351919283929083019185019080838360005b8381101561021d578181015183820152602001610205565b50505050905090810190601f16801561024a5780820380516001836020036101000a031916815260200191505b509250505060405180910390f35b34801561026457600080fd5b506102826004803603602081101561027b57600080fd5b503561082a565b604080516001600160a01b039092168252519081900360200190f35b3480156102aa57600080fd5b506102d7600480360360408110156102c157600080fd5b506001600160a01b03813516906020013561088c565b005b3480156102e557600080fd5b50610282600480360360408110156102fc57600080fd5b506001600160a01b038135169060200135610967565b34801561031e57600080fd5b50610327610984565b60408051918252519081900360200190f35b34801561034557600080fd5b506102d76004803603606081101561035c57600080fd5b506001600160a01b03813581169160208101359091169060400135610995565b34801561038857600080fd5b506103276004803603604081101561039f57600080fd5b506001600160a01b0381351690602001356109ec565b3480156103c157600080fd5b506102d7600480360360408110156103d857600080fd5b6001600160a01b03823516919081019060408101602082013564010000000081111561040357600080fd5b82018360208201111561041557600080fd5b8035906020019184600183028401116401000000008311171561043757600080fd5b509092509050610a14565b34801561044e57600080fd5b506102d76004803603606081101561046557600080fd5b506001600160a01b03813581169160208101359091169060400135610abe565b34801561049157600080fd5b50610327600480360360208110156104a857600080fd5b5035610ad9565b3480156104bb57600080fd5b50610282600480360360208110156104d257600080fd5b5035610af5565b3480156104e557600080fd5b506101e3610b23565b3480156104fa57600080fd5b506101e3610b84565b34801561050f57600080fd5b506103276004803603602081101561052657600080fd5b50356001600160a01b0316610c12565b34801561054257600080fd5b506102d7610c7a565b34801561055757600080fd5b50610282610d2e565b34801561056c57600080fd5b506101e3610d3d565b34801561058157600080fd5b506102d76004803603604081101561059857600080fd5b506001600160a01b0381351690602001351515610d9e565b610282600480360360408110156105c657600080fd5b506001600160a01b038135169060200135610ea3565b3480156105e857600080fd5b506102d7600480360360808110156105ff57600080fd5b6001600160a01b0382358116926020810135909116916040820135919081019060808101606082013564010000000081111561063a57600080fd5b82018360208201111561064c57600080fd5b8035906020019184600183028401116401000000008311171561066e57600080fd5b91908080601f016020809104026020016040519081016040528093929190818152602001838380828437600092019190915250929550610fad945050505050565b3480156106bb57600080fd5b506101e3600480360360208110156106d257600080fd5b503561100b565b3480156106e557600080fd5b506101ba600480360360408110156106fc57600080fd5b506001600160a01b03813581169160200135166112b2565b34801561072057600080fd5b506102826112e0565b34801561073557600080fd5b506103276112ef565b34801561074a57600080fd5b506102d76004803603602081101561076157600080fd5b50356001600160a01b03166112f5565b6001600160e01b0319811660009081526020819052604090205460ff165b919050565b60068054604080516020601f60026000196101006001881615020190951694909404938401819004810282018101909252828152606093909290918301828280156108205780601f106107f557610100808354040283529160200191610820565b820191906000526020600020905b81548152906001019060200180831161080357829003601f168201915b5050505050905090565b600061083582611400565b6108705760405162461bcd60e51b815260040180806020018281038252602c815260200180612687602c913960400191505060405180910390fd5b506000908152600460205260409020546001600160a01b031690565b600061089782610af5565b9050806001600160a01b0316836001600160a01b031614156108ea5760405162461bcd60e51b815260040180806020018281038252602181526020018061270b6021913960400191505060405180910390fd5b806001600160a01b03166108fc611413565b6001600160a01b0316148061091d575061091d81610918611413565b6112b2565b6109585760405162461bcd60e51b81526004018080602001828103825260388152602001806125da6038913960400191505060405180910390fd5b6109628383611417565b505050565b600061097b8361097684611485565b6114c4565b90505b92915050565b6000610990600261156e565b905090565b6109a66109a0611413565b82611579565b6109e15760405162461bcd60e51b815260040180806020018281038252603181526020018061272c6031913960400191505060405180910390fd5b61096283838361161d565b6001600160a01b038216600090815260016020526040812061097b908363ffffffff61177b16565b610a1c611413565b600a546001600160a01b03908116911614610a7e576040805162461bcd60e51b815260206004820181905260248201527f4f776e61626c653a2063616c6c6572206973206e6f7420746865206f776e6572604482015290519081900360640190fd5b6109628383838080601f01602080910402602001604051908101604052809392919081815260200183838082843760009201919091525061178792505050565b61096283838360405180602001604052806000815250610fad565b600080610aed60028463ffffffff6118ec16565b509392505050565b600061097e8260405180606001604052806029815260200161263c602991396002919063ffffffff61190816565b60098054604080516020601f60026000196101006001881615020190951694909404938401819004810282018101909252828152606093909290918301828280156108205780601f106107f557610100808354040283529160200191610820565b600c805460408051602060026001851615610100026000190190941693909304601f81018490048402820184019092528181529291830182828015610c0a5780601f10610bdf57610100808354040283529160200191610c0a565b820191906000526020600020905b815481529060010190602001808311610bed57829003601f168201915b505050505081565b60006001600160a01b038216610c595760405162461bcd60e51b815260040180806020018281038252602a815260200180612612602a913960400191505060405180910390fd5b6001600160a01b038216600090815260016020526040902061097e9061156e565b610c82611413565b600a546001600160a01b03908116911614610ce4576040805162461bcd60e51b815260206004820181905260248201527f4f776e61626c653a2063616c6c6572206973206e6f7420746865206f776e6572604482015290519081900360640190fd5b600a546040516000916001600160a01b0316907f8be0079c531659141344cd1fd0a4f28419497f9722a3daafe3b4186f6b6457e0908390a3600a80546001600160a01b0319169055565b600a546001600160a01b031690565b60078054604080516020601f60026000196101006001881615020190951694909404938401819004810282018101909252828152606093909290918301828280156108205780601f106107f557610100808354040283529160200191610820565b610da6611413565b6001600160a01b0316826001600160a01b03161415610e0c576040805162461bcd60e51b815260206004820152601960248201527f4552433732313a20617070726f766520746f2063616c6c657200000000000000604482015290519081900360640190fd5b8060056000610e19611413565b6001600160a01b03908116825260208083019390935260409182016000908120918716808252919093529120805460ff191692151592909217909155610e5d611413565b60408051841515815290516001600160a01b0392909216917f17307eab39ab6107e8899845ad3d59bd9653f200f220920489ca2b5937696c319181900360200190a35050565b600080610eb884610eb385611485565b61191f565b9050341561097b576040516000906060906001600160a01b0384169034908481818185875af1925050503d8060008114610f0e576040519150601f19603f3d011682016040523d82523d6000602084013e610f13565b606091505b5091509150818190610fa35760405162461bcd60e51b81526004018080602001828103825283818151815260200191508051906020019080838360005b83811015610f68578181015183820152602001610f50565b50505050905090810190601f168015610f955780820380516001836020036101000a031916815260200191505b509250505060405180910390fd5b5050509392505050565b610fbe610fb8611413565b83611579565b610ff95760405162461bcd60e51b815260040180806020018281038252603181526020018061272c6031913960400191505060405180910390fd5b61100584848484611b49565b50505050565b606061101682611400565b6110515760405162461bcd60e51b815260040180806020018281038252602f8152602001806126dc602f913960400191505060405180910390fd5b60008281526008602090815260409182902080548351601f60026000196101006001861615020190931692909204918201849004840281018401909452808452606093928301828280156110e65780601f106110bb576101008083540402835291602001916110e6565b820191906000526020600020905b8154815290600101906020018083116110c957829003601f168201915b50506009549394505050506002600019610100600184161502019091160461110f57905061078f565b8051156111e05760098160405160200180838054600181600116156101000203166002900480156111775780601f10611155576101008083540402835291820191611177565b820191906000526020600020905b815481529060010190602001808311611163575b5050825160208401908083835b602083106111a35780518252601f199092019160209182019101611184565b6001836020036101000a0380198251168184511680821785525050505050509050019250505060405160208183030381529060405291505061078f565b60096111eb84611b9b565b60405160200180838054600181600116156101000203166002900480156112495780601f10611227576101008083540402835291820191611249565b820191906000526020600020905b815481529060010190602001808311611235575b5050825160208401908083835b602083106112755780518252601f199092019160209182019101611256565b6001836020036101000a03801982511681845116808217855250505050505090500192505050604051602081830303815290604052915050919050565b6001600160a01b03918216600090815260056020908152604080832093909416825291909152205460ff1690565b600b546001600160a01b031681565b600d5481565b6112fd611413565b600a546001600160a01b0390811691161461135f576040805162461bcd60e51b815260206004820181905260248201527f4f776e61626c653a2063616c6c6572206973206e6f7420746865206f776e6572604482015290519081900360640190fd5b6001600160a01b0381166113a45760405162461bcd60e51b81526004018080602001828103825260268152602001806125646026913960400191505060405180910390fd5b600a546040516001600160a01b038084169216907f8be0079c531659141344cd1fd0a4f28419497f9722a3daafe3b4186f6b6457e090600090a3600a80546001600160a01b0319166001600160a01b0392909216919091179055565b600061097e60028363ffffffff611c7616565b3390565b600081815260046020526040902080546001600160a01b0319166001600160a01b038416908117909155819061144c82610af5565b6001600160a01b03167f8c5be1e5ebec7d5bd14f71427d1e84f3dd0314c0f7b2291e5b200ac8c7c3b92560405160405180910390a45050565b604080513060248201526044808201939093528151808203909301835260640190526020810180516001600160e01b031663189acdbd60e31b17905290565b60008061155d83856040516020018083805190602001908083835b602083106114fe5780518252601f1990920191602091820191016114df565b6001836020036101000a038019825116818451168082178552505050505050905001826001600160a01b03166001600160a01b031660601b81526014019250505060405160208183030381529060405280519060200120600d54611c82565b6001600160a01b0316949350505050565b600061097e82611c8f565b600061158482611400565b6115bf5760405162461bcd60e51b815260040180806020018281038252602c8152602001806125ae602c913960400191505060405180910390fd5b60006115ca83610af5565b9050806001600160a01b0316846001600160a01b031614806116055750836001600160a01b03166115fa8461082a565b6001600160a01b0316145b80611615575061161581856112b2565b949350505050565b826001600160a01b031661163082610af5565b6001600160a01b0316146116755760405162461bcd60e51b81526004018080602001828103825260298152602001806126b36029913960400191505060405180910390fd5b6001600160a01b0382166116ba5760405162461bcd60e51b815260040180806020018281038252602481526020018061258a6024913960400191505060405180910390fd5b6116c5838383610962565b6116d0600082611417565b6001600160a01b03831660009081526001602052604090206116f8908263ffffffff611c9316565b506001600160a01b0382166000908152600160205260409020611721908263ffffffff611c9f16565b506117346002828463ffffffff611cab16565b5080826001600160a01b0316846001600160a01b03167fddf252ad1be2c89b69c2b068fc378daa952ba7f163c4a11628f55a4df523b3ef60405160405180910390a4505050565b600061097b8383611cc1565b604080516302571be360e01b81527f91d1777781884d03a6757a803996e38de2a42967fb37eeaca72729271025a9e2600482015290516001600160a01b038416916302571be3916024808301926020929190829003018186803b1580156117ed57600080fd5b505afa158015611801573d6000803e3d6000fd5b505050506040513d602081101561181757600080fd5b505160405163c47f002760e01b81526020600482018181528451602484015284516001600160a01b039094169363c47f002793869383926044909201919085019080838360005b8381101561187657818101518382015260200161185e565b50505050905090810190601f1680156118a35780820380516001836020036101000a031916815260200191505b5092505050602060405180830381600087803b1580156118c257600080fd5b505af11580156118d6573d6000803e3d6000fd5b505050506040513d602081101561100557600080fd5b60008080806118fb8686611d25565b9097909650945050505050565b6000611915848484611da0565b90505b9392505050565b600080611a52600084866040516020018083805190602001908083835b6020831061195b5780518252601f19909201916020918201910161193c565b6001836020036101000a038019825116818451168082178552505050505050905001826001600160a01b03166001600160a01b031660601b81526014019250505060405160208183030381529060405280519060200120600c8054600181600116156101000203166002900480601f016020809104026020016040519081016040528092919081815260200182805460018160011615610100020316600290048015611a485780601f10611a1d57610100808354040283529160200191611a48565b820191906000526020600020905b815481529060010190602001808311611a2b57829003601f168201915b5050505050611e2d565b600b546040805163347d5e2560e21b81526001600160a01b0392831660048201818152602483019384528851604484015288519596509386169463d1f5789494919389939091606490910190602085019080838360005b83811015611ac1578181015183820152602001611aa9565b50505050905090810190601f168015611aee5780820380516001836020036101000a031916815260200191505b509350505050600060405180830381600087803b158015611b0e57600080fd5b505af1158015611b22573d6000803e3d6000fd5b50505050611b3984826001600160a01b0316611f3e565b6001600160a01b03169392505050565b611b5484848461161d565b611b6084848484612078565b6110055760405162461bcd60e51b81526004018080602001828103825260328152602001806125326032913960400191505060405180910390fd5b606081611bc057506040805180820190915260018152600360fc1b602082015261078f565b8160005b8115611bd857600101600a82049150611bc4565b60608167ffffffffffffffff81118015611bf157600080fd5b506040519080825280601f01601f191660200182016040528015611c1c576020820181803683370190505b50859350905060001982015b8315611c6d57600a840660300160f81b82828060019003935081518110611c4b57fe5b60200101906001600160f81b031916908160001a905350600a84049350611c28565b50949350505050565b600061097b83836122b3565b600061097b8383306122cb565b5490565b600061097b838361232f565b600061097b83836123f5565b600061191584846001600160a01b03851661243f565b81546000908210611d035760405162461bcd60e51b81526004018080602001828103825260228152602001806125106022913960400191505060405180910390fd5b826000018281548110611d1257fe5b9060005260206000200154905092915050565b815460009081908310611d695760405162461bcd60e51b81526004018080602001828103825260228152602001806126656022913960400191505060405180910390fd5b6000846000018481548110611d7a57fe5b906000526020600020906002020190508060000154816001015492509250509250929050565b60008281526001840160205260408120548281611dfe5760405162461bcd60e51b8152602060048201818152835160248401528351909283926044909101919085019080838360008315610f68578181015183820152602001610f50565b50846000016001820381548110611e1157fe5b9060005260206000209060020201600101549150509392505050565b60008084471015611e85576040805162461bcd60e51b815260206004820152601d60248201527f437265617465323a20696e73756666696369656e742062616c616e6365000000604482015290519081900360640190fd5b8251611ed8576040805162461bcd60e51b815260206004820181905260248201527f437265617465323a2062797465636f6465206c656e677468206973207a65726f604482015290519081900360640190fd5b8383516020850187f590506001600160a01b038116611915576040805162461bcd60e51b815260206004820152601960248201527f437265617465323a204661696c6564206f6e206465706c6f7900000000000000604482015290519081900360640190fd5b6001600160a01b038216611f99576040805162461bcd60e51b815260206004820181905260248201527f4552433732313a206d696e7420746f20746865207a65726f2061646472657373604482015290519081900360640190fd5b611fa281611400565b15611ff4576040805162461bcd60e51b815260206004820152601c60248201527f4552433732313a20746f6b656e20616c7265616479206d696e74656400000000604482015290519081900360640190fd5b61200060008383610962565b6001600160a01b0382166000908152600160205260409020612028908263ffffffff611c9f16565b5061203b6002828463ffffffff611cab16565b5060405181906001600160a01b038416906000907fddf252ad1be2c89b69c2b068fc378daa952ba7f163c4a11628f55a4df523b3ef908290a45050565b600061208c846001600160a01b03166124d6565b61209857506001611615565b600060606001600160a01b038616630a85bd0160e11b6120b6611413565b89888860405160240180856001600160a01b03166001600160a01b03168152602001846001600160a01b03166001600160a01b0316815260200183815260200180602001828103825283818151815260200191508051906020019080838360005b8381101561212f578181015183820152602001612117565b50505050905090810190601f16801561215c5780820380516001836020036101000a031916815260200191505b5060408051601f198184030181529181526020820180516001600160e01b03166001600160e01b0319909a16999099178952518151919890975087965094509250829150849050835b602083106121c45780518252601f1990920191602091820191016121a5565b6001836020036101000a0380198251168184511680821785525050505050509050019150506000604051808303816000865af19150503d8060008114612226576040519150601f19603f3d011682016040523d82523d6000602084013e61222b565b606091505b50915091508161227c578051156122455780518082602001fd5b60405162461bcd60e51b81526004018080602001828103825260328152602001806125326032913960400191505060405180910390fd5b600081806020019051602081101561229357600080fd5b50516001600160e01b031916630a85bd0160e11b14935061161592505050565b60009081526001919091016020526040902054151590565b604080516001600160f81b031960208083019190915260609390931b6bffffffffffffffffffffffff19166021820152603581019490945260558085019390935280518085039093018352607590930190925280519101206001600160a01b031690565b600081815260018301602052604081205480156123eb578354600019808301919081019060009087908390811061236257fe5b906000526020600020015490508087600001848154811061237f57fe5b6000918252602080832090910192909255828152600189810190925260409020908401905586548790806123af57fe5b6001900381819060005260206000200160009055905586600101600087815260200190815260200160002060009055600194505050505061097e565b600091505061097e565b600061240183836122b3565b6124375750815460018181018455600084815260208082209093018490558454848252828601909352604090209190915561097e565b50600061097e565b6000828152600184016020526040812054806124a4575050604080518082018252838152602080820184815286546001818101895560008981528481209551600290930290950191825591519082015586548684528188019092529290912055611918565b828560000160018303815481106124b757fe5b9060005260206000209060020201600101819055506000915050611918565b6000813f7fc5d2460186f7233c927e7db2dcc703c0e500b653ca82273b7bfad8045d85a47081811480159061161557505015159291505056fe456e756d657261626c655365743a20696e646578206f7574206f6620626f756e64734552433732313a207472616e7366657220746f206e6f6e20455243373231526563656976657220696d706c656d656e7465724f776e61626c653a206e6577206f776e657220697320746865207a65726f20616464726573734552433732313a207472616e7366657220746f20746865207a65726f20616464726573734552433732313a206f70657261746f7220717565727920666f72206e6f6e6578697374656e7420746f6b656e4552433732313a20617070726f76652063616c6c6572206973206e6f74206f776e6572206e6f7220617070726f76656420666f7220616c6c4552433732313a2062616c616e636520717565727920666f7220746865207a65726f20616464726573734552433732313a206f776e657220717565727920666f72206e6f6e6578697374656e7420746f6b656e456e756d657261626c654d61703a20696e646578206f7574206f6620626f756e64734552433732313a20617070726f76656420717565727920666f72206e6f6e6578697374656e7420746f6b656e4552433732313a207472616e73666572206f6620746f6b656e2074686174206973206e6f74206f776e4552433732314d657461646174613a2055524920717565727920666f72206e6f6e6578697374656e7420746f6b656e4552433732313a20617070726f76616c20746f2063757272656e74206f776e65724552433732313a207472616e736665722063616c6c6572206973206e6f74206f776e6572206e6f7220617070726f766564a2646970667358221220fb5f5562aa24e26b750fda56968fd4325e0f53081aa0998cd6d15016aad051ca64736f6c634300060600336080604052610c45806100136000396000f3fe60806040526004361061007f5760003560e01c80638da5cb5b1161004e5780638da5cb5b1461016b578063aef0562914610180578063c4d66de8146101a2578063d7f31eb9146101c2576100ce565b8063150b7a02146100d35780631626ba7e1461010957806320c13b0b146101295780637b10399914610149576100ce565b366100ce5761008c6101e2565b6001600160a01b03167f88a5966d370b9919b20f3e2c13ff65706f196a4e32cc2c12bf57088f88525874346040516100c49190610b45565b60405180910390a2005b600080fd5b3480156100df57600080fd5b506100f36100ee3660046107c3565b6101e6565b6040516101009190610a82565b60405180910390f35b34801561011557600080fd5b506100f3610124366004610951565b6101f6565b34801561013557600080fd5b506100f361014436600461099b565b61026c565b34801561015557600080fd5b5061015e6102fa565b6040516101009190610a50565b34801561017757600080fd5b5061015e610309565b34801561018c57600080fd5b506101a061019b3660046108e5565b61038f565b005b3480156101ae57600080fd5b506101a06101bd366004610784565b6104a6565b3480156101ce57600080fd5b506101a06101dd36600461088b565b6104f1565b3390565b630a85bd0160e11b949350505050565b60006102388484848080601f01602080910402602001604051908101604052809392919081815260200183838082843760009201919091525061057792505050565b6001600160a01b0316610249610309565b6001600160a01b03161461025c57600080fd5b50630b135d3f60e11b9392505050565b60006102c58585604051610281929190610a24565b604051809103902084848080601f01602080910402602001604051908101604052809392919081815260200183838082843760009201919091525061057792505050565b6001600160a01b03166102d6610309565b6001600160a01b0316146102e957600080fd5b506320c13b0b60e01b949350505050565b6000546001600160a01b031681565b600080546040516331a9108f60e11b81526001600160a01b0390911690636352211e9061033a903090600401610b45565b60206040518083038186803b15801561035257600080fd5b505afa158015610366573d6000803e3d6000fd5b505050506040513d601f19601f8201168201806040525081019061038a91906107a7565b905090565b6103976101e2565b6001600160a01b03166103a8610309565b6001600160a01b0316146103d75760405162461bcd60e51b81526004016103ce90610ad7565b60405180910390fd5b60005b818110156104a1576104998383838181106103f157fe5b90506020028101906104039190610bb6565b610411906020810190610784565b84848481811061041d57fe5b905060200281019061042f9190610bb6565b6020013585858581811061043f57fe5b90506020028101906104519190610bb6565b61045f906040810190610b6f565b8080601f01602080910402602001604051908101604052809392919081815260200183838082843760009201919091525061066e92505050565b6001016103da565b505050565b6000546001600160a01b0316156104cf5760405162461bcd60e51b81526004016103ce90610aaa565b600080546001600160a01b0319166001600160a01b0392909216919091179055565b6104f96101e2565b6001600160a01b031661050a610309565b6001600160a01b0316146105305760405162461bcd60e51b81526004016103ce90610ad7565b610571848484848080601f01602080910402602001604051908101604052809392919081815260200183838082843760009201919091525061066e92505050565b50505050565b6000806000808451604114156105a15750505060208201516040830151606084015160001a6105e6565b8451604014156105ce57505050602082015160408301516001600160ff1b0381169060001a60071c6105e6565b60405162461bcd60e51b81526004016103ce90610b0e565b601b8160ff1610156105f657601b015b8060ff16601b148061060b57508060ff16601c145b61061457600080fd5b600186828585604051600081526020016040526040516106379493929190610a64565b6020604051602081039080840390855afa158015610659573d6000803e3d6000fd5b5050604051601f190151979650505050505050565b60006060846001600160a01b0316848460405161068b9190610a34565b60006040518083038185875af1925050503d80600081146106c8576040519150601f19603f3d011682016040523d82523d6000602084013e6106cd565b606091505b50915091508181906106f25760405162461bcd60e51b81526004016103ce9190610a97565b50846001600160a01b03167fcaf938de11c367272220bfd1d2baa99ca46665e7bc4d85f00adb51b90fe1fa9f858560405161072e929190610b4e565b60405180910390a25050505050565b60008083601f84011261074e578182fd5b50813567ffffffffffffffff811115610765578182fd5b60208301915083602082850101111561077d57600080fd5b9250929050565b600060208284031215610795578081fd5b81356107a081610bf7565b9392505050565b6000602082840312156107b8578081fd5b81516107a081610bf7565b600080600080608085870312156107d8578283fd5b84356107e381610bf7565b93506020858101356107f481610bf7565b935060408601359250606086013567ffffffffffffffff80821115610817578384fd5b81880189601f820112610828578485fd5b8035925081831115610838578485fd5b604051601f8401601f1916810185018381118282101715610857578687fd5b60405283815281840185018b101561086d578586fd5b83858301868301379283019093019390935294979396509194505050565b600080600080606085870312156108a0578384fd5b84356108ab81610bf7565b935060208501359250604085013567ffffffffffffffff8111156108cd578283fd5b6108d98782880161073d565b95989497509550505050565b600080602083850312156108f7578182fd5b823567ffffffffffffffff8082111561090e578384fd5b81850186601f82011261091f578485fd5b803592508183111561092f578485fd5b8660208085028301011115610942578485fd5b60200196919550909350505050565b600080600060408486031215610965578283fd5b83359250602084013567ffffffffffffffff811115610982578283fd5b61098e8682870161073d565b9497909650939450505050565b600080600080604085870312156109b0578384fd5b843567ffffffffffffffff808211156109c7578586fd5b6109d38883890161073d565b909650945060208701359150808211156109eb578384fd5b506108d98782880161073d565b60008151808452610a10816020860160208601610bcb565b601f01601f19169290920160200192915050565b6000828483379101908152919050565b60008251610a46818460208701610bcb565b9190910192915050565b6001600160a01b0391909116815260200190565b93845260ff9290921660208401526040830152606082015260800190565b6001600160e01b031991909116815260200190565b6000602082526107a060208301846109f8565b602080825260139082015272185b1c9958591e481a5b9a5d1a585b1a5e9959606a1b604082015260600190565b60208082526017908201527f63616c6c6572206973206e6f7420746865206f776e6572000000000000000000604082015260600190565b60208082526018908201527f696e76616c69642d7369676e61747572652d666f726d61740000000000000000604082015260600190565b90815260200190565b600083825260406020830152610b6760408301846109f8565b949350505050565b6000808335601e19843603018112610b85578283fd5b8084018035925067ffffffffffffffff831115610ba0578384fd5b6020019250503681900382131561077d57600080fd5b60008235605e19833603018112610a46578182fd5b60005b83811015610be6578181015183820152602001610bce565b838111156105715750506000910152565b6001600160a01b0381168114610c0c57600080fd5b5056fea2646970667358221220d91d2ae9f579a8cc98869a39b1cf04cb1aec10e04fdb03735f65d9daa801ff2364736f6c63430006060033608060405234801561001057600080fd5b506103ad806100206000396000f3fe6080604052600436106100225760003560e01c8063d1f578941461003957610031565b366100315761002f6100ef565b005b61002f6100ef565b61002f6004803603604081101561004f57600080fd5b6001600160a01b03823516919081019060408101602082013564010000000081111561007a57600080fd5b82018360208201111561008c57600080fd5b803590602001918460018302840111640100000000831117156100ae57600080fd5b91908080601f016020809104026020016040519081016040528093929190818152602001838380828437600092019190915250929550610109945050505050565b6100f7610107565b61010761010261022c565b610251565b565b600061011361022c565b6001600160a01b03161461012657600080fd5b60405180602361031a82396040519081900360230190207f7050c9e0f4ca769c69bd3a8ef740bc37934f8e2c036e5a723fd8ee048ed3f8c314905061016757fe5b61017082610275565b805115610228576000826001600160a01b0316826040518082805190602001908083835b602083106101b35780518252601f199092019160209182019101610194565b6001836020036101000a038019825116818451168082178552505050505050905001915050600060405180830381855af49150503d8060008114610213576040519150601f19603f3d011682016040523d82523d6000602084013e610218565b606091505b505090508061022657600080fd5b505b5050565b7f7050c9e0f4ca769c69bd3a8ef740bc37934f8e2c036e5a723fd8ee048ed3f8c35490565b3660008037600080366000845af43d6000803e808015610270573d6000f35b3d6000fd5b61027e816102dd565b6102b95760405162461bcd60e51b815260040180806020018281038252603b81526020018061033d603b913960400191505060405180910390fd5b7f7050c9e0f4ca769c69bd3a8ef740bc37934f8e2c036e5a723fd8ee048ed3f8c355565b6000813f7fc5d2460186f7233c927e7db2dcc703c0e500b653ca82273b7bfad8045d85a47081811480159061031157508115155b94935050505056fe6f72672e7a657070656c696e6f732e70726f78792e696d706c656d656e746174696f6e43616e6e6f742073657420612070726f787920696d706c656d656e746174696f6e20746f2061206e6f6e2d636f6e74726163742061646472657373a2646970667358221220f4af5f38b16e1ce890fd14497bea12d47bed23b9e542d8461f60b0d5a7952a1e64736f6c63430006060033",
  "immutableReferences": {},
  "source": "pragma solidity ^0.6.0;\n\nimport \"@iexec/solidity/contracts/ENStools/ENSReverseRegistration.sol\";\nimport \"./core/CounterfactualTokenRegistry.sol\";\nimport \"./NFWallet.sol\";\n\n\ncontract NFWalletFactory is CounterfactualTokenRegistry, ENSReverseRegistration\n{\n\tconstructor()\n\tpublic CounterfactualTokenRegistry(\n\t\taddress(new NFWallet()),\n\t\t'NonFungibleWallet',\n\t\t'NFW')\n\t{\n\t}\n\n\tfunction encodeInitializer(bytes32 _salt)\n\tinternal view returns (bytes memory)\n\t{\n\t\treturn abi.encodeWithSignature('initialize(address)', address(this), _salt);\n\t}\n\n\tfunction createWallet(address _owner, bytes32 _salt)\n\texternal payable returns (address)\n\t{\n\t\taddress wallet = address(_mintCreate(_owner, encodeInitializer(_salt)));\n\t\tif (msg.value > 0)\n\t\t{\n\t\t\t(bool success, bytes memory returndata) = payable(wallet).call{value: msg.value}('');\n\t\t\trequire(success, string(returndata));\n\t\t}\n\t\treturn wallet;\n\t}\n\n\tfunction predictWallet(address _owner, bytes32 _salt)\n\texternal view returns (address)\n\t{\n\t\treturn address(_mintPredict(_owner, encodeInitializer(_salt)));\n\t}\n\n\tfunction setName(address _ens, string calldata _name)\n\texternal onlyOwner()\n\t{\n\t\t_setName(ENS(_ens), _name);\n\t}\n}\n",
  "sourcePath": "/home/amxx/Work/Projects/NFWallets/solidity/contracts/NFWalletFactory.sol",
  "compiler": {
    "name": "solc",
    "version": "0.6.6+commit.6c089d02.Emscripten.clang"
  },
  "schemaVersion": "3.1.0",
  "updatedAt": "2020-04-24T22:09:23.446Z",
  "networkType": "ethereum",
  "devdoc": {
    "methods": {
      "approve(address,uint256)": {
        "details": "Approves another address to transfer the given token ID The zero address indicates there is no approved address. There can only be one approved address per token at a given time. Can only be called by the token owner or an approved operator.",
        "params": {
          "to": "address to be approved for the given token ID",
          "tokenId": "uint256 ID of the token to be approved"
        }
      },
      "balanceOf(address)": {
        "details": "Gets the balance of the specified address.",
        "params": {
          "owner": "address to query the balance of"
        },
        "returns": {
          "_0": "uint256 representing the amount owned by the passed address"
        }
      },
      "baseURI()": {
        "details": "Returns the base URI set via {_setBaseURI}. This will be automatically added as a prefix in {tokenURI} to each token's URI, or to the token ID if no specific URI is set for that token ID."
      },
      "getApproved(uint256)": {
        "details": "Gets the approved address for a token ID, or zero if no address set Reverts if the token ID does not exist.",
        "params": {
          "tokenId": "uint256 ID of the token to query the approval of"
        },
        "returns": {
          "_0": "address currently approved for the given token ID"
        }
      },
      "isApprovedForAll(address,address)": {
        "details": "Tells whether an operator is approved by a given owner.",
        "params": {
          "operator": "operator address which you want to query the approval of",
          "owner": "owner address which you want to query the approval of"
        },
        "returns": {
          "_0": "bool whether the given operator is approved by the given owner"
        }
      },
      "name()": {
        "details": "Gets the token name.",
        "returns": {
          "_0": "string representing the token name"
        }
      },
      "owner()": {
        "details": "Returns the address of the current owner."
      },
      "ownerOf(uint256)": {
        "details": "Gets the owner of the specified token ID.",
        "params": {
          "tokenId": "uint256 ID of the token to query the owner of"
        },
        "returns": {
          "_0": "address currently marked as the owner of the given token ID"
        }
      },
      "renounceOwnership()": {
        "details": "Leaves the contract without owner. It will not be possible to call `onlyOwner` functions anymore. Can only be called by the current owner.     * NOTE: Renouncing ownership will leave the contract without an owner, thereby removing any functionality that is only available to the owner."
      },
      "safeTransferFrom(address,address,uint256)": {
        "details": "Safely transfers the ownership of a given token ID to another address If the target address is a contract, it must implement {IERC721Receiver-onERC721Received}, which is called upon a safe transfer, and return the magic value `bytes4(keccak256(\"onERC721Received(address,address,uint256,bytes)\"))`; otherwise, the transfer is reverted. Requires the msg.sender to be the owner, approved, or operator",
        "params": {
          "from": "current owner of the token",
          "to": "address to receive the ownership of the given token ID",
          "tokenId": "uint256 ID of the token to be transferred"
        }
      },
      "safeTransferFrom(address,address,uint256,bytes)": {
        "details": "Safely transfers the ownership of a given token ID to another address If the target address is a contract, it must implement {IERC721Receiver-onERC721Received}, which is called upon a safe transfer, and return the magic value `bytes4(keccak256(\"onERC721Received(address,address,uint256,bytes)\"))`; otherwise, the transfer is reverted. Requires the _msgSender() to be the owner, approved, or operator",
        "params": {
          "_data": "bytes data to send along with a safe transfer check",
          "from": "current owner of the token",
          "to": "address to receive the ownership of the given token ID",
          "tokenId": "uint256 ID of the token to be transferred"
        }
      },
      "setApprovalForAll(address,bool)": {
        "details": "Sets or unsets the approval of a given operator An operator is allowed to transfer all tokens of the sender on their behalf.",
        "params": {
          "approved": "representing the status of the approval to be set",
          "operator": "operator address to set the approval"
        }
      },
      "supportsInterface(bytes4)": {
        "details": "See {IERC165-supportsInterface}.     * Time complexity O(1), guaranteed to always use less than 30 000 gas."
      },
      "symbol()": {
        "details": "Gets the token symbol.",
        "returns": {
          "_0": "string representing the token symbol"
        }
      },
      "tokenByIndex(uint256)": {
        "details": "Gets the token ID at a given index of all the tokens in this contract Reverts if the index is greater or equal to the total number of tokens.",
        "params": {
          "index": "uint256 representing the index to be accessed of the tokens list"
        },
        "returns": {
          "_0": "uint256 token ID at the given index of the tokens list"
        }
      },
      "tokenOfOwnerByIndex(address,uint256)": {
        "details": "Gets the token ID at a given index of the tokens list of the requested owner.",
        "params": {
          "index": "uint256 representing the index to be accessed of the requested tokens list",
          "owner": "address owning the tokens list to be accessed"
        },
        "returns": {
          "_0": "uint256 token ID at the given index of the tokens list owned by the requested address"
        }
      },
      "tokenURI(uint256)": {
        "details": "Returns the URI for a given token ID. May return an empty string.     * If a base URI is set (via {_setBaseURI}), it is added as a prefix to the token's own URI (via {_setTokenURI}).     * If there is a base URI but no token URI, the token's ID will be used as its URI when appending it to the base URI. This pattern for autogenerated token URIs can lead to large gas savings.     * .Examples |=== |`_setBaseURI()` |`_setTokenURI()` |`tokenURI()` | \"\" | \"\" | \"\" | \"\" | \"token.uri/123\" | \"token.uri/123\" | \"token.uri/\" | \"123\" | \"token.uri/123\" | \"token.uri/\" | \"\" | \"token.uri/<tokenId>\" |===     * Requirements:     * - `tokenId` must exist."
      },
      "totalSupply()": {
        "details": "Gets the total amount of tokens stored by the contract.",
        "returns": {
          "_0": "uint256 representing the total amount of tokens"
        }
      },
      "transferFrom(address,address,uint256)": {
        "details": "Transfers the ownership of a given token ID to another address. Usage of this method is discouraged, use {safeTransferFrom} whenever possible. Requires the msg.sender to be the owner, approved, or operator.",
        "params": {
          "from": "current owner of the token",
          "to": "address to receive the ownership of the given token ID",
          "tokenId": "uint256 ID of the token to be transferred"
        }
      },
      "transferOwnership(address)": {
        "details": "Transfers ownership of the contract to a new account (`newOwner`). Can only be called by the current owner."
      }
    }
  },
  "userdoc": {
    "methods": {}
  }
}