{
  "contractName": "NFWallet",
  "abi": [
    {
      "anonymous": false,
      "inputs": [
        {
          "indexed": true,
          "internalType": "address",
          "name": "from",
          "type": "address"
        },
        {
          "indexed": false,
          "internalType": "uint256",
          "name": "value",
          "type": "uint256"
        }
      ],
      "name": "Received",
      "type": "event"
    },
    {
      "inputs": [],
      "name": "owner",
      "outputs": [
        {
          "internalType": "address",
          "name": "",
          "type": "address"
        }
      ],
      "stateMutability": "view",
      "type": "function"
    },
    {
      "inputs": [],
      "name": "registry",
      "outputs": [
        {
          "internalType": "contract IERC721",
          "name": "",
          "type": "address"
        }
      ],
      "stateMutability": "view",
      "type": "function"
    },
    {
      "stateMutability": "payable",
      "type": "receive"
    },
    {
      "inputs": [],
      "name": "initialize",
      "outputs": [],
      "stateMutability": "nonpayable",
      "type": "function"
    },
    {
      "inputs": [
        {
          "internalType": "address",
          "name": "",
          "type": "address"
        },
        {
          "internalType": "address",
          "name": "",
          "type": "address"
        },
        {
          "internalType": "uint256",
          "name": "",
          "type": "uint256"
        },
        {
          "internalType": "bytes",
          "name": "",
          "type": "bytes"
        }
      ],
      "name": "onERC721Received",
      "outputs": [
        {
          "internalType": "bytes4",
          "name": "",
          "type": "bytes4"
        }
      ],
      "stateMutability": "nonpayable",
      "type": "function"
    },
    {
      "inputs": [
        {
          "internalType": "address",
          "name": "to",
          "type": "address"
        },
        {
          "internalType": "uint256",
          "name": "value",
          "type": "uint256"
        },
        {
          "internalType": "bytes",
          "name": "data",
          "type": "bytes"
        }
      ],
      "name": "forward",
      "outputs": [],
      "stateMutability": "nonpayable",
      "type": "function"
    },
    {
      "inputs": [
        {
          "components": [
            {
              "internalType": "address",
              "name": "to",
              "type": "address"
            },
            {
              "internalType": "uint256",
              "name": "value",
              "type": "uint256"
            },
            {
              "internalType": "bytes",
              "name": "data",
              "type": "bytes"
            }
          ],
          "internalType": "struct Call[]",
          "name": "calls",
          "type": "tuple[]"
        }
      ],
      "name": "forwardBatch",
      "outputs": [],
      "stateMutability": "nonpayable",
      "type": "function"
    }
  ],
  "bytecode": "0x608060405261085b806100136000396000f3fe6080604052600436106100595760003560e01c8063150b7a02146100ad5780637b103999146100e35780638129fc1c146101055780638da5cb5b1461011c578063aef0562914610131578063d7f31eb914610151576100a8565b366100a857610066610171565b6001600160a01b03167f88a5966d370b9919b20f3e2c13ff65706f196a4e32cc2c12bf57088f885258743460405161009e9190610775565b60405180910390a2005b600080fd5b3480156100b957600080fd5b506100cd6100c83660046104df565b610175565b6040516100da91906106c9565b60405180910390f35b3480156100ef57600080fd5b506100f8610185565b6040516100da91906106b5565b34801561011157600080fd5b5061011a610194565b005b34801561012857600080fd5b506100f86101a6565b34801561013d57600080fd5b5061011a61014c36600461062d565b61022c565b34801561015d57600080fd5b5061011a61016c3660046105a7565b610343565b3390565b630a85bd0160e11b949350505050565b6000546001600160a01b031681565b6101a461019f610171565b6103c9565b565b600080546040516331a9108f60e11b81526001600160a01b0390911690636352211e906101d7903090600401610775565b60206040518083038186803b1580156101ef57600080fd5b505afa158015610203573d6000803e3d6000fd5b505050506040513d601f19601f8201168201806040525081019061022791906104c3565b905090565b610234610171565b6001600160a01b03166102456101a6565b6001600160a01b0316146102745760405162461bcd60e51b815260040161026b9061073e565b60405180910390fd5b60005b8181101561033e5761033683838381811061028e57fe5b90506020028101906102a091906107cc565b6102ae9060208101906104a0565b8484848181106102ba57fe5b90506020028101906102cc91906107cc565b602001358585858181106102dc57fe5b90506020028101906102ee91906107cc565b6102fc90604081019061077e565b8080601f01602080910402602001604051908101604052809392919081815260200183838082843760009201919091525061041492505050565b600101610277565b505050565b61034b610171565b6001600160a01b031661035c6101a6565b6001600160a01b0316146103825760405162461bcd60e51b815260040161026b9061073e565b6103c3848484848080601f01602080910402602001604051908101604052809392919081815260200183838082843760009201919091525061041492505050565b50505050565b6000546001600160a01b0316156103f25760405162461bcd60e51b815260040161026b90610711565b600080546001600160a01b0319166001600160a01b0392909216919091179055565b60006060846001600160a01b031684846040516104319190610699565b60006040518083038185875af1925050503d806000811461046e576040519150601f19603f3d011682016040523d82523d6000602084013e610473565b606091505b50915091508181906104985760405162461bcd60e51b815260040161026b91906106de565b505050505050565b6000602082840312156104b1578081fd5b81356104bc8161080d565b9392505050565b6000602082840312156104d4578081fd5b81516104bc8161080d565b600080600080608085870312156104f4578283fd5b84356104ff8161080d565b93506020858101356105108161080d565b935060408601359250606086013567ffffffffffffffff80821115610533578384fd5b81880189601f820112610544578485fd5b8035925081831115610554578485fd5b604051601f8401601f1916810185018381118282101715610573578687fd5b60405283815281840185018b1015610589578586fd5b83858301868301379283019093019390935294979396509194505050565b600080600080606085870312156105bc578384fd5b84356105c78161080d565b935060208501359250604085013567ffffffffffffffff808211156105ea578384fd5b81870188601f8201126105fb578485fd5b803592508183111561060b578485fd5b88602084830101111561061c578485fd5b959894975050602090940194505050565b6000806020838503121561063f578182fd5b823567ffffffffffffffff80821115610656578384fd5b81850186601f820112610667578485fd5b8035925081831115610677578485fd5b866020808502830101111561068a578485fd5b60200196919550909350505050565b600082516106ab8184602087016107e1565b9190910192915050565b6001600160a01b0391909116815260200190565b6001600160e01b031991909116815260200190565b60006020825282518060208401526106fd8160408501602087016107e1565b601f01601f19169190910160400192915050565b602080825260139082015272185b1c9958591e481a5b9a5d1a585b1a5e9959606a1b604082015260600190565b60208082526017908201527f63616c6c6572206973206e6f7420746865206f776e6572000000000000000000604082015260600190565b90815260200190565b6000808335601e19843603018112610794578283fd5b8084018035925067ffffffffffffffff8311156107af578384fd5b602001925050368190038213156107c557600080fd5b9250929050565b60008235605e198336030181126106ab578182fd5b60005b838110156107fc5781810151838201526020016107e4565b838111156103c35750506000910152565b6001600160a01b038116811461082257600080fd5b5056fea2646970667358221220444c6e36c58123f7258bf37b7113c5e69d56c0dab899b7d7d2dcc3d739700e4864736f6c63430006060033",
  "immutableReferences": {},
  "source": "pragma solidity ^0.6.0;\npragma experimental ABIEncoderV2;\n\nimport \"@openzeppelin/contracts/token/ERC721/IERC721Receiver.sol\";\nimport \"./core/CounterfactualTokenEntity.sol\";\n\nstruct Call\n{\n\taddress to;\n\tuint256 value;\n\tbytes   data;\n}\n\ncontract NFWallet is CounterfactualTokenEntity, IERC721Receiver\n{\n\tevent Received(address indexed from, uint256 value);\n\n\tfunction initialize()\n\texternal\n\t{\n\t\t_initialize(_msgSender());\n\t}\n\n\t// Asset receiving\n\treceive()\n\texternal payable\n\t{\n\t\temit Received(_msgSender(), msg.value);\n\t}\n\n\tfunction onERC721Received(address, address, uint256, bytes memory)\n\tpublic override returns (bytes4)\n\t{\n\t\treturn this.onERC721Received.selector;\n\t}\n\n\t// Wallet\n\tfunction forward(address to, uint256 value, bytes calldata data)\n\texternal onlyOwner()\n\t{\n\t\t_execute(to, value, data);\n\t}\n\n\tfunction forwardBatch(Call[] calldata calls)\n\texternal onlyOwner()\n\t{\n\t\tfor (uint256 i = 0; i < calls.length; ++i)\n\t\t{\n\t\t\t_execute(calls[i].to, calls[i].value, calls[i].data);\n\t\t}\n\t}\n\n\tfunction _execute(address to, uint256 value, bytes memory data)\n\tinternal\n\t{\n\t\t(bool success, bytes memory returndata) = payable(to).call{value: value}(data);\n\t\trequire(success, string(returndata));\n\t}\n}\n",
  "sourcePath": "/home/amxx/Work/Projects/NFWallets/contracts/NFWallet.sol",
  "compiler": {
    "name": "solc",
    "version": "0.6.6+commit.6c089d02.Emscripten.clang"
  },
  "schemaVersion": "3.1.0",
  "updatedAt": "2020-04-23T07:47:13.320Z",
  "devdoc": {
    "methods": {}
  },
  "userdoc": {
    "methods": {}
  }
}