{
  "contractName": "NFWallet",
  "abi": [
    {
      "inputs": [],
      "name": "owner",
      "outputs": [
        {
          "internalType": "address",
          "name": "",
          "type": "address"
        }
      ],
      "stateMutability": "view",
      "type": "function"
    },
    {
      "inputs": [],
      "name": "registry",
      "outputs": [
        {
          "internalType": "contract IERC721",
          "name": "",
          "type": "address"
        }
      ],
      "stateMutability": "view",
      "type": "function"
    },
    {
      "inputs": [],
      "name": "initialize",
      "outputs": [],
      "stateMutability": "nonpayable",
      "type": "function"
    },
    {
      "inputs": [
        {
          "internalType": "address",
          "name": "to",
          "type": "address"
        },
        {
          "internalType": "uint256",
          "name": "value",
          "type": "uint256"
        },
        {
          "internalType": "bytes",
          "name": "data",
          "type": "bytes"
        }
      ],
      "name": "forward",
      "outputs": [],
      "stateMutability": "nonpayable",
      "type": "function"
    },
    {
      "inputs": [
        {
          "internalType": "address",
          "name": "_ens",
          "type": "address"
        },
        {
          "internalType": "string",
          "name": "_name",
          "type": "string"
        }
      ],
      "name": "setName",
      "outputs": [],
      "stateMutability": "nonpayable",
      "type": "function"
    },
    {
      "inputs": [
        {
          "internalType": "address",
          "name": "",
          "type": "address"
        },
        {
          "internalType": "address",
          "name": "",
          "type": "address"
        },
        {
          "internalType": "uint256",
          "name": "",
          "type": "uint256"
        },
        {
          "internalType": "bytes",
          "name": "",
          "type": "bytes"
        }
      ],
      "name": "onERC721Received",
      "outputs": [
        {
          "internalType": "bytes4",
          "name": "",
          "type": "bytes4"
        }
      ],
      "stateMutability": "nonpayable",
      "type": "function"
    }
  ],
  "bytecode": "0x608060405234801561001057600080fd5b50610744806100206000396000f3fe608060405234801561001057600080fd5b50600436106100625760003560e01c8063150b7a02146100675780633121db1c1461014a5780637b103999146101cc5780638129fc1c146101f05780638da5cb5b146101f8578063d7f31eb914610200575b600080fd5b61012d6004803603608081101561007d57600080fd5b6001600160a01b038235811692602081013590911691604082013591908101906080810160608201356401000000008111156100b857600080fd5b8201836020820111156100ca57600080fd5b803590602001918460018302840111640100000000831117156100ec57600080fd5b91908080601f016020809104026020016040519081016040528093929190818152602001838380828437600092019190915250929550610285945050505050565b604080516001600160e01b03199092168252519081900360200190f35b6101ca6004803603604081101561016057600080fd5b6001600160a01b03823516919081019060408101602082013564010000000081111561018b57600080fd5b82018360208201111561019d57600080fd5b803590602001918460018302840111640100000000831117156101bf57600080fd5b509092509050610295565b005b6101d4610338565b604080516001600160a01b039092168252519081900360200190f35b6101ca610347565b6101d4610352565b6101ca6004803603606081101561021657600080fd5b6001600160a01b038235169160208101359181019060608101604082013564010000000081111561024657600080fd5b82018360208201111561025857600080fd5b8035906020019184600183028401116401000000008311171561027a57600080fd5b5090925090506103cf565b630a85bd0160e11b949350505050565b3361029e610352565b6001600160a01b0316146102f3576040805162461bcd60e51b815260206004820152601760248201527631b0b63632b91034b9903737ba103a34329037bbb732b960491b604482015290519081900360640190fd5b6103338383838080601f01602080910402602001604051908101604052809392919081815260200183838082843760009201919091525061052d92505050565b505050565b6000546001600160a01b031681565b61035033610698565b565b60008054604080516331a9108f60e11b815230600482015290516001600160a01b0390921691636352211e91602480820192602092909190829003018186803b15801561039e57600080fd5b505afa1580156103b2573d6000803e3d6000fd5b505050506040513d60208110156103c857600080fd5b5051905090565b336103d8610352565b6001600160a01b03161461042d576040805162461bcd60e51b815260206004820152601760248201527631b0b63632b91034b9903737ba103a34329037bbb732b960491b604482015290519081900360640190fd5b60006060856001600160a01b0316858585604051808383808284376040519201945060009350909150508083038185875af1925050503d806000811461048f576040519150601f19603f3d011682016040523d82523d6000602084013e610494565b606091505b50915091508181906105245760405162461bcd60e51b81526004018080602001828103825283818151815260200191508051906020019080838360005b838110156104e95781810151838201526020016104d1565b50505050905090810190601f1680156105165780820380516001836020036101000a031916815260200191505b509250505060405180910390fd5b50505050505050565b604080516302571be360e01b81527f91d1777781884d03a6757a803996e38de2a42967fb37eeaca72729271025a9e2600482015290516001600160a01b038416916302571be3916024808301926020929190829003018186803b15801561059357600080fd5b505afa1580156105a7573d6000803e3d6000fd5b505050506040513d60208110156105bd57600080fd5b505160405163c47f002760e01b81526020600482018181528451602484015284516001600160a01b039094169363c47f002793869383926044909201919085019080838360005b8381101561061c578181015183820152602001610604565b50505050905090810190601f1680156106495780820380516001836020036101000a031916815260200191505b5092505050602060405180830381600087803b15801561066857600080fd5b505af115801561067c573d6000803e3d6000fd5b505050506040513d602081101561069257600080fd5b50505050565b6000546001600160a01b0316156106ec576040805162461bcd60e51b8152602060048201526013602482015272185b1c9958591e481a5b9a5d1a585b1a5e9959606a1b604482015290519081900360640190fd5b600080546001600160a01b0319166001600160a01b039290921691909117905556fea2646970667358221220efec042333921c1ae851d41033330984aae71033c2bfcaedad9c253114e5d4ae64736f6c63430006060033",
  "source": "pragma solidity ^0.6.0;\n\nimport \"@iexec/solidity/contracts/ENStools/ENSReverseRegistration.sol\";\nimport \"@openzeppelin/contracts/token/ERC721/IERC721Receiver.sol\";\nimport \"./core/RegistryEntry.sol\";\n\n\ncontract NFWallet is IERC721Receiver, RegistryEntry, ENSReverseRegistration\n{\n\tfunction initialize()\n\texternal\n\t{\n\t\t_initialize(msg.sender);\n\t}\n\n\tfunction forward(address to, uint256 value, bytes calldata data)\n\texternal onlyOwner()\n\t{\n\t\t(bool success, bytes memory returndata) = payable(to).call{value: value}(data);\n\t\trequire(success, string(returndata));\n\t}\n\n\tfunction setName(address _ens, string calldata _name)\n\texternal onlyOwner()\n\t{\n\t\t_setName(ENS(_ens), _name);\n\t}\n\n\tfunction onERC721Received(address, address, uint256, bytes memory)\n\tpublic override returns (bytes4)\n\t{\n\t\treturn this.onERC721Received.selector;\n\t}\n}\n",
  "sourcePath": "/home/amxx/Work/Projects/NFWallets/contracts/NFWallet.sol",
  "compiler": {
    "name": "solc",
    "version": "0.6.6+commit.6c089d02.Emscripten.clang"
  },
  "schemaVersion": "3.0.23",
  "updatedAt": "2020-04-22T19:19:06.652Z",
  "devdoc": {
    "methods": {}
  },
  "userdoc": {
    "methods": {}
  }
}