{
  "contractName": "NFWallet",
  "abi": [
    {
      "anonymous": false,
      "inputs": [
        {
          "indexed": true,
          "internalType": "address",
          "name": "from",
          "type": "address"
        },
        {
          "indexed": false,
          "internalType": "uint256",
          "name": "value",
          "type": "uint256"
        }
      ],
      "name": "Received",
      "type": "event"
    },
    {
      "inputs": [],
      "name": "owner",
      "outputs": [
        {
          "internalType": "address",
          "name": "",
          "type": "address"
        }
      ],
      "stateMutability": "view",
      "type": "function"
    },
    {
      "inputs": [],
      "name": "registry",
      "outputs": [
        {
          "internalType": "contract IERC721",
          "name": "",
          "type": "address"
        }
      ],
      "stateMutability": "view",
      "type": "function"
    },
    {
      "stateMutability": "payable",
      "type": "receive"
    },
    {
      "inputs": [],
      "name": "initialize",
      "outputs": [],
      "stateMutability": "nonpayable",
      "type": "function"
    },
    {
      "inputs": [
        {
          "internalType": "address",
          "name": "",
          "type": "address"
        },
        {
          "internalType": "address",
          "name": "",
          "type": "address"
        },
        {
          "internalType": "uint256",
          "name": "",
          "type": "uint256"
        },
        {
          "internalType": "bytes",
          "name": "",
          "type": "bytes"
        }
      ],
      "name": "onERC721Received",
      "outputs": [
        {
          "internalType": "bytes4",
          "name": "",
          "type": "bytes4"
        }
      ],
      "stateMutability": "nonpayable",
      "type": "function"
    },
    {
      "inputs": [
        {
          "internalType": "address",
          "name": "to",
          "type": "address"
        },
        {
          "internalType": "uint256",
          "name": "value",
          "type": "uint256"
        },
        {
          "internalType": "bytes",
          "name": "data",
          "type": "bytes"
        }
      ],
      "name": "forward",
      "outputs": [],
      "stateMutability": "nonpayable",
      "type": "function"
    },
    {
      "inputs": [
        {
          "components": [
            {
              "internalType": "address",
              "name": "to",
              "type": "address"
            },
            {
              "internalType": "uint256",
              "name": "value",
              "type": "uint256"
            },
            {
              "internalType": "bytes",
              "name": "data",
              "type": "bytes"
            }
          ],
          "internalType": "struct Call[]",
          "name": "calls",
          "type": "tuple[]"
        }
      ],
      "name": "forwardBatch",
      "outputs": [],
      "stateMutability": "nonpayable",
      "type": "function"
    }
  ],
  "bytecode": "0x608060405234801561001057600080fd5b50610829806100206000396000f3fe6080604052600436106100595760003560e01c8063150b7a02146100a65780637b103999146100dc5780638129fc1c146100fe5780638da5cb5b14610115578063aef056291461012a578063d7f31eb91461014a576100a1565b366100a157336001600160a01b03167f88a5966d370b9919b20f3e2c13ff65706f196a4e32cc2c12bf57088f88525874346040516100979190610743565b60405180910390a2005b600080fd5b3480156100b257600080fd5b506100c66100c13660046104ad565b61016a565b6040516100d39190610697565b60405180910390f35b3480156100e857600080fd5b506100f161017a565b6040516100d39190610683565b34801561010a57600080fd5b50610113610189565b005b34801561012157600080fd5b506100f1610194565b34801561013657600080fd5b506101136101453660046105fb565b61021a565b34801561015657600080fd5b50610113610165366004610575565b610321565b630a85bd0160e11b949350505050565b6000546001600160a01b031681565b61019233610397565b565b600080546040516331a9108f60e11b81526001600160a01b0390911690636352211e906101c5903090600401610743565b60206040518083038186803b1580156101dd57600080fd5b505afa1580156101f1573d6000803e3d6000fd5b505050506040513d601f19601f820116820180604052508101906102159190610491565b905090565b33610223610194565b6001600160a01b0316146102525760405162461bcd60e51b81526004016102499061070c565b60405180910390fd5b60005b8181101561031c5761031483838381811061026c57fe5b905060200281019061027e919061079a565b61028c90602081019061046e565b84848481811061029857fe5b90506020028101906102aa919061079a565b602001358585858181106102ba57fe5b90506020028101906102cc919061079a565b6102da90604081019061074c565b8080601f0160208091040260200160405190810160405280939291908181526020018383808284376000920191909152506103e292505050565b600101610255565b505050565b3361032a610194565b6001600160a01b0316146103505760405162461bcd60e51b81526004016102499061070c565b610391848484848080601f0160208091040260200160405190810160405280939291908181526020018383808284376000920191909152506103e292505050565b50505050565b6000546001600160a01b0316156103c05760405162461bcd60e51b8152600401610249906106df565b600080546001600160a01b0319166001600160a01b0392909216919091179055565b60006060846001600160a01b031684846040516103ff9190610667565b60006040518083038185875af1925050503d806000811461043c576040519150601f19603f3d011682016040523d82523d6000602084013e610441565b606091505b50915091508181906104665760405162461bcd60e51b815260040161024991906106ac565b505050505050565b60006020828403121561047f578081fd5b813561048a816107db565b9392505050565b6000602082840312156104a2578081fd5b815161048a816107db565b600080600080608085870312156104c2578283fd5b84356104cd816107db565b93506020858101356104de816107db565b935060408601359250606086013567ffffffffffffffff80821115610501578384fd5b81880189601f820112610512578485fd5b8035925081831115610522578485fd5b604051601f8401601f1916810185018381118282101715610541578687fd5b60405283815281840185018b1015610557578586fd5b83858301868301379283019093019390935294979396509194505050565b6000806000806060858703121561058a578384fd5b8435610595816107db565b935060208501359250604085013567ffffffffffffffff808211156105b8578384fd5b81870188601f8201126105c9578485fd5b80359250818311156105d9578485fd5b8860208483010111156105ea578485fd5b959894975050602090940194505050565b6000806020838503121561060d578182fd5b823567ffffffffffffffff80821115610624578384fd5b81850186601f820112610635578485fd5b8035925081831115610645578485fd5b8660208085028301011115610658578485fd5b60200196919550909350505050565b600082516106798184602087016107af565b9190910192915050565b6001600160a01b0391909116815260200190565b6001600160e01b031991909116815260200190565b60006020825282518060208401526106cb8160408501602087016107af565b601f01601f19169190910160400192915050565b602080825260139082015272185b1c9958591e481a5b9a5d1a585b1a5e9959606a1b604082015260600190565b60208082526017908201527f63616c6c6572206973206e6f7420746865206f776e6572000000000000000000604082015260600190565b90815260200190565b6000808335601e19843603018112610762578283fd5b8084018035925067ffffffffffffffff83111561077d578384fd5b6020019250503681900382131561079357600080fd5b9250929050565b60008235605e19833603018112610679578182fd5b60005b838110156107ca5781810151838201526020016107b2565b838111156103915750506000910152565b6001600160a01b03811681146107f057600080fd5b5056fea2646970667358221220ad59f8e51a39c98434ebe85cc41e5692dcf330aa433a6260ea6a4c9f988e6cad64736f6c63430006060033",
  "immutableReferences": {},
  "source": "pragma solidity ^0.6.0;\npragma experimental ABIEncoderV2;\n\nimport \"@openzeppelin/contracts/token/ERC721/IERC721Receiver.sol\";\nimport \"./core/CounterfactualTokenEntity.sol\";\n\nstruct Call\n{\n\taddress to;\n\tuint256 value;\n\tbytes   data;\n}\n\ncontract NFWallet is CounterfactualTokenEntity, IERC721Receiver\n{\n\tevent Received(address indexed from, uint256 value);\n\n\tfunction initialize()\n\texternal\n\t{\n\t\t_initialize(msg.sender);\n\t}\n\n\t// Asset receiving\n\treceive()\n\texternal payable\n\t{\n\t\temit Received(msg.sender, msg.value);\n\t}\n\n\tfunction onERC721Received(address, address, uint256, bytes memory)\n\tpublic override returns (bytes4)\n\t{\n\t\treturn this.onERC721Received.selector;\n\t}\n\n\t// Wallet\n\tfunction forward(address to, uint256 value, bytes calldata data)\n\texternal onlyOwner()\n\t{\n\t\t_execute(to, value, data);\n\t}\n\n\tfunction forwardBatch(Call[] calldata calls)\n\texternal onlyOwner()\n\t{\n\t\tfor (uint256 i = 0; i < calls.length; ++i)\n\t\t{\n\t\t\t_execute(calls[i].to, calls[i].value, calls[i].data);\n\t\t}\n\t}\n\n\tfunction _execute(address to, uint256 value, bytes memory data)\n\tinternal\n\t{\n\t\t(bool success, bytes memory returndata) = payable(to).call{value: value}(data);\n\t\trequire(success, string(returndata));\n\t}\n}\n",
  "sourcePath": "/home/amxx/Work/Projects/NFWallets/contracts/NFWallet.sol",
  "compiler": {
    "name": "solc",
    "version": "0.6.6+commit.6c089d02.Emscripten.clang"
  },
  "schemaVersion": "3.1.0",
  "updatedAt": "2020-04-22T22:40:25.822Z",
  "devdoc": {
    "methods": {}
  },
  "userdoc": {
    "methods": {}
  }
}