{
  "contractName": "NFWallet",
  "abi": [
    {
      "anonymous": false,
      "inputs": [
        {
          "indexed": true,
          "internalType": "address",
          "name": "from",
          "type": "address"
        },
        {
          "indexed": false,
          "internalType": "uint256",
          "name": "value",
          "type": "uint256"
        }
      ],
      "name": "Received",
      "type": "event"
    },
    {
      "inputs": [
        {
          "internalType": "address",
          "name": "_registry",
          "type": "address"
        }
      ],
      "name": "initialize",
      "outputs": [],
      "stateMutability": "nonpayable",
      "type": "function"
    },
    {
      "inputs": [],
      "name": "owner",
      "outputs": [
        {
          "internalType": "address",
          "name": "",
          "type": "address"
        }
      ],
      "stateMutability": "view",
      "type": "function"
    },
    {
      "inputs": [],
      "name": "registry",
      "outputs": [
        {
          "internalType": "contract IERC721",
          "name": "",
          "type": "address"
        }
      ],
      "stateMutability": "view",
      "type": "function"
    },
    {
      "stateMutability": "payable",
      "type": "receive"
    },
    {
      "inputs": [
        {
          "internalType": "address",
          "name": "",
          "type": "address"
        },
        {
          "internalType": "address",
          "name": "",
          "type": "address"
        },
        {
          "internalType": "uint256",
          "name": "",
          "type": "uint256"
        },
        {
          "internalType": "bytes",
          "name": "",
          "type": "bytes"
        }
      ],
      "name": "onERC721Received",
      "outputs": [
        {
          "internalType": "bytes4",
          "name": "",
          "type": "bytes4"
        }
      ],
      "stateMutability": "nonpayable",
      "type": "function"
    },
    {
      "inputs": [
        {
          "internalType": "address",
          "name": "to",
          "type": "address"
        },
        {
          "internalType": "uint256",
          "name": "value",
          "type": "uint256"
        },
        {
          "internalType": "bytes",
          "name": "data",
          "type": "bytes"
        }
      ],
      "name": "forward",
      "outputs": [],
      "stateMutability": "nonpayable",
      "type": "function"
    },
    {
      "inputs": [
        {
          "components": [
            {
              "internalType": "address",
              "name": "to",
              "type": "address"
            },
            {
              "internalType": "uint256",
              "name": "value",
              "type": "uint256"
            },
            {
              "internalType": "bytes",
              "name": "data",
              "type": "bytes"
            }
          ],
          "internalType": "struct Call[]",
          "name": "calls",
          "type": "tuple[]"
        }
      ],
      "name": "forwardBatch",
      "outputs": [],
      "stateMutability": "nonpayable",
      "type": "function"
    }
  ],
  "bytecode": "0x6080604052610854806100136000396000f3fe6080604052600436106100595760003560e01c8063150b7a02146100ad5780637b103999146100e35780638da5cb5b14610105578063aef056291461011a578063c4d66de81461013c578063d7f31eb91461015c576100a8565b366100a85761006661017c565b6001600160a01b03167f88a5966d370b9919b20f3e2c13ff65706f196a4e32cc2c12bf57088f885258743460405161009e919061076e565b60405180910390a2005b600080fd5b3480156100b957600080fd5b506100cd6100c83660046104d8565b610180565b6040516100da91906106c2565b60405180910390f35b3480156100ef57600080fd5b506100f8610190565b6040516100da91906106ae565b34801561011157600080fd5b506100f861019f565b34801561012657600080fd5b5061013a610135366004610626565b610225565b005b34801561014857600080fd5b5061013a610157366004610499565b61033c565b34801561016857600080fd5b5061013a6101773660046105a0565b610387565b3390565b630a85bd0160e11b949350505050565b6000546001600160a01b031681565b600080546040516331a9108f60e11b81526001600160a01b0390911690636352211e906101d090309060040161076e565b60206040518083038186803b1580156101e857600080fd5b505afa1580156101fc573d6000803e3d6000fd5b505050506040513d601f19601f8201168201806040525081019061022091906104bc565b905090565b61022d61017c565b6001600160a01b031661023e61019f565b6001600160a01b03161461026d5760405162461bcd60e51b815260040161026490610737565b60405180910390fd5b60005b818110156103375761032f83838381811061028757fe5b905060200281019061029991906107c5565b6102a7906020810190610499565b8484848181106102b357fe5b90506020028101906102c591906107c5565b602001358585858181106102d557fe5b90506020028101906102e791906107c5565b6102f5906040810190610777565b8080601f01602080910402602001604051908101604052809392919081815260200183838082843760009201919091525061040d92505050565b600101610270565b505050565b6000546001600160a01b0316156103655760405162461bcd60e51b81526004016102649061070a565b600080546001600160a01b0319166001600160a01b0392909216919091179055565b61038f61017c565b6001600160a01b03166103a061019f565b6001600160a01b0316146103c65760405162461bcd60e51b815260040161026490610737565b610407848484848080601f01602080910402602001604051908101604052809392919081815260200183838082843760009201919091525061040d92505050565b50505050565b60006060846001600160a01b0316848460405161042a9190610692565b60006040518083038185875af1925050503d8060008114610467576040519150601f19603f3d011682016040523d82523d6000602084013e61046c565b606091505b50915091508181906104915760405162461bcd60e51b815260040161026491906106d7565b505050505050565b6000602082840312156104aa578081fd5b81356104b581610806565b9392505050565b6000602082840312156104cd578081fd5b81516104b581610806565b600080600080608085870312156104ed578283fd5b84356104f881610806565b935060208581013561050981610806565b935060408601359250606086013567ffffffffffffffff8082111561052c578384fd5b81880189601f82011261053d578485fd5b803592508183111561054d578485fd5b604051601f8401601f191681018501838111828210171561056c578687fd5b60405283815281840185018b1015610582578586fd5b83858301868301379283019093019390935294979396509194505050565b600080600080606085870312156105b5578384fd5b84356105c081610806565b935060208501359250604085013567ffffffffffffffff808211156105e3578384fd5b81870188601f8201126105f4578485fd5b8035925081831115610604578485fd5b886020848301011115610615578485fd5b959894975050602090940194505050565b60008060208385031215610638578182fd5b823567ffffffffffffffff8082111561064f578384fd5b81850186601f820112610660578485fd5b8035925081831115610670578485fd5b8660208085028301011115610683578485fd5b60200196919550909350505050565b600082516106a48184602087016107da565b9190910192915050565b6001600160a01b0391909116815260200190565b6001600160e01b031991909116815260200190565b60006020825282518060208401526106f68160408501602087016107da565b601f01601f19169190910160400192915050565b602080825260139082015272185b1c9958591e481a5b9a5d1a585b1a5e9959606a1b604082015260600190565b60208082526017908201527f63616c6c6572206973206e6f7420746865206f776e6572000000000000000000604082015260600190565b90815260200190565b6000808335601e1984360301811261078d578283fd5b8084018035925067ffffffffffffffff8311156107a8578384fd5b602001925050368190038213156107be57600080fd5b9250929050565b60008235605e198336030181126106a4578182fd5b60005b838110156107f55781810151838201526020016107dd565b838111156104075750506000910152565b6001600160a01b038116811461081b57600080fd5b5056fea26469706673582212203dbb053fafbb59cf2f5788d004610bf36dfd2a4517c46957d4f663c4b08e6e6064736f6c63430006060033",
  "immutableReferences": {},
  "source": "pragma solidity ^0.6.0;\npragma experimental ABIEncoderV2;\n\nimport \"@openzeppelin/contracts/token/ERC721/IERC721Receiver.sol\";\nimport \"./core/CounterfactualTokenEntity.sol\";\n\nstruct Call\n{\n\taddress to;\n\tuint256 value;\n\tbytes   data;\n}\n\ncontract NFWallet is CounterfactualTokenEntity, IERC721Receiver\n{\n\tevent Received(address indexed from, uint256 value);\n\n\t// Asset receiving\n\treceive()\n\texternal payable\n\t{\n\t\temit Received(_msgSender(), msg.value);\n\t}\n\n\tfunction onERC721Received(address, address, uint256, bytes memory)\n\tpublic override returns (bytes4)\n\t{\n\t\treturn this.onERC721Received.selector;\n\t}\n\n\t// Wallet\n\tfunction forward(address to, uint256 value, bytes calldata data)\n\texternal onlyOwner()\n\t{\n\t\t_execute(to, value, data);\n\t}\n\n\tfunction forwardBatch(Call[] calldata calls)\n\texternal onlyOwner()\n\t{\n\t\tfor (uint256 i = 0; i < calls.length; ++i)\n\t\t{\n\t\t\t_execute(calls[i].to, calls[i].value, calls[i].data);\n\t\t}\n\t}\n\n\tfunction _execute(address to, uint256 value, bytes memory data)\n\tinternal\n\t{\n\t\t(bool success, bytes memory returndata) = payable(to).call{value: value}(data);\n\t\trequire(success, string(returndata));\n\t}\n}\n",
  "sourcePath": "/home/amxx/Work/Projects/NFWallets/contracts/NFWallet.sol",
  "compiler": {
    "name": "solc",
    "version": "0.6.6+commit.6c089d02.Emscripten.clang"
  },
  "schemaVersion": "3.1.0",
  "updatedAt": "2020-04-23T09:08:59.473Z",
  "devdoc": {
    "methods": {}
  },
  "userdoc": {
    "methods": {}
  }
}