{
  "contractName": "NFWalletFactory",
  "abi": [
    {
      "inputs": [],
      "stateMutability": "nonpayable",
      "type": "constructor"
    },
    {
      "anonymous": false,
      "inputs": [
        {
          "indexed": true,
          "internalType": "address",
          "name": "owner",
          "type": "address"
        },
        {
          "indexed": true,
          "internalType": "address",
          "name": "approved",
          "type": "address"
        },
        {
          "indexed": true,
          "internalType": "uint256",
          "name": "tokenId",
          "type": "uint256"
        }
      ],
      "name": "Approval",
      "type": "event"
    },
    {
      "anonymous": false,
      "inputs": [
        {
          "indexed": true,
          "internalType": "address",
          "name": "owner",
          "type": "address"
        },
        {
          "indexed": true,
          "internalType": "address",
          "name": "operator",
          "type": "address"
        },
        {
          "indexed": false,
          "internalType": "bool",
          "name": "approved",
          "type": "bool"
        }
      ],
      "name": "ApprovalForAll",
      "type": "event"
    },
    {
      "anonymous": false,
      "inputs": [
        {
          "indexed": true,
          "internalType": "address",
          "name": "previousOwner",
          "type": "address"
        },
        {
          "indexed": true,
          "internalType": "address",
          "name": "newOwner",
          "type": "address"
        }
      ],
      "name": "OwnershipTransferred",
      "type": "event"
    },
    {
      "anonymous": false,
      "inputs": [
        {
          "indexed": true,
          "internalType": "address",
          "name": "from",
          "type": "address"
        },
        {
          "indexed": true,
          "internalType": "address",
          "name": "to",
          "type": "address"
        },
        {
          "indexed": true,
          "internalType": "uint256",
          "name": "tokenId",
          "type": "uint256"
        }
      ],
      "name": "Transfer",
      "type": "event"
    },
    {
      "inputs": [
        {
          "internalType": "address",
          "name": "to",
          "type": "address"
        },
        {
          "internalType": "uint256",
          "name": "tokenId",
          "type": "uint256"
        }
      ],
      "name": "approve",
      "outputs": [],
      "stateMutability": "nonpayable",
      "type": "function"
    },
    {
      "inputs": [
        {
          "internalType": "address",
          "name": "owner",
          "type": "address"
        }
      ],
      "name": "balanceOf",
      "outputs": [
        {
          "internalType": "uint256",
          "name": "",
          "type": "uint256"
        }
      ],
      "stateMutability": "view",
      "type": "function"
    },
    {
      "inputs": [],
      "name": "baseURI",
      "outputs": [
        {
          "internalType": "string",
          "name": "",
          "type": "string"
        }
      ],
      "stateMutability": "view",
      "type": "function"
    },
    {
      "inputs": [
        {
          "internalType": "uint256",
          "name": "tokenId",
          "type": "uint256"
        }
      ],
      "name": "getApproved",
      "outputs": [
        {
          "internalType": "address",
          "name": "",
          "type": "address"
        }
      ],
      "stateMutability": "view",
      "type": "function"
    },
    {
      "inputs": [
        {
          "internalType": "address",
          "name": "owner",
          "type": "address"
        },
        {
          "internalType": "address",
          "name": "operator",
          "type": "address"
        }
      ],
      "name": "isApprovedForAll",
      "outputs": [
        {
          "internalType": "bool",
          "name": "",
          "type": "bool"
        }
      ],
      "stateMutability": "view",
      "type": "function"
    },
    {
      "inputs": [],
      "name": "master",
      "outputs": [
        {
          "internalType": "address",
          "name": "",
          "type": "address"
        }
      ],
      "stateMutability": "view",
      "type": "function"
    },
    {
      "inputs": [],
      "name": "name",
      "outputs": [
        {
          "internalType": "string",
          "name": "",
          "type": "string"
        }
      ],
      "stateMutability": "view",
      "type": "function"
    },
    {
      "inputs": [],
      "name": "owner",
      "outputs": [
        {
          "internalType": "address",
          "name": "",
          "type": "address"
        }
      ],
      "stateMutability": "view",
      "type": "function"
    },
    {
      "inputs": [
        {
          "internalType": "uint256",
          "name": "tokenId",
          "type": "uint256"
        }
      ],
      "name": "ownerOf",
      "outputs": [
        {
          "internalType": "address",
          "name": "",
          "type": "address"
        }
      ],
      "stateMutability": "view",
      "type": "function"
    },
    {
      "inputs": [],
      "name": "proxyCode",
      "outputs": [
        {
          "internalType": "bytes",
          "name": "",
          "type": "bytes"
        }
      ],
      "stateMutability": "view",
      "type": "function"
    },
    {
      "inputs": [],
      "name": "proxyCodeHash",
      "outputs": [
        {
          "internalType": "bytes32",
          "name": "",
          "type": "bytes32"
        }
      ],
      "stateMutability": "view",
      "type": "function"
    },
    {
      "inputs": [],
      "name": "renounceOwnership",
      "outputs": [],
      "stateMutability": "nonpayable",
      "type": "function"
    },
    {
      "inputs": [
        {
          "internalType": "address",
          "name": "from",
          "type": "address"
        },
        {
          "internalType": "address",
          "name": "to",
          "type": "address"
        },
        {
          "internalType": "uint256",
          "name": "tokenId",
          "type": "uint256"
        }
      ],
      "name": "safeTransferFrom",
      "outputs": [],
      "stateMutability": "nonpayable",
      "type": "function"
    },
    {
      "inputs": [
        {
          "internalType": "address",
          "name": "from",
          "type": "address"
        },
        {
          "internalType": "address",
          "name": "to",
          "type": "address"
        },
        {
          "internalType": "uint256",
          "name": "tokenId",
          "type": "uint256"
        },
        {
          "internalType": "bytes",
          "name": "_data",
          "type": "bytes"
        }
      ],
      "name": "safeTransferFrom",
      "outputs": [],
      "stateMutability": "nonpayable",
      "type": "function"
    },
    {
      "inputs": [
        {
          "internalType": "address",
          "name": "operator",
          "type": "address"
        },
        {
          "internalType": "bool",
          "name": "approved",
          "type": "bool"
        }
      ],
      "name": "setApprovalForAll",
      "outputs": [],
      "stateMutability": "nonpayable",
      "type": "function"
    },
    {
      "inputs": [
        {
          "internalType": "bytes4",
          "name": "interfaceId",
          "type": "bytes4"
        }
      ],
      "name": "supportsInterface",
      "outputs": [
        {
          "internalType": "bool",
          "name": "",
          "type": "bool"
        }
      ],
      "stateMutability": "view",
      "type": "function"
    },
    {
      "inputs": [],
      "name": "symbol",
      "outputs": [
        {
          "internalType": "string",
          "name": "",
          "type": "string"
        }
      ],
      "stateMutability": "view",
      "type": "function"
    },
    {
      "inputs": [
        {
          "internalType": "uint256",
          "name": "index",
          "type": "uint256"
        }
      ],
      "name": "tokenByIndex",
      "outputs": [
        {
          "internalType": "uint256",
          "name": "",
          "type": "uint256"
        }
      ],
      "stateMutability": "view",
      "type": "function"
    },
    {
      "inputs": [
        {
          "internalType": "address",
          "name": "owner",
          "type": "address"
        },
        {
          "internalType": "uint256",
          "name": "index",
          "type": "uint256"
        }
      ],
      "name": "tokenOfOwnerByIndex",
      "outputs": [
        {
          "internalType": "uint256",
          "name": "",
          "type": "uint256"
        }
      ],
      "stateMutability": "view",
      "type": "function"
    },
    {
      "inputs": [
        {
          "internalType": "uint256",
          "name": "tokenId",
          "type": "uint256"
        }
      ],
      "name": "tokenURI",
      "outputs": [
        {
          "internalType": "string",
          "name": "",
          "type": "string"
        }
      ],
      "stateMutability": "view",
      "type": "function"
    },
    {
      "inputs": [],
      "name": "totalSupply",
      "outputs": [
        {
          "internalType": "uint256",
          "name": "",
          "type": "uint256"
        }
      ],
      "stateMutability": "view",
      "type": "function"
    },
    {
      "inputs": [
        {
          "internalType": "address",
          "name": "from",
          "type": "address"
        },
        {
          "internalType": "address",
          "name": "to",
          "type": "address"
        },
        {
          "internalType": "uint256",
          "name": "tokenId",
          "type": "uint256"
        }
      ],
      "name": "transferFrom",
      "outputs": [],
      "stateMutability": "nonpayable",
      "type": "function"
    },
    {
      "inputs": [
        {
          "internalType": "address",
          "name": "newOwner",
          "type": "address"
        }
      ],
      "name": "transferOwnership",
      "outputs": [],
      "stateMutability": "nonpayable",
      "type": "function"
    },
    {
      "inputs": [
        {
          "internalType": "address",
          "name": "_owner",
          "type": "address"
        },
        {
          "internalType": "bytes32",
          "name": "_salt",
          "type": "bytes32"
        }
      ],
      "name": "createWallet",
      "outputs": [
        {
          "internalType": "address",
          "name": "",
          "type": "address"
        }
      ],
      "stateMutability": "nonpayable",
      "type": "function"
    },
    {
      "inputs": [
        {
          "internalType": "address",
          "name": "_owner",
          "type": "address"
        },
        {
          "internalType": "bytes32",
          "name": "_salt",
          "type": "bytes32"
        }
      ],
      "name": "predictWallet",
      "outputs": [
        {
          "internalType": "address",
          "name": "",
          "type": "address"
        }
      ],
      "stateMutability": "view",
      "type": "function"
    },
    {
      "inputs": [
        {
          "internalType": "address",
          "name": "_ens",
          "type": "address"
        },
        {
          "internalType": "string",
          "name": "_name",
          "type": "string"
        }
      ],
      "name": "setName",
      "outputs": [],
      "stateMutability": "nonpayable",
      "type": "function"
    }
  ],
  "bytecode": "0x60806040523480156200001157600080fd5b506040516200002090620002dd565b604051809103906000f0801580156200003d573d6000803e3d6000fd5b506040805180820182526011815270139bdb919d5b99da589b1955d85b1b195d607a1b602080830191909152825180840190935260038352624e465760e81b908301529081816200009e6301ffc9a760e01b6001600160e01b036200025316565b8151620000b3906006906020850190620002eb565b508051620000c9906007906020840190620002eb565b50620000e56380ac58cd60e01b6001600160e01b036200025316565b62000100635b5e139f60e01b6001600160e01b036200025316565b6200011b63780e9d6360e01b6001600160e01b036200025316565b5060009050620001336001600160e01b03620002d816565b600a80546001600160a01b0319166001600160a01b038316908117909155604051919250906000907f8be0079c531659141344cd1fd0a4f28419497f9722a3daafe3b4186f6b6457e0908290a350600b80546001600160a01b0319166001600160a01b038516179055604051620001ad6020820162000370565b601f1982820381018352601f909101166040528051620001d791600c9160209190910190620002eb565b50600c6040518082805460018160011615610100020316600290048015620002395780601f106200021657610100808354040283529182019162000239565b820191906000526020600020905b81548152906001019060200180831162000224575b5050604051908190039020600d55506200039b9350505050565b6001600160e01b03198082161415620002b3576040805162461bcd60e51b815260206004820152601c60248201527f4552433136353a20696e76616c696420696e7465726661636520696400000000604482015290519081900360640190fd5b6001600160e01b0319166000908152602081905260409020805460ff19166001179055565b335b90565b61086e806200294683390190565b828054600181600116156101000203166002900490600052602060002090601f016020900481019282601f106200032e57805160ff19168380011785556200035e565b828001600101855582156200035e579182015b828111156200035e57825182559160200191906001019062000341565b506200036c9291506200037e565b5090565b6103cd80620031b483390190565b620002da91905b808211156200036c576000815560010162000385565b61259b80620003ab6000396000f3fe608060405234801561001057600080fd5b506004361061018e5760003560e01c80636fa59bbc116100de578063b20ca81811610097578063e985e9c511610071578063e985e9c5146105d5578063ee97f7f314610603578063eee391111461060b578063f2fde38b146106135761018e565b8063b20ca818146104c6578063b88d4fde146104f2578063c87b56dd146105b85761018e565b80636fa59bbc1461045257806370a082311461045a578063715018a6146104805780638da5cb5b1461048857806395d89b4114610490578063a22cb465146104985761018e565b806323b872dd1161014b57806342842e0e1161012557806342842e0e146103da5780634f6ccce7146104105780636352211e1461042d5780636c0360eb1461044a5761018e565b806323b872dd146102f85780632f745c591461032e5780633121db1c1461035a5761018e565b806301ffc9a71461019357806306fdde03146101ce578063081812fc1461024b578063095ea7b314610284578063136fecbd146102b257806318160ddd146102de575b600080fd5b6101ba600480360360208110156101a957600080fd5b50356001600160e01b031916610639565b604080519115158252519081900360200190f35b6101d661065c565b6040805160208082528351818301528351919283929083019185019080838360005b838110156102105781810151838201526020016101f8565b50505050905090810190601f16801561023d5780820380516001836020036101000a031916815260200191505b509250505060405180910390f35b6102686004803603602081101561026157600080fd5b50356106f2565b604080516001600160a01b039092168252519081900360200190f35b6102b06004803603604081101561029a57600080fd5b506001600160a01b038135169060200135610754565b005b610268600480360360408110156102c857600080fd5b506001600160a01b03813516906020013561082f565b6102e661084c565b60408051918252519081900360200190f35b6102b06004803603606081101561030e57600080fd5b506001600160a01b0381358116916020810135909116906040013561085d565b6102e66004803603604081101561034457600080fd5b506001600160a01b0381351690602001356108b4565b6102b06004803603604081101561037057600080fd5b6001600160a01b03823516919081019060408101602082013564010000000081111561039b57600080fd5b8201836020820111156103ad57600080fd5b803590602001918460018302840111640100000000831117156103cf57600080fd5b5090925090506108dc565b6102b0600480360360608110156103f057600080fd5b506001600160a01b03813581169160208101359091169060400135610986565b6102e66004803603602081101561042657600080fd5b50356109a1565b6102686004803603602081101561044357600080fd5b50356109bd565b6101d66109eb565b6101d6610a4c565b6102e66004803603602081101561047057600080fd5b50356001600160a01b0316610ada565b6102b0610b42565b610268610bf6565b6101d6610c05565b6102b0600480360360408110156104ae57600080fd5b506001600160a01b0381351690602001351515610c66565b610268600480360360408110156104dc57600080fd5b506001600160a01b038135169060200135610d6b565b6102b06004803603608081101561050857600080fd5b6001600160a01b0382358116926020810135909116916040820135919081019060808101606082013564010000000081111561054357600080fd5b82018360208201111561055557600080fd5b8035906020019184600183028401116401000000008311171561057757600080fd5b91908080601f016020809104026020016040519081016040528093929190818152602001838380828437600092019190915250929550610d7f945050505050565b6101d6600480360360208110156105ce57600080fd5b5035610ddd565b6101ba600480360360408110156105eb57600080fd5b506001600160a01b0381358116916020013516611084565b6102686110b2565b6102e66110c1565b6102b06004803603602081101561062957600080fd5b50356001600160a01b03166110c7565b6001600160e01b0319811660009081526020819052604090205460ff165b919050565b60068054604080516020601f60026000196101006001881615020190951694909404938401819004810282018101909252828152606093909290918301828280156106e85780601f106106bd576101008083540402835291602001916106e8565b820191906000526020600020905b8154815290600101906020018083116106cb57829003601f168201915b5050505050905090565b60006106fd826111d2565b6107385760405162461bcd60e51b815260040180806020018281038252602c815260200180612490602c913960400191505060405180910390fd5b506000908152600460205260409020546001600160a01b031690565b600061075f826109bd565b9050806001600160a01b0316836001600160a01b031614156107b25760405162461bcd60e51b81526004018080602001828103825260218152602001806125146021913960400191505060405180910390fd5b806001600160a01b03166107c46111e5565b6001600160a01b031614806107e557506107e5816107e06111e5565b611084565b6108205760405162461bcd60e51b81526004018080602001828103825260388152602001806123e36038913960400191505060405180910390fd5b61082a83836111e9565b505050565b60006108438361083e84611257565b611290565b90505b92915050565b6000610858600261133a565b905090565b61086e6108686111e5565b82611345565b6108a95760405162461bcd60e51b81526004018080602001828103825260318152602001806125356031913960400191505060405180910390fd5b61082a8383836113e9565b6001600160a01b0382166000908152600160205260408120610843908363ffffffff61154716565b6108e46111e5565b600a546001600160a01b03908116911614610946576040805162461bcd60e51b815260206004820181905260248201527f4f776e61626c653a2063616c6c6572206973206e6f7420746865206f776e6572604482015290519081900360640190fd5b61082a8383838080601f01602080910402602001604051908101604052809392919081815260200183838082843760009201919091525061155392505050565b61082a83838360405180602001604052806000815250610d7f565b6000806109b560028463ffffffff6116b816565b509392505050565b600061084682604051806060016040528060298152602001612445602991396002919063ffffffff6116d416565b60098054604080516020601f60026000196101006001881615020190951694909404938401819004810282018101909252828152606093909290918301828280156106e85780601f106106bd576101008083540402835291602001916106e8565b600c805460408051602060026001851615610100026000190190941693909304601f81018490048402820184019092528181529291830182828015610ad25780601f10610aa757610100808354040283529160200191610ad2565b820191906000526020600020905b815481529060010190602001808311610ab557829003601f168201915b505050505081565b60006001600160a01b038216610b215760405162461bcd60e51b815260040180806020018281038252602a81526020018061241b602a913960400191505060405180910390fd5b6001600160a01b03821660009081526001602052604090206108469061133a565b610b4a6111e5565b600a546001600160a01b03908116911614610bac576040805162461bcd60e51b815260206004820181905260248201527f4f776e61626c653a2063616c6c6572206973206e6f7420746865206f776e6572604482015290519081900360640190fd5b600a546040516000916001600160a01b0316907f8be0079c531659141344cd1fd0a4f28419497f9722a3daafe3b4186f6b6457e0908390a3600a80546001600160a01b0319169055565b600a546001600160a01b031690565b60078054604080516020601f60026000196101006001881615020190951694909404938401819004810282018101909252828152606093909290918301828280156106e85780601f106106bd576101008083540402835291602001916106e8565b610c6e6111e5565b6001600160a01b0316826001600160a01b03161415610cd4576040805162461bcd60e51b815260206004820152601960248201527f4552433732313a20617070726f766520746f2063616c6c657200000000000000604482015290519081900360640190fd5b8060056000610ce16111e5565b6001600160a01b03908116825260208083019390935260409182016000908120918716808252919093529120805460ff191692151592909217909155610d256111e5565b60408051841515815290516001600160a01b0392909216917f17307eab39ab6107e8899845ad3d59bd9653f200f220920489ca2b5937696c319181900360200190a35050565b600061084383610d7a84611257565b6116eb565b610d90610d8a6111e5565b83611345565b610dcb5760405162461bcd60e51b81526004018080602001828103825260318152602001806125356031913960400191505060405180910390fd5b610dd784848484611915565b50505050565b6060610de8826111d2565b610e235760405162461bcd60e51b815260040180806020018281038252602f8152602001806124e5602f913960400191505060405180910390fd5b60008281526008602090815260409182902080548351601f6002600019610100600186161502019093169290920491820184900484028101840190945280845260609392830182828015610eb85780601f10610e8d57610100808354040283529160200191610eb8565b820191906000526020600020905b815481529060010190602001808311610e9b57829003601f168201915b505060095493945050505060026000196101006001841615020190911604610ee1579050610657565b805115610fb2576009816040516020018083805460018160011615610100020316600290048015610f495780601f10610f27576101008083540402835291820191610f49565b820191906000526020600020905b815481529060010190602001808311610f35575b5050825160208401908083835b60208310610f755780518252601f199092019160209182019101610f56565b6001836020036101000a03801982511681845116808217855250505050505090500192505050604051602081830303815290604052915050610657565b6009610fbd84611967565b604051602001808380546001816001161561010002031660029004801561101b5780601f10610ff957610100808354040283529182019161101b565b820191906000526020600020905b815481529060010190602001808311611007575b5050825160208401908083835b602083106110475780518252601f199092019160209182019101611028565b6001836020036101000a03801982511681845116808217855250505050505090500192505050604051602081830303815290604052915050919050565b6001600160a01b03918216600090815260056020908152604080832093909416825291909152205460ff1690565b600b546001600160a01b031681565b600d5481565b6110cf6111e5565b600a546001600160a01b03908116911614611131576040805162461bcd60e51b815260206004820181905260248201527f4f776e61626c653a2063616c6c6572206973206e6f7420746865206f776e6572604482015290519081900360640190fd5b6001600160a01b0381166111765760405162461bcd60e51b815260040180806020018281038252602681526020018061236d6026913960400191505060405180910390fd5b600a546040516001600160a01b038084169216907f8be0079c531659141344cd1fd0a4f28419497f9722a3daafe3b4186f6b6457e090600090a3600a80546001600160a01b0319166001600160a01b0392909216919091179055565b600061084660028363ffffffff611a4216565b3390565b600081815260046020526040902080546001600160a01b0319166001600160a01b038416908117909155819061121e826109bd565b6001600160a01b03167f8c5be1e5ebec7d5bd14f71427d1e84f3dd0314c0f7b2291e5b200ac8c7c3b92560405160405180910390a45050565b604080516024808201939093528151808203909301835260440190526020810180516001600160e01b031663204a7f0760e21b17905290565b60008061132983856040516020018083805190602001908083835b602083106112ca5780518252601f1990920191602091820191016112ab565b6001836020036101000a038019825116818451168082178552505050505050905001826001600160a01b03166001600160a01b031660601b81526014019250505060405160208183030381529060405280519060200120600d54611a4e565b6001600160a01b0316949350505050565b600061084682611a5b565b6000611350826111d2565b61138b5760405162461bcd60e51b815260040180806020018281038252602c8152602001806123b7602c913960400191505060405180910390fd5b6000611396836109bd565b9050806001600160a01b0316846001600160a01b031614806113d15750836001600160a01b03166113c6846106f2565b6001600160a01b0316145b806113e157506113e18185611084565b949350505050565b826001600160a01b03166113fc826109bd565b6001600160a01b0316146114415760405162461bcd60e51b81526004018080602001828103825260298152602001806124bc6029913960400191505060405180910390fd5b6001600160a01b0382166114865760405162461bcd60e51b81526004018080602001828103825260248152602001806123936024913960400191505060405180910390fd5b61149183838361082a565b61149c6000826111e9565b6001600160a01b03831660009081526001602052604090206114c4908263ffffffff611a5f16565b506001600160a01b03821660009081526001602052604090206114ed908263ffffffff611a6b16565b506115006002828463ffffffff611a7716565b5080826001600160a01b0316846001600160a01b03167fddf252ad1be2c89b69c2b068fc378daa952ba7f163c4a11628f55a4df523b3ef60405160405180910390a4505050565b60006108438383611a8d565b604080516302571be360e01b81527f91d1777781884d03a6757a803996e38de2a42967fb37eeaca72729271025a9e2600482015290516001600160a01b038416916302571be3916024808301926020929190829003018186803b1580156115b957600080fd5b505afa1580156115cd573d6000803e3d6000fd5b505050506040513d60208110156115e357600080fd5b505160405163c47f002760e01b81526020600482018181528451602484015284516001600160a01b039094169363c47f002793869383926044909201919085019080838360005b8381101561164257818101518382015260200161162a565b50505050905090810190601f16801561166f5780820380516001836020036101000a031916815260200191505b5092505050602060405180830381600087803b15801561168e57600080fd5b505af11580156116a2573d6000803e3d6000fd5b505050506040513d6020811015610dd757600080fd5b60008080806116c78686611af1565b9097909650945050505050565b60006116e1848484611b6c565b90505b9392505050565b60008061181e600084866040516020018083805190602001908083835b602083106117275780518252601f199092019160209182019101611708565b6001836020036101000a038019825116818451168082178552505050505050905001826001600160a01b03166001600160a01b031660601b81526014019250505060405160208183030381529060405280519060200120600c8054600181600116156101000203166002900480601f0160208091040260200160405190810160405280929190818152602001828054600181600116156101000203166002900480156118145780601f106117e957610100808354040283529160200191611814565b820191906000526020600020905b8154815290600101906020018083116117f757829003601f168201915b5050505050611c36565b600b546040805163347d5e2560e21b81526001600160a01b0392831660048201818152602483019384528851604484015288519596509386169463d1f5789494919389939091606490910190602085019080838360005b8381101561188d578181015183820152602001611875565b50505050905090810190601f1680156118ba5780820380516001836020036101000a031916815260200191505b509350505050600060405180830381600087803b1580156118da57600080fd5b505af11580156118ee573d6000803e3d6000fd5b5050505061190584826001600160a01b0316611d47565b6001600160a01b03169392505050565b6119208484846113e9565b61192c84848484611e81565b610dd75760405162461bcd60e51b815260040180806020018281038252603281526020018061233b6032913960400191505060405180910390fd5b60608161198c57506040805180820190915260018152600360fc1b6020820152610657565b8160005b81156119a457600101600a82049150611990565b60608167ffffffffffffffff811180156119bd57600080fd5b506040519080825280601f01601f1916602001820160405280156119e8576020820181803683370190505b50859350905060001982015b8315611a3957600a840660300160f81b82828060019003935081518110611a1757fe5b60200101906001600160f81b031916908160001a905350600a840493506119f4565b50949350505050565b600061084383836120bc565b60006108438383306120d4565b5490565b60006108438383612138565b600061084383836121fe565b60006116e184846001600160a01b038516612248565b81546000908210611acf5760405162461bcd60e51b81526004018080602001828103825260228152602001806123196022913960400191505060405180910390fd5b826000018281548110611ade57fe5b9060005260206000200154905092915050565b815460009081908310611b355760405162461bcd60e51b815260040180806020018281038252602281526020018061246e6022913960400191505060405180910390fd5b6000846000018481548110611b4657fe5b906000526020600020906002020190508060000154816001015492509250509250929050565b60008281526001840160205260408120548281611c075760405162461bcd60e51b81526004018080602001828103825283818151815260200191508051906020019080838360005b83811015611bcc578181015183820152602001611bb4565b50505050905090810190601f168015611bf95780820380516001836020036101000a031916815260200191505b509250505060405180910390fd5b50846000016001820381548110611c1a57fe5b9060005260206000209060020201600101549150509392505050565b60008084471015611c8e576040805162461bcd60e51b815260206004820152601d60248201527f437265617465323a20696e73756666696369656e742062616c616e6365000000604482015290519081900360640190fd5b8251611ce1576040805162461bcd60e51b815260206004820181905260248201527f437265617465323a2062797465636f6465206c656e677468206973207a65726f604482015290519081900360640190fd5b8383516020850187f590506001600160a01b0381166116e1576040805162461bcd60e51b815260206004820152601960248201527f437265617465323a204661696c6564206f6e206465706c6f7900000000000000604482015290519081900360640190fd5b6001600160a01b038216611da2576040805162461bcd60e51b815260206004820181905260248201527f4552433732313a206d696e7420746f20746865207a65726f2061646472657373604482015290519081900360640190fd5b611dab816111d2565b15611dfd576040805162461bcd60e51b815260206004820152601c60248201527f4552433732313a20746f6b656e20616c7265616479206d696e74656400000000604482015290519081900360640190fd5b611e096000838361082a565b6001600160a01b0382166000908152600160205260409020611e31908263ffffffff611a6b16565b50611e446002828463ffffffff611a7716565b5060405181906001600160a01b038416906000907fddf252ad1be2c89b69c2b068fc378daa952ba7f163c4a11628f55a4df523b3ef908290a45050565b6000611e95846001600160a01b03166122df565b611ea1575060016113e1565b600060606001600160a01b038616630a85bd0160e11b611ebf6111e5565b89888860405160240180856001600160a01b03166001600160a01b03168152602001846001600160a01b03166001600160a01b0316815260200183815260200180602001828103825283818151815260200191508051906020019080838360005b83811015611f38578181015183820152602001611f20565b50505050905090810190601f168015611f655780820380516001836020036101000a031916815260200191505b5060408051601f198184030181529181526020820180516001600160e01b03166001600160e01b0319909a16999099178952518151919890975087965094509250829150849050835b60208310611fcd5780518252601f199092019160209182019101611fae565b6001836020036101000a0380198251168184511680821785525050505050509050019150506000604051808303816000865af19150503d806000811461202f576040519150601f19603f3d011682016040523d82523d6000602084013e612034565b606091505b5091509150816120855780511561204e5780518082602001fd5b60405162461bcd60e51b815260040180806020018281038252603281526020018061233b6032913960400191505060405180910390fd5b600081806020019051602081101561209c57600080fd5b50516001600160e01b031916630a85bd0160e11b1493506113e192505050565b60009081526001919091016020526040902054151590565b604080516001600160f81b031960208083019190915260609390931b6bffffffffffffffffffffffff19166021820152603581019490945260558085019390935280518085039093018352607590930190925280519101206001600160a01b031690565b600081815260018301602052604081205480156121f4578354600019808301919081019060009087908390811061216b57fe5b906000526020600020015490508087600001848154811061218857fe5b6000918252602080832090910192909255828152600189810190925260409020908401905586548790806121b857fe5b60019003818190600052602060002001600090559055866001016000878152602001908152602001600020600090556001945050505050610846565b6000915050610846565b600061220a83836120bc565b61224057508154600181810184556000848152602080822090930184905584548482528286019093526040902091909155610846565b506000610846565b6000828152600184016020526040812054806122ad5750506040805180820182528381526020808201848152865460018181018955600089815284812095516002909302909501918255915190820155865486845281880190925292909120556116e4565b828560000160018303815481106122c057fe5b90600052602060002090600202016001018190555060009150506116e4565b6000813f7fc5d2460186f7233c927e7db2dcc703c0e500b653ca82273b7bfad8045d85a4708181148015906113e157505015159291505056fe456e756d657261626c655365743a20696e646578206f7574206f6620626f756e64734552433732313a207472616e7366657220746f206e6f6e20455243373231526563656976657220696d706c656d656e7465724f776e61626c653a206e6577206f776e657220697320746865207a65726f20616464726573734552433732313a207472616e7366657220746f20746865207a65726f20616464726573734552433732313a206f70657261746f7220717565727920666f72206e6f6e6578697374656e7420746f6b656e4552433732313a20617070726f76652063616c6c6572206973206e6f74206f776e6572206e6f7220617070726f76656420666f7220616c6c4552433732313a2062616c616e636520717565727920666f7220746865207a65726f20616464726573734552433732313a206f776e657220717565727920666f72206e6f6e6578697374656e7420746f6b656e456e756d657261626c654d61703a20696e646578206f7574206f6620626f756e64734552433732313a20617070726f76656420717565727920666f72206e6f6e6578697374656e7420746f6b656e4552433732313a207472616e73666572206f6620746f6b656e2074686174206973206e6f74206f776e4552433732314d657461646174613a2055524920717565727920666f72206e6f6e6578697374656e7420746f6b656e4552433732313a20617070726f76616c20746f2063757272656e74206f776e65724552433732313a207472616e736665722063616c6c6572206973206e6f74206f776e6572206e6f7220617070726f766564a26469706673582212206588edb63321bda8d4095b9cc6a6d190093f25a0a3eaee93716b09b85d54cfb964736f6c63430006060033608060405261085b806100136000396000f3fe6080604052600436106100595760003560e01c8063150b7a02146100ad5780637b103999146100e35780638129fc1c146101055780638da5cb5b1461011c578063aef0562914610131578063d7f31eb914610151576100a8565b366100a857610066610171565b6001600160a01b03167f88a5966d370b9919b20f3e2c13ff65706f196a4e32cc2c12bf57088f885258743460405161009e9190610775565b60405180910390a2005b600080fd5b3480156100b957600080fd5b506100cd6100c83660046104df565b610175565b6040516100da91906106c9565b60405180910390f35b3480156100ef57600080fd5b506100f8610185565b6040516100da91906106b5565b34801561011157600080fd5b5061011a610194565b005b34801561012857600080fd5b506100f86101a6565b34801561013d57600080fd5b5061011a61014c36600461062d565b61022c565b34801561015d57600080fd5b5061011a61016c3660046105a7565b610343565b3390565b630a85bd0160e11b949350505050565b6000546001600160a01b031681565b6101a461019f610171565b6103c9565b565b600080546040516331a9108f60e11b81526001600160a01b0390911690636352211e906101d7903090600401610775565b60206040518083038186803b1580156101ef57600080fd5b505afa158015610203573d6000803e3d6000fd5b505050506040513d601f19601f8201168201806040525081019061022791906104c3565b905090565b610234610171565b6001600160a01b03166102456101a6565b6001600160a01b0316146102745760405162461bcd60e51b815260040161026b9061073e565b60405180910390fd5b60005b8181101561033e5761033683838381811061028e57fe5b90506020028101906102a091906107cc565b6102ae9060208101906104a0565b8484848181106102ba57fe5b90506020028101906102cc91906107cc565b602001358585858181106102dc57fe5b90506020028101906102ee91906107cc565b6102fc90604081019061077e565b8080601f01602080910402602001604051908101604052809392919081815260200183838082843760009201919091525061041492505050565b600101610277565b505050565b61034b610171565b6001600160a01b031661035c6101a6565b6001600160a01b0316146103825760405162461bcd60e51b815260040161026b9061073e565b6103c3848484848080601f01602080910402602001604051908101604052809392919081815260200183838082843760009201919091525061041492505050565b50505050565b6000546001600160a01b0316156103f25760405162461bcd60e51b815260040161026b90610711565b600080546001600160a01b0319166001600160a01b0392909216919091179055565b60006060846001600160a01b031684846040516104319190610699565b60006040518083038185875af1925050503d806000811461046e576040519150601f19603f3d011682016040523d82523d6000602084013e610473565b606091505b50915091508181906104985760405162461bcd60e51b815260040161026b91906106de565b505050505050565b6000602082840312156104b1578081fd5b81356104bc8161080d565b9392505050565b6000602082840312156104d4578081fd5b81516104bc8161080d565b600080600080608085870312156104f4578283fd5b84356104ff8161080d565b93506020858101356105108161080d565b935060408601359250606086013567ffffffffffffffff80821115610533578384fd5b81880189601f820112610544578485fd5b8035925081831115610554578485fd5b604051601f8401601f1916810185018381118282101715610573578687fd5b60405283815281840185018b1015610589578586fd5b83858301868301379283019093019390935294979396509194505050565b600080600080606085870312156105bc578384fd5b84356105c78161080d565b935060208501359250604085013567ffffffffffffffff808211156105ea578384fd5b81870188601f8201126105fb578485fd5b803592508183111561060b578485fd5b88602084830101111561061c578485fd5b959894975050602090940194505050565b6000806020838503121561063f578182fd5b823567ffffffffffffffff80821115610656578384fd5b81850186601f820112610667578485fd5b8035925081831115610677578485fd5b866020808502830101111561068a578485fd5b60200196919550909350505050565b600082516106ab8184602087016107e1565b9190910192915050565b6001600160a01b0391909116815260200190565b6001600160e01b031991909116815260200190565b60006020825282518060208401526106fd8160408501602087016107e1565b601f01601f19169190910160400192915050565b602080825260139082015272185b1c9958591e481a5b9a5d1a585b1a5e9959606a1b604082015260600190565b60208082526017908201527f63616c6c6572206973206e6f7420746865206f776e6572000000000000000000604082015260600190565b90815260200190565b6000808335601e19843603018112610794578283fd5b8084018035925067ffffffffffffffff8311156107af578384fd5b602001925050368190038213156107c557600080fd5b9250929050565b60008235605e198336030181126106ab578182fd5b60005b838110156107fc5781810151838201526020016107e4565b838111156103c35750506000910152565b6001600160a01b038116811461082257600080fd5b5056fea2646970667358221220444c6e36c58123f7258bf37b7113c5e69d56c0dab899b7d7d2dcc3d739700e4864736f6c63430006060033608060405234801561001057600080fd5b506103ad806100206000396000f3fe6080604052600436106100225760003560e01c8063d1f578941461003957610031565b366100315761002f6100ef565b005b61002f6100ef565b61002f6004803603604081101561004f57600080fd5b6001600160a01b03823516919081019060408101602082013564010000000081111561007a57600080fd5b82018360208201111561008c57600080fd5b803590602001918460018302840111640100000000831117156100ae57600080fd5b91908080601f016020809104026020016040519081016040528093929190818152602001838380828437600092019190915250929550610109945050505050565b6100f7610107565b61010761010261022c565b610251565b565b600061011361022c565b6001600160a01b03161461012657600080fd5b60405180602361031a82396040519081900360230190207f7050c9e0f4ca769c69bd3a8ef740bc37934f8e2c036e5a723fd8ee048ed3f8c314905061016757fe5b61017082610275565b805115610228576000826001600160a01b0316826040518082805190602001908083835b602083106101b35780518252601f199092019160209182019101610194565b6001836020036101000a038019825116818451168082178552505050505050905001915050600060405180830381855af49150503d8060008114610213576040519150601f19603f3d011682016040523d82523d6000602084013e610218565b606091505b505090508061022657600080fd5b505b5050565b7f7050c9e0f4ca769c69bd3a8ef740bc37934f8e2c036e5a723fd8ee048ed3f8c35490565b3660008037600080366000845af43d6000803e808015610270573d6000f35b3d6000fd5b61027e816102dd565b6102b95760405162461bcd60e51b815260040180806020018281038252603b81526020018061033d603b913960400191505060405180910390fd5b7f7050c9e0f4ca769c69bd3a8ef740bc37934f8e2c036e5a723fd8ee048ed3f8c355565b6000813f7fc5d2460186f7233c927e7db2dcc703c0e500b653ca82273b7bfad8045d85a47081811480159061031157508115155b94935050505056fe6f72672e7a657070656c696e6f732e70726f78792e696d706c656d656e746174696f6e43616e6e6f742073657420612070726f787920696d706c656d656e746174696f6e20746f2061206e6f6e2d636f6e74726163742061646472657373a2646970667358221220f4af5f38b16e1ce890fd14497bea12d47bed23b9e542d8461f60b0d5a7952a1e64736f6c63430006060033",
  "immutableReferences": {},
  "source": "pragma solidity ^0.6.0;\n\nimport \"@iexec/solidity/contracts/ENStools/ENSReverseRegistration.sol\";\nimport \"./core/CounterfactualTokenRegistry.sol\";\nimport \"./NFWallet.sol\";\n\n\ncontract NFWalletFactory is CounterfactualTokenRegistry, ENSReverseRegistration\n{\n\tconstructor()\n\tpublic CounterfactualTokenRegistry(\n\t\taddress(new NFWallet()),\n\t\t'NonFungibleWallet',\n\t\t'NFW')\n\t{\n\t}\n\n\tfunction encodeInitializer(bytes32 _salt)\n\tinternal pure returns (bytes memory)\n\t{\n\t\treturn abi.encodeWithSignature('initialize()', _salt);\n\t}\n\n\tfunction createWallet(address _owner, bytes32 _salt)\n\texternal returns(address)\n\t{\n\t\treturn address(_mintCreate(_owner, encodeInitializer(_salt)));\n\t}\n\n\tfunction predictWallet(address _owner, bytes32 _salt)\n\texternal view returns(address)\n\t{\n\t\treturn address(_mintPredict(_owner, encodeInitializer(_salt)));\n\t}\n\n\tfunction setName(address _ens, string calldata _name)\n\texternal onlyOwner()\n\t{\n\t\t_setName(ENS(_ens), _name);\n\t}\n}\n",
  "sourcePath": "/home/amxx/Work/Projects/NFWallets/contracts/NFWalletFactory.sol",
  "compiler": {
    "name": "solc",
    "version": "0.6.6+commit.6c089d02.Emscripten.clang"
  },
  "schemaVersion": "3.1.0",
  "updatedAt": "2020-04-23T07:47:13.321Z",
  "devdoc": {
    "methods": {
      "approve(address,uint256)": {
        "details": "Approves another address to transfer the given token ID The zero address indicates there is no approved address. There can only be one approved address per token at a given time. Can only be called by the token owner or an approved operator.",
        "params": {
          "to": "address to be approved for the given token ID",
          "tokenId": "uint256 ID of the token to be approved"
        }
      },
      "balanceOf(address)": {
        "details": "Gets the balance of the specified address.",
        "params": {
          "owner": "address to query the balance of"
        },
        "returns": {
          "_0": "uint256 representing the amount owned by the passed address"
        }
      },
      "baseURI()": {
        "details": "Returns the base URI set via {_setBaseURI}. This will be automatically added as a prefix in {tokenURI} to each token's URI, or to the token ID if no specific URI is set for that token ID."
      },
      "getApproved(uint256)": {
        "details": "Gets the approved address for a token ID, or zero if no address set Reverts if the token ID does not exist.",
        "params": {
          "tokenId": "uint256 ID of the token to query the approval of"
        },
        "returns": {
          "_0": "address currently approved for the given token ID"
        }
      },
      "isApprovedForAll(address,address)": {
        "details": "Tells whether an operator is approved by a given owner.",
        "params": {
          "operator": "operator address which you want to query the approval of",
          "owner": "owner address which you want to query the approval of"
        },
        "returns": {
          "_0": "bool whether the given operator is approved by the given owner"
        }
      },
      "name()": {
        "details": "Gets the token name.",
        "returns": {
          "_0": "string representing the token name"
        }
      },
      "owner()": {
        "details": "Returns the address of the current owner."
      },
      "ownerOf(uint256)": {
        "details": "Gets the owner of the specified token ID.",
        "params": {
          "tokenId": "uint256 ID of the token to query the owner of"
        },
        "returns": {
          "_0": "address currently marked as the owner of the given token ID"
        }
      },
      "renounceOwnership()": {
        "details": "Leaves the contract without owner. It will not be possible to call `onlyOwner` functions anymore. Can only be called by the current owner.     * NOTE: Renouncing ownership will leave the contract without an owner, thereby removing any functionality that is only available to the owner."
      },
      "safeTransferFrom(address,address,uint256)": {
        "details": "Safely transfers the ownership of a given token ID to another address If the target address is a contract, it must implement {IERC721Receiver-onERC721Received}, which is called upon a safe transfer, and return the magic value `bytes4(keccak256(\"onERC721Received(address,address,uint256,bytes)\"))`; otherwise, the transfer is reverted. Requires the msg.sender to be the owner, approved, or operator",
        "params": {
          "from": "current owner of the token",
          "to": "address to receive the ownership of the given token ID",
          "tokenId": "uint256 ID of the token to be transferred"
        }
      },
      "safeTransferFrom(address,address,uint256,bytes)": {
        "details": "Safely transfers the ownership of a given token ID to another address If the target address is a contract, it must implement {IERC721Receiver-onERC721Received}, which is called upon a safe transfer, and return the magic value `bytes4(keccak256(\"onERC721Received(address,address,uint256,bytes)\"))`; otherwise, the transfer is reverted. Requires the _msgSender() to be the owner, approved, or operator",
        "params": {
          "_data": "bytes data to send along with a safe transfer check",
          "from": "current owner of the token",
          "to": "address to receive the ownership of the given token ID",
          "tokenId": "uint256 ID of the token to be transferred"
        }
      },
      "setApprovalForAll(address,bool)": {
        "details": "Sets or unsets the approval of a given operator An operator is allowed to transfer all tokens of the sender on their behalf.",
        "params": {
          "approved": "representing the status of the approval to be set",
          "operator": "operator address to set the approval"
        }
      },
      "supportsInterface(bytes4)": {
        "details": "See {IERC165-supportsInterface}.     * Time complexity O(1), guaranteed to always use less than 30 000 gas."
      },
      "symbol()": {
        "details": "Gets the token symbol.",
        "returns": {
          "_0": "string representing the token symbol"
        }
      },
      "tokenByIndex(uint256)": {
        "details": "Gets the token ID at a given index of all the tokens in this contract Reverts if the index is greater or equal to the total number of tokens.",
        "params": {
          "index": "uint256 representing the index to be accessed of the tokens list"
        },
        "returns": {
          "_0": "uint256 token ID at the given index of the tokens list"
        }
      },
      "tokenOfOwnerByIndex(address,uint256)": {
        "details": "Gets the token ID at a given index of the tokens list of the requested owner.",
        "params": {
          "index": "uint256 representing the index to be accessed of the requested tokens list",
          "owner": "address owning the tokens list to be accessed"
        },
        "returns": {
          "_0": "uint256 token ID at the given index of the tokens list owned by the requested address"
        }
      },
      "tokenURI(uint256)": {
        "details": "Returns the URI for a given token ID. May return an empty string.     * If a base URI is set (via {_setBaseURI}), it is added as a prefix to the token's own URI (via {_setTokenURI}).     * If there is a base URI but no token URI, the token's ID will be used as its URI when appending it to the base URI. This pattern for autogenerated token URIs can lead to large gas savings.     * .Examples |=== |`_setBaseURI()` |`_setTokenURI()` |`tokenURI()` | \"\" | \"\" | \"\" | \"\" | \"token.uri/123\" | \"token.uri/123\" | \"token.uri/\" | \"123\" | \"token.uri/123\" | \"token.uri/\" | \"\" | \"token.uri/<tokenId>\" |===     * Requirements:     * - `tokenId` must exist."
      },
      "totalSupply()": {
        "details": "Gets the total amount of tokens stored by the contract.",
        "returns": {
          "_0": "uint256 representing the total amount of tokens"
        }
      },
      "transferFrom(address,address,uint256)": {
        "details": "Transfers the ownership of a given token ID to another address. Usage of this method is discouraged, use {safeTransferFrom} whenever possible. Requires the msg.sender to be the owner, approved, or operator.",
        "params": {
          "from": "current owner of the token",
          "to": "address to receive the ownership of the given token ID",
          "tokenId": "uint256 ID of the token to be transferred"
        }
      },
      "transferOwnership(address)": {
        "details": "Transfers ownership of the contract to a new account (`newOwner`). Can only be called by the current owner."
      }
    }
  },
  "userdoc": {
    "methods": {}
  }
}