{
  "contractName": "NFWallet",
  "abi": [
    {
      "anonymous": false,
      "inputs": [
        {
          "indexed": true,
          "internalType": "address",
          "name": "from",
          "type": "address"
        },
        {
          "indexed": false,
          "internalType": "uint256",
          "name": "value",
          "type": "uint256"
        }
      ],
      "name": "Received",
      "type": "event"
    },
    {
      "inputs": [],
      "name": "owner",
      "outputs": [
        {
          "internalType": "address",
          "name": "",
          "type": "address"
        }
      ],
      "stateMutability": "view",
      "type": "function"
    },
    {
      "inputs": [],
      "name": "registry",
      "outputs": [
        {
          "internalType": "contract IERC721",
          "name": "",
          "type": "address"
        }
      ],
      "stateMutability": "view",
      "type": "function"
    },
    {
      "stateMutability": "payable",
      "type": "receive"
    },
    {
      "inputs": [
        {
          "internalType": "address",
          "name": "_registry",
          "type": "address"
        }
      ],
      "name": "initialize",
      "outputs": [],
      "stateMutability": "nonpayable",
      "type": "function"
    },
    {
      "inputs": [
        {
          "internalType": "address",
          "name": "",
          "type": "address"
        },
        {
          "internalType": "address",
          "name": "",
          "type": "address"
        },
        {
          "internalType": "uint256",
          "name": "",
          "type": "uint256"
        },
        {
          "internalType": "bytes",
          "name": "",
          "type": "bytes"
        }
      ],
      "name": "onERC721Received",
      "outputs": [
        {
          "internalType": "bytes4",
          "name": "",
          "type": "bytes4"
        }
      ],
      "stateMutability": "nonpayable",
      "type": "function"
    },
    {
      "inputs": [
        {
          "internalType": "address",
          "name": "to",
          "type": "address"
        },
        {
          "internalType": "uint256",
          "name": "value",
          "type": "uint256"
        },
        {
          "internalType": "bytes",
          "name": "data",
          "type": "bytes"
        }
      ],
      "name": "forward",
      "outputs": [],
      "stateMutability": "nonpayable",
      "type": "function"
    },
    {
      "inputs": [
        {
          "components": [
            {
              "internalType": "address",
              "name": "to",
              "type": "address"
            },
            {
              "internalType": "uint256",
              "name": "value",
              "type": "uint256"
            },
            {
              "internalType": "bytes",
              "name": "data",
              "type": "bytes"
            }
          ],
          "internalType": "struct Call[]",
          "name": "calls",
          "type": "tuple[]"
        }
      ],
      "name": "forwardBatch",
      "outputs": [],
      "stateMutability": "nonpayable",
      "type": "function"
    }
  ],
  "bytecode": "0x608060405261085d806100136000396000f3fe6080604052600436106100595760003560e01c8063150b7a02146100ad5780637b103999146100e35780638da5cb5b14610105578063aef056291461011a578063c4d66de81461013c578063d7f31eb91461015c576100a8565b366100a85761006661017c565b6001600160a01b03167f88a5966d370b9919b20f3e2c13ff65706f196a4e32cc2c12bf57088f885258743460405161009e919061077a565b60405180910390a2005b600080fd5b3480156100b957600080fd5b506100cd6100c83660046104e4565b610180565b6040516100da91906106ce565b60405180910390f35b3480156100ef57600080fd5b506100f8610190565b6040516100da91906106ba565b34801561011157600080fd5b506100f861019f565b34801561012657600080fd5b5061013a610135366004610632565b610225565b005b34801561014857600080fd5b5061013a6101573660046104a5565b61033c565b34801561016857600080fd5b5061013a6101773660046105ac565b610348565b3390565b630a85bd0160e11b949350505050565b6000546001600160a01b031681565b600080546040516331a9108f60e11b81526001600160a01b0390911690636352211e906101d090309060040161077a565b60206040518083038186803b1580156101e857600080fd5b505afa1580156101fc573d6000803e3d6000fd5b505050506040513d601f19601f8201168201806040525081019061022091906104c8565b905090565b61022d61017c565b6001600160a01b031661023e61019f565b6001600160a01b03161461026d5760405162461bcd60e51b815260040161026490610743565b60405180910390fd5b60005b818110156103375761032f83838381811061028757fe5b905060200281019061029991906107d1565b6102a79060208101906104a5565b8484848181106102b357fe5b90506020028101906102c591906107d1565b602001358585858181106102d557fe5b90506020028101906102e791906107d1565b6102f5906040810190610783565b8080601f0160208091040260200160405190810160405280939291908181526020018383808284376000920191909152506103ce92505050565b600101610270565b505050565b6103458161045a565b50565b61035061017c565b6001600160a01b031661036161019f565b6001600160a01b0316146103875760405162461bcd60e51b815260040161026490610743565b6103c8848484848080601f0160208091040260200160405190810160405280939291908181526020018383808284376000920191909152506103ce92505050565b50505050565b60006060846001600160a01b031684846040516103eb919061069e565b60006040518083038185875af1925050503d8060008114610428576040519150601f19603f3d011682016040523d82523d6000602084013e61042d565b606091505b50915091508181906104525760405162461bcd60e51b815260040161026491906106e3565b505050505050565b6000546001600160a01b0316156104835760405162461bcd60e51b815260040161026490610716565b600080546001600160a01b0319166001600160a01b0392909216919091179055565b6000602082840312156104b6578081fd5b81356104c181610812565b9392505050565b6000602082840312156104d9578081fd5b81516104c181610812565b600080600080608085870312156104f9578283fd5b843561050481610812565b935060208581013561051581610812565b935060408601359250606086013567ffffffffffffffff80821115610538578384fd5b81880189601f820112610549578485fd5b8035925081831115610559578485fd5b604051601f8401601f1916810185018381118282101715610578578687fd5b60405283815281840185018b101561058e578586fd5b83858301868301379283019093019390935294979396509194505050565b600080600080606085870312156105c1578384fd5b84356105cc81610812565b935060208501359250604085013567ffffffffffffffff808211156105ef578384fd5b81870188601f820112610600578485fd5b8035925081831115610610578485fd5b886020848301011115610621578485fd5b959894975050602090940194505050565b60008060208385031215610644578182fd5b823567ffffffffffffffff8082111561065b578384fd5b81850186601f82011261066c578485fd5b803592508183111561067c578485fd5b866020808502830101111561068f578485fd5b60200196919550909350505050565b600082516106b08184602087016107e6565b9190910192915050565b6001600160a01b0391909116815260200190565b6001600160e01b031991909116815260200190565b60006020825282518060208401526107028160408501602087016107e6565b601f01601f19169190910160400192915050565b602080825260139082015272185b1c9958591e481a5b9a5d1a585b1a5e9959606a1b604082015260600190565b60208082526017908201527f63616c6c6572206973206e6f7420746865206f776e6572000000000000000000604082015260600190565b90815260200190565b6000808335601e19843603018112610799578283fd5b8084018035925067ffffffffffffffff8311156107b4578384fd5b602001925050368190038213156107ca57600080fd5b9250929050565b60008235605e198336030181126106b0578182fd5b60005b838110156108015781810151838201526020016107e9565b838111156103c85750506000910152565b6001600160a01b038116811461034557600080fdfea2646970667358221220bb67610e9e76752326d5c95df8762ea9b5c2b30b9d087b5cdd0d09e484fb0d4b64736f6c63430006060033",
  "immutableReferences": {},
  "source": "pragma solidity ^0.6.0;\npragma experimental ABIEncoderV2;\n\nimport \"@openzeppelin/contracts/token/ERC721/IERC721Receiver.sol\";\nimport \"./core/CounterfactualTokenEntity.sol\";\n\nstruct Call\n{\n\taddress to;\n\tuint256 value;\n\tbytes   data;\n}\n\ncontract NFWallet is CounterfactualTokenEntity, IERC721Receiver\n{\n\tevent Received(address indexed from, uint256 value);\n\n\tfunction initialize(address _registry)\n\texternal\n\t{\n\t\t_initialize(_registry);\n\t}\n\n\t// Asset receiving\n\treceive()\n\texternal payable\n\t{\n\t\temit Received(_msgSender(), msg.value);\n\t}\n\n\tfunction onERC721Received(address, address, uint256, bytes memory)\n\tpublic override returns (bytes4)\n\t{\n\t\treturn this.onERC721Received.selector;\n\t}\n\n\t// Wallet\n\tfunction forward(address to, uint256 value, bytes calldata data)\n\texternal onlyOwner()\n\t{\n\t\t_execute(to, value, data);\n\t}\n\n\tfunction forwardBatch(Call[] calldata calls)\n\texternal onlyOwner()\n\t{\n\t\tfor (uint256 i = 0; i < calls.length; ++i)\n\t\t{\n\t\t\t_execute(calls[i].to, calls[i].value, calls[i].data);\n\t\t}\n\t}\n\n\tfunction _execute(address to, uint256 value, bytes memory data)\n\tinternal\n\t{\n\t\t(bool success, bytes memory returndata) = payable(to).call{value: value}(data);\n\t\trequire(success, string(returndata));\n\t}\n}\n",
  "sourcePath": "/home/amxx/Work/Projects/NFWallets/contracts/NFWallet.sol",
  "compiler": {
    "name": "solc",
    "version": "0.6.6+commit.6c089d02.Emscripten.clang"
  },
  "schemaVersion": "3.1.0",
  "updatedAt": "2020-04-23T07:52:05.675Z",
  "devdoc": {
    "methods": {}
  },
  "userdoc": {
    "methods": {}
  }
}